{
	"data": {
		"bytecode": {
			"linkReferences": {},
			"object": "60806040523480156200001157600080fd5b506040516200451e3803806200451e83398101604081905262000034916200012e565b604051806040016040528060098152602001680524f59414c2d4257560bc1b8152506040518060400160405280600381526020016205242560ec1b815250816000908162000083919062000202565b50600162000092828262000202565b5050600b805460ff1916905550620000aa33620000d4565b600f8390556010829055620000c08284620002ce565b601155600160125560145550620002f69050565b600b80546001600160a01b03838116610100818102610100600160a81b031985161790945560405193909204169182907f8be0079c531659141344cd1fd0a4f28419497f9722a3daafe3b4186f6b6457e090600090a35050565b6000806000606084860312156200014457600080fd5b8351925060208401519150604084015190509250925092565b634e487b7160e01b600052604160045260246000fd5b600181811c908216806200018857607f821691505b602082108103620001a957634e487b7160e01b600052602260045260246000fd5b50919050565b601f821115620001fd57600081815260208120601f850160051c81016020861015620001d85750805b601f850160051c820191505b81811015620001f957828155600101620001e4565b5050505b505050565b81516001600160401b038111156200021e576200021e6200015d565b62000236816200022f845462000173565b84620001af565b602080601f8311600181146200026e5760008415620002555750858301515b600019600386901b1c1916600185901b178555620001f9565b600085815260208120601f198616915b828110156200029f578886015182559484019460019091019084016200027e565b5085821015620002be5787850151600019600388901b60f8161c191681555b5050505050600190811b01905550565b81810381811115620002f057634e487b7160e01b600052601160045260246000fd5b92915050565b61421880620003066000396000f3fe608060405234801561001057600080fd5b50600436106102695760003560e01c806370a0823111610151578063b9fd9267116100c3578063d36d69a111610087578063d36d69a1146104f7578063d3fd64321461050a578063d411a36914610512578063e985e9c514610525578063ebf0c71714610561578063f2fde38b1461056a57600080fd5b8063b9fd9267146104a3578063baf9372e146104b6578063c772745a146104c9578063c87b56dd146104dc578063ceb5b638146104ef57600080fd5b806395d89b411161011557806395d89b41146104525780639b08a22f1461045a578063a22cb46514610462578063a8c21afe14610475578063b67f2bf414610488578063b88d4fde1461049057600080fd5b806370a0823114610406578063715018a6146104195780638456cb59146104215780638da5cb5b1461042957806390e7d16c1461043f57600080fd5b80632dc71012116101ea57806342966c68116101ae57806342966c68146103a75780634592c43d146103ba5780634d8c371c146103cd5780634f6ccce7146103d55780635c975abb146103e85780636352211e146103f357600080fd5b80632dc710121461035e5780632f745c59146103665780633a9c0e05146103795780633f4ba83a1461038c57806342842e0e1461039457600080fd5b80630f2dda6f116102315780630f2dda6f146102f357806318160ddd1461030657806321ff99701461031857806323b872dd1461032b57806324ba2c421461033e57600080fd5b806301ffc9a71461026e57806306fdde0314610296578063081812fc146102ab578063095ea7b3146102d65780630e1b26c6146102eb575b600080fd5b61028161027c36600461364c565b61057d565b60405190151581526020015b60405180910390f35b61029e61058e565b60405161028d91906136b9565b6102be6102b93660046136cc565b610620565b6040516001600160a01b03909116815260200161028d565b6102e96102e4366004613701565b610647565b005b6102e9610761565b6102816103013660046137de565b610860565b6008545b60405190815260200161028d565b6102e96103263660046136cc565b601455565b6102e9610339366004613873565b6108a6565b61035161034c3660046138af565b6108d8565b60405161028d91906138ca565b6102e9610a03565b61030a610374366004613701565b610b08565b6102e9610387366004613940565b610b9e565b6102e9610e9f565b6102e96103a2366004613873565b610eb1565b6102e96103b53660046136cc565b610ecc565b6102e96103c8366004613964565b610efd565b600f5461030a565b61030a6103e33660046136cc565b6110f9565b600b5460ff16610281565b6102be6104013660046136cc565b61118c565b61030a6104143660046138af565b6111ec565b6102e9611272565b6102e9611284565b600b5461010090046001600160a01b03166102be565b6102e961044d366004613701565b611294565b61029e61139b565b6102e96113aa565b6102e9610470366004613990565b611407565b6102e9610483366004613a43565b611416565b60105461030a565b6102e961049e366004613b2e565b6114b6565b6102e96104b13660046136cc565b6114ee565b6102e96104c43660046138af565b611639565b6102e96104d7366004613ba9565b61177d565b61029e6104ea3660046136cc565b611c07565b6102e9611c12565b6102e9610505366004613bff565b611c6e565b60115461030a565b6102e9610520366004613bff565b61221d565b610281610533366004613cf1565b6001600160a01b03918216600090815260056020908152604080832093909416825291909152205460ff1690565b61030a60145481565b6102e96105783660046138af565b6123a4565b60006105888261241a565b92915050565b60606000805461059d90613d24565b80601f01602080910402602001604051908101604052809291908181526020018280546105c990613d24565b80156106165780601f106105eb57610100808354040283529160200191610616565b820191906000526020600020905b8154815290600101906020018083116105f957829003601f168201915b5050505050905090565b600061062b8261243f565b506000908152600460205260409020546001600160a01b031690565b60006106528261118c565b9050806001600160a01b0316836001600160a01b0316036106c45760405162461bcd60e51b815260206004820152602160248201527f4552433732313a20617070726f76616c20746f2063757272656e74206f776e656044820152603960f91b60648201526084015b60405180910390fd5b336001600160a01b03821614806106e057506106e08133610533565b6107525760405162461bcd60e51b815260206004820152603d60248201527f4552433732313a20617070726f76652063616c6c6572206973206e6f7420746f60448201527f6b656e206f776e6572206f7220617070726f76656420666f7220616c6c00000060648201526084016106bb565b61075c838361249e565b505050565b61076961250c565b6012546000908152600c602052604090205460ff16156107cb5760405162461bcd60e51b815260206004820152601860248201527f506861736520697320616c7265616479206163746976652e000000000000000060448201526064016106bb565b6012546000908152600c60205260409020600201541580159061080157506012546000908152600c602052604090206003015415155b6108425760405162461bcd60e51b81526020600482015260126024820152715068617365204e6f7420437265617465642160701b60448201526064016106bb565b6012546000908152600c60205260409020805460ff19166001179055565b6014546040516bffffffffffffffffffffffff193360601b166020820152600091610588918491906034016040516020818303038152906040528051906020012061256c565b6108b1335b82612582565b6108cd5760405162461bcd60e51b81526004016106bb90613d5e565b61075c838383612601565b606060006108e5836111ec565b1161091c5760405162461bcd60e51b81526020600482015260076024820152664e6f204e46547360c81b60448201526064016106bb565b6000610927836111ec565b6001600160401b0381111561093e5761093e61372b565b60405190808252806020026020018201604052801561098457816020015b60408051808201909152606081526000602082015281526020019060019003908161095c5790505b50905060005b610993846111ec565b8110156109fc5760006109a68583610b08565b905060006109b382611c07565b90506040518060400160405280828152602001838152508484815181106109dc576109dc613dab565b6020026020010181905250505080806109f490613dd7565b91505061098a565b5092915050565b610a0b61250c565b6012546000908152600c602052604090205460ff16610a635760405162461bcd60e51b8152602060048201526014602482015273283430b9b29034b9903737ba1030b1ba34bb329760611b60448201526064016106bb565b6012546000908152600c602052604090206002015415801590610a9957506012546000908152600c602052604090206003015415155b610ada5760405162461bcd60e51b81526020600482015260126024820152715068617365204e6f7420437265617465642160701b60448201526064016106bb565b601280546000908152600c60205260408120805460ff1916905581549190610b0183613dd7565b9190505550565b6000610b13836111ec565b8210610b755760405162461bcd60e51b815260206004820152602b60248201527f455243373231456e756d657261626c653a206f776e657220696e646578206f7560448201526a74206f6620626f756e647360a81b60648201526084016106bb565b506001600160a01b03919091166000908152600660209081526040808320938352929052205490565b610ba661250c565b816001600160a01b038116610bef5760405162461bcd60e51b815260206004820152600f60248201526e496e76616c6964206164647265737360881b60448201526064016106bb565b336000908152600d60205260409020546001600160a01b03808516911603610c595760405162461bcd60e51b815260206004820152601760248201527f5573657220416c7265616479205265676973746572656400000000000000000060448201526064016106bb565b6001600160a01b0383166000908152600e602052604090205460ff1615610ccd5760405162461bcd60e51b815260206004820152602260248201527f205573657220416c726561647920526567697374657265642061732041646d696044820152616e2160f01b60648201526084016106bb565b6000846002811115610ce157610ce1613df0565b1480610cfe57506001846002811115610cfc57610cfc613df0565b145b15610dcf576040518060800160405280846001600160a01b03168152602001838152602001600015158152602001856002811115610d3e57610d3e613df0565b90526001600160a01b038481166000908152600d6020908152604091829020845181546001600160a01b031916941693909317835583015160018301558201516002808301805460ff1981169315159384178255606086015193919261ffff1990911661ff00199092169190911790610100908490811115610dc257610dc2613df0565b0217905550905050610e58565b6002846002811115610de357610de3613df0565b03610e10576001600160a01b0383166000908152600e60205260409020805460ff19166001179055610e58565b60405162461bcd60e51b815260206004820152601760248201527f456e74657220436f7272656374205573657220526f6c6500000000000000000060448201526064016106bb565b826001600160a01b03167f8e18574f8a7333e6a87112742a55853a643e2f0550f4e1a3a2c3f1bb2994441d85604051610e919190613e06565b60405180910390a250505050565b610ea761250c565b610eaf612772565b565b61075c838383604051806020016040528060008152506114b6565b610ed5336108ab565b610ef15760405162461bcd60e51b81526004016106bb90613d5e565b610efa816127c4565b50565b610f0561250c565b6012546000908152600c602052604090205460ff1615610f675760405162461bcd60e51b815260206004820181905260248201527f43757272656e7420706861736520697320616c7265616479206163746976652e60448201526064016106bb565b826011541015610f895760405162461bcd60e51b81526004016106bb90613e2e565b6012546000908152600c6020526040902060010154158015610fbd57506012546000908152600c6020526040902060020154155b8015610fdb57506012546000908152600c6020526040902060030154155b6110205760405162461bcd60e51b8152602060048201526016602482015275506861736520416c726561647920437265617465642160501b60448201526064016106bb565b6000831180156110305750600082115b801561103c5750600081115b6110785760405162461bcd60e51b815260206004820152600d60248201526c125b9d985b1a5908131a5b5a5d609a1b60448201526064016106bb565b601280546000908152600c60209081526040808320600101879055835483528083206002018690558354835291829020600301849055915481519081529182018590528101839052606081018290527f27edcd2337d9132d264397555c946b288f9237463e029db583f17e4277eb8f3a9060800160405180910390a1505050565b600061110460085490565b82106111675760405162461bcd60e51b815260206004820152602c60248201527f455243373231456e756d657261626c653a20676c6f62616c20696e646578206f60448201526b7574206f6620626f756e647360a01b60648201526084016106bb565b6008828154811061117a5761117a613dab565b90600052602060002001549050919050565b6000818152600260205260408120546001600160a01b0316806105885760405162461bcd60e51b8152602060048201526018602482015277115490cdcc8c4e881a5b9d985b1a59081d1bdad95b88125160421b60448201526064016106bb565b60006001600160a01b0382166112565760405162461bcd60e51b815260206004820152602960248201527f4552433732313a2061646472657373207a65726f206973206e6f7420612076616044820152683634b21037bbb732b960b91b60648201526084016106bb565b506001600160a01b031660009081526003602052604090205490565b61127a61250c565b610eaf60006127cd565b61128c61250c565b610eaf612827565b61129c61250c565b6001600160a01b038083166000908152600d60205260409020548391166112d55760405162461bcd60e51b81526004016106bb90613e83565b6112de836111ec565b821161133e5760405162461bcd60e51b815260206004820152602960248201527f546865206c696d6974206d757374206578636565642074686520757365722773604482015268103130b630b731b29760b91b60648201526084016106bb565b6001600160a01b0383166000818152600d602052604090819020600101849055517f72e439fff0a6322e6c1644425183fc960c33cb2c2354c69569e15b066e8f786a9061138e9085815260200190565b60405180910390a2505050565b60606001805461059d90613d24565b6113b261250c565b60135460ff16156113f85760405162461bcd60e51b815260206004820152601060248201526f416c726561647920416c6c6f7765642160801b60448201526064016106bb565b6013805460ff19166001179055565b611412338383612864565b5050565b60005b815181101561141257336001600160a01b031661145283838151811061144157611441613dab565b60200260200101516020015161118c565b6001600160a01b0316036114a4576114a482828151811061147557611475613dab565b60200260200101516020015183838151811061149357611493613dab565b602002602001015160000151612932565b806114ae81613dd7565b915050611419565b6114c03383612582565b6114dc5760405162461bcd60e51b81526004016106bb90613d5e565b6114e8848484846129fd565b50505050565b6114f661250c565b6012546000908152600c602052604090205460ff1661154a5760405162461bcd60e51b815260206004820152601060248201526f5068617365204e6f742041637469766560801b60448201526064016106bb565b80601154101561156c5760405162461bcd60e51b81526004016106bb90613e2e565b6012546000908152600c602052604090206001015481116115e25760405162461bcd60e51b815260206004820152602a60248201527f4c696d69742067726561746572207468616e206578697374696e6720726573656044820152691c9d9959081b1a5b5a5d60b21b60648201526084016106bb565b601280546000908152600c6020908152604091829020600101849055915481519081529182018390527f145f08bb6cf86f23f9af7ce6966df2320ec8fdb5dbe1c4e2b1bf170d4eeeeea9910160405180910390a150565b61164161250c565b6001600160a01b038082166000908152600d602052604090205482911661167a5760405162461bcd60e51b81526004016106bb90613e83565b60016001600160a01b0383166000908152600d60205260409020600290810154610100900460ff16908111156116b2576116b2613df0565b03611740576001600160a01b0382166000908152600d602052604090206002015460ff16156117165760405162461bcd60e51b815260206004820152601060248201526f105b1c9958591e4815995c9a599a595960821b60448201526064016106bb565b6001600160a01b0382166000908152600d60205260409020600201805460ff191660011790555050565b60405162461bcd60e51b8152602060048201526012602482015271139bdc9b585b08139bdd08105b1b1bddd95960721b60448201526064016106bb565b826001600160a01b0381166117c65760405162461bcd60e51b815260206004820152600f60248201526e496e76616c6964206164647265737360881b60448201526064016106bb565b336000818152600d60205260409020546001600160a01b03166117fb5760405162461bcd60e51b81526004016106bb90613e83565b6012546000908152600c602052604090205460ff1661185c5760405162461bcd60e51b815260206004820152601f60248201527f5068617365206973204e6f7420616374697665206f722043726561746564210060448201526064016106bb565b6000601154116118c75760405162461bcd60e51b815260206004820152603060248201527f436f6e7472616374202055736572204d696e74696e672020206c696d6974206860448201526f185cc81899595b88195e18d95959195960821b60648201526084016106bb565b6012546000908152600c60205260409020600101546118f85760405162461bcd60e51b81526004016106bb90613eba565b61190183612a30565b506012546000908152600c60209081526040808320338452600d8352818420825160808101845281546001600160a01b0316815260018201549481019490945260028082015460ff8082161515958701959095529295949391926060850192610100909104169081111561197757611977613df0565b600281111561198857611988613df0565b90525090506001816060015160028111156119a5576119a5613df0565b03611ab75780604001516119cb5760405162461bcd60e51b81526004016106bb90613efc565b80602001516119d9336111ec565b10611a3a5760405162461bcd60e51b815260206004820152602b60248201527f5072656d69756d207573657220676c6f62616c206c696d69742068617320626560448201526a195b88195e18d95959195960aa1b60648201526084016106bb565b336000908152600483016020526040902054600283015411611ab25760405162461bcd60e51b815260206004820152602b60248201527f5072656d69756d207573657220706861736573206c696d69742068617320626560448201526a195b88195e18d95959195960aa1b60648201526084016106bb565b611b9c565b8060200151611ac5336111ec565b10611b255760405162461bcd60e51b815260206004820152602a60248201527f4e6f726d616c207573657220676c6f62616c206c696d697420686173206265656044820152691b88195e18d95959195960b21b60648201526084016106bb565b336000908152600483016020526040902054600383015411611b9c5760405162461bcd60e51b815260206004820152602a60248201527f4e6f726d616c207573657220706861736573206c696d697420686173206265656044820152691b88195e18d95959195960b21b60648201526084016106bb565b3360009081526004830160205260408120805491611bb983613dd7565b9091555050600182018054906000611bd083613f42565b909155505060118054906000611be583613f42565b9190505550611bf48786612a9d565b611bfe8587612932565b50505050505050565b606061058882612ab7565b611c1a61250c565b60135460ff16611c625760405162461bcd60e51b8152602060048201526013602482015272416c726561647920446973616c6c6f7765642160681b60448201526064016106bb565b6013805460ff19169055565b336000818152600d60205260409020546001600160a01b0316611ca35760405162461bcd60e51b81526004016106bb90613e83565b6012546000908152600c602052604090205460ff16611d045760405162461bcd60e51b815260206004820152601f60248201527f5068617365206973204e6f7420616374697665206f722043726561746564210060448201526064016106bb565b60008251601154611d159190613f59565b11611d785760405162461bcd60e51b815260206004820152602d60248201527f436f6e74726163742055736572204d696e74696e67206c696d6974206861732060448201526c1899595b88195e18d959591959609a1b60648201526084016106bb565b81516012546000908152600c60205260408120600101549091611d9a91613f59565b11611db75760405162461bcd60e51b81526004016106bb90613eba565b6012546000908152600c60209081526040808320338452600d8352818420825160808101845281546001600160a01b0316815260018201549481019490945260028082015460ff80821615159587019590955292959493919260608501926101009091041690811115611e2c57611e2c613df0565b6002811115611e3d57611e3d613df0565b9052509050600181606001516002811115611e5a57611e5a613df0565b03611f86578060400151611e805760405162461bcd60e51b81526004016106bb90613efc565b8351611e8b336111ec565b611e959190613f6c565b81602001511015611efc5760405162461bcd60e51b815260206004820152603960248201526000805160206141c383398151915260448201527f5072656d69756d205573657220476c6f62616c204c696d69740000000000000060648201526084016106bb565b8351336000908152600484016020526040902054611f1a9190613f6c565b82600201541015611f815760405162461bcd60e51b815260206004820152603860248201526000805160206141c383398151915260448201527f5072656d69756d2055736572205068617365204c696d6974000000000000000060648201526084016106bb565b612085565b8351611f91336111ec565b611f9b9190613f6c565b8160200151116120015760405162461bcd60e51b815260206004820152603860248201526000805160206141c383398151915260448201527f4e6f726d616c205573657220476c6f62616c204c696d6974000000000000000060648201526084016106bb565b835133600090815260048401602052604090205461201f9190613f6c565b8260030154116120855760405162461bcd60e51b815260206004820152603760248201526000805160206141c383398151915260448201527f4e6f726d616c2055736572205068617365204c696d697400000000000000000060648201526084016106bb565b60005b84518110156122165760006001600160a01b03168582815181106120ae576120ae613dab565b6020026020010151600001516001600160a01b0316036121075760405162461bcd60e51b8152602060048201526014602482015273496e76616c6964204d696e74204164647265737360601b60448201526064016106bb565b61212d85828151811061211c5761211c613dab565b602002602001015160200151612a30565b50336000908152600484016020526040812080549161214b83613dd7565b909155505060018301805490600061216283613f42565b90915550506011805490600061217783613f42565b91905055506121c085828151811061219157612191613dab565b6020026020010151600001518683815181106121af576121af613dab565b602002602001015160200151612a9d565b6122048582815181106121d5576121d5613dab565b6020026020010151602001518683815181106121f3576121f3613dab565b602002602001015160400151612932565b8061220e81613dd7565b915050612088565b5050505050565b336000908152600e602052604090205460ff1661227c5760405162461bcd60e51b815260206004820152601960248201527f4f6e6c792041646d696e732063616e204d696e74204e4654730000000000000060448201526064016106bb565b805160105461228b9190613f59565b601054116122f45760405162461bcd60e51b815260206004820152603060248201527f4172726179204c696d6974206d75737420626520756e64657220506c6174666f60448201526f1c9b48135a5b9d1a5b99c8131a5b5a5d60821b60648201526084016106bb565b60005b81518110156114125761231582828151811061211c5761211c613dab565b5061234982828151811061232b5761232b613dab565b6020026020010151600001518383815181106121af576121af613dab565b61237c82828151811061235e5761235e613dab565b6020026020010151602001518383815181106121f3576121f3613dab565b6010805490600061238c83613f42565b9190505550808061239c90613dd7565b9150506122f7565b6123ac61250c565b6001600160a01b0381166124115760405162461bcd60e51b815260206004820152602660248201527f4f776e61626c653a206e6577206f776e657220697320746865207a65726f206160448201526564647265737360d01b60648201526084016106bb565b610efa816127cd565b60006001600160e01b03198216632483248360e11b1480610588575061058882612bbf565b6000818152600260205260409020546001600160a01b0316610efa5760405162461bcd60e51b8152602060048201526018602482015277115490cdcc8c4e881a5b9d985b1a59081d1bdad95b88125160421b60448201526064016106bb565b600081815260046020526040902080546001600160a01b0319166001600160a01b03841690811790915581906124d38261118c565b6001600160a01b03167f8c5be1e5ebec7d5bd14f71427d1e84f3dd0314c0f7b2291e5b200ac8c7c3b92560405160405180910390a45050565b600b546001600160a01b03610100909104163314610eaf5760405162461bcd60e51b815260206004820181905260248201527f4f776e61626c653a2063616c6c6572206973206e6f7420746865206f776e657260448201526064016106bb565b6000826125798584612be4565b14949350505050565b60008061258e8361118c565b9050806001600160a01b0316846001600160a01b031614806125d557506001600160a01b0380821660009081526005602090815260408083209388168352929052205460ff165b806125f95750836001600160a01b03166125ee84610620565b6001600160a01b0316145b949350505050565b826001600160a01b03166126148261118c565b6001600160a01b03161461263a5760405162461bcd60e51b81526004016106bb90613f7f565b6001600160a01b03821661269c5760405162461bcd60e51b8152602060048201526024808201527f4552433732313a207472616e7366657220746f20746865207a65726f206164646044820152637265737360e01b60648201526084016106bb565b6126a98383836001612c58565b826001600160a01b03166126bc8261118c565b6001600160a01b0316146126e25760405162461bcd60e51b81526004016106bb90613f7f565b600081815260046020908152604080832080546001600160a01b03199081169091556001600160a01b0387811680865260038552838620805460001901905590871680865283862080546001019055868652600290945282852080549092168417909155905184937fddf252ad1be2c89b69c2b068fc378daa952ba7f163c4a11628f55a4df523b3ef91a4505050565b61277a612cbe565b600b805460ff191690557f5db9ee0a495bf2e6ff9c91a7834c1ba4fdd244a5e8aa4e537bd38aeae4b073aa335b6040516001600160a01b03909116815260200160405180910390a1565b610efa81612d07565b600b80546001600160a01b03838116610100818102610100600160a81b031985161790945560405193909204169182907f8be0079c531659141344cd1fd0a4f28419497f9722a3daafe3b4186f6b6457e090600090a35050565b61282f612d47565b600b805460ff191660011790557f62e78cea01bee320cd4e420270b5ea74000d11b0c9f74754ebdbfc544b05a2586127a73390565b816001600160a01b0316836001600160a01b0316036128c55760405162461bcd60e51b815260206004820152601960248201527f4552433732313a20617070726f766520746f2063616c6c65720000000000000060448201526064016106bb565b6001600160a01b03838116600081815260056020908152604080832094871680845294825291829020805460ff191686151590811790915591519182527f17307eab39ab6107e8899845ad3d59bd9653f200f220920489ca2b5937696c31910160405180910390a3505050565b6000828152600260205260409020546001600160a01b03166129ad5760405162461bcd60e51b815260206004820152602e60248201527f45524337323155524953746f726167653a2055524920736574206f66206e6f6e60448201526d32bc34b9ba32b73a103a37b5b2b760911b60648201526084016106bb565b6000828152600a602052604090206129c58282614012565b506040518281527ff8e1a15aba9398e019f0b49df1a4fde98ee17ae345cb5f6b5e2c27f5033e8ce79060200160405180910390a15050565b612a08848484612601565b612a1484848484612d8d565b6114e85760405162461bcd60e51b81526004016106bb906140d1565b6000600f54821115612a955760405162461bcd60e51b815260206004820152602860248201527f546f6b656e20494420657863656564732074686520546f74616c204d696e74696044820152671b99c8131a5b5a5d60c21b60648201526084016106bb565b506001919050565b611412828260405180602001604052806000815250612e8e565b6060612ac28261243f565b6000828152600a602052604081208054612adb90613d24565b80601f0160208091040260200160405190810160405280929190818152602001828054612b0790613d24565b8015612b545780601f10612b2957610100808354040283529160200191612b54565b820191906000526020600020905b815481529060010190602001808311612b3757829003601f168201915b505050505090506000612b7260408051602081019091526000815290565b90508051600003612b84575092915050565b815115612bb6578082604051602001612b9e929190614123565b60405160208183030381529060405292505050919050565b6125f984612ec1565b60006001600160e01b0319821663780e9d6360e01b1480610588575061058882612f35565b600081815b8451811015612c50576000858281518110612c0657612c06613dab565b60200260200101519050808311612c2c5760008381526020829052604090209250612c3d565b600081815260208490526040902092505b5080612c4881613dd7565b915050612be9565b509392505050565b612c60612d47565b60135460ff16612cb25760405162461bcd60e51b815260206004820152601760248201527f5472616e7366657220697320646561637469766174656400000000000000000060448201526064016106bb565b6114e884848484612f85565b600b5460ff16610eaf5760405162461bcd60e51b815260206004820152601460248201527314185d5cd8589b194e881b9bdd081c185d5cd95960621b60448201526064016106bb565b612d10816130b2565b6000818152600a602052604090208054612d2990613d24565b159050610efa576000818152600a60205260408120610efa916135e8565b600b5460ff1615610eaf5760405162461bcd60e51b815260206004820152601060248201526f14185d5cd8589b194e881c185d5cd95960821b60448201526064016106bb565b60006001600160a01b0384163b15612e8357604051630a85bd0160e11b81526001600160a01b0385169063150b7a0290612dd1903390899088908890600401614152565b6020604051808303816000875af1925050508015612e0c575060408051601f3d908101601f19168201909252612e099181019061418f565b60015b612e69573d808015612e3a576040519150601f19603f3d011682016040523d82523d6000602084013e612e3f565b606091505b508051600003612e615760405162461bcd60e51b81526004016106bb906140d1565b805181602001fd5b6001600160e01b031916630a85bd0160e11b1490506125f9565b506001949350505050565b612e988383613155565b612ea56000848484612d8d565b61075c5760405162461bcd60e51b81526004016106bb906140d1565b6060612ecc8261243f565b6000612ee360408051602081019091526000815290565b90506000815111612f035760405180602001604052806000815250612f2e565b80612f0d846132ee565b604051602001612f1e929190614123565b6040516020818303038152906040525b9392505050565b60006001600160e01b031982166380ac58cd60e01b1480612f6657506001600160e01b03198216635b5e139f60e01b145b8061058857506301ffc9a760e01b6001600160e01b0319831614610588565b6001811115612ff45760405162461bcd60e51b815260206004820152603560248201527f455243373231456e756d657261626c653a20636f6e7365637574697665207472604482015274185b9cd9995c9cc81b9bdd081cdd5c1c1bdc9d1959605a1b60648201526084016106bb565b816001600160a01b0385166130505761304b81600880546000838152600960205260408120829055600182018355919091527ff3f7a9fe364faab93b216da50a3214154f22a0a2b415b23a84c8169e8b636ee30155565b613073565b836001600160a01b0316856001600160a01b031614613073576130738582613380565b6001600160a01b03841661308f5761308a8161341d565b612216565b846001600160a01b0316846001600160a01b0316146122165761221684826134cc565b60006130bd8261118c565b90506130cd816000846001612c58565b6130d68261118c565b600083815260046020908152604080832080546001600160a01b03199081169091556001600160a01b0385168085526003845282852080546000190190558785526002909352818420805490911690555192935084927fddf252ad1be2c89b69c2b068fc378daa952ba7f163c4a11628f55a4df523b3ef908390a45050565b6001600160a01b0382166131ab5760405162461bcd60e51b815260206004820181905260248201527f4552433732313a206d696e7420746f20746865207a65726f206164647265737360448201526064016106bb565b6000818152600260205260409020546001600160a01b0316156132105760405162461bcd60e51b815260206004820152601c60248201527f4552433732313a20746f6b656e20616c7265616479206d696e7465640000000060448201526064016106bb565b61321e600083836001612c58565b6000818152600260205260409020546001600160a01b0316156132835760405162461bcd60e51b815260206004820152601c60248201527f4552433732313a20746f6b656e20616c7265616479206d696e7465640000000060448201526064016106bb565b6001600160a01b038216600081815260036020908152604080832080546001019055848352600290915280822080546001600160a01b0319168417905551839291907fddf252ad1be2c89b69c2b068fc378daa952ba7f163c4a11628f55a4df523b3ef908290a45050565b606060006132fb83613510565b60010190506000816001600160401b0381111561331a5761331a61372b565b6040519080825280601f01601f191660200182016040528015613344576020820181803683370190505b5090508181016020015b600019016f181899199a1a9b1b9c1cb0b131b232b360811b600a86061a8153600a850494508461334e57509392505050565b6000600161338d846111ec565b6133979190613f59565b6000838152600760205260409020549091508082146133ea576001600160a01b03841660009081526006602090815260408083208584528252808320548484528184208190558352600790915290208190555b5060009182526007602090815260408084208490556001600160a01b039094168352600681528383209183525290812055565b60085460009061342f90600190613f59565b6000838152600960205260408120546008805493945090928490811061345757613457613dab565b90600052602060002001549050806008838154811061347857613478613dab565b60009182526020808320909101929092558281526009909152604080822084905585825281205560088054806134b0576134b06141ac565b6001900381819060005260206000200160009055905550505050565b60006134d7836111ec565b6001600160a01b039093166000908152600660209081526040808320868452825280832085905593825260079052919091209190915550565b60008072184f03e93ff9f4daa797ed6e38ed64bf6a1f0160401b831061354f5772184f03e93ff9f4daa797ed6e38ed64bf6a1f0160401b830492506040015b6d04ee2d6d415b85acef8100000000831061357b576d04ee2d6d415b85acef8100000000830492506020015b662386f26fc10000831061359957662386f26fc10000830492506010015b6305f5e10083106135b1576305f5e100830492506008015b61271083106135c557612710830492506004015b606483106135d7576064830492506002015b600a83106105885760010192915050565b5080546135f490613d24565b6000825580601f10613604575050565b601f016020900490600052602060002090810190610efa91905b80821115613632576000815560010161361e565b5090565b6001600160e01b031981168114610efa57600080fd5b60006020828403121561365e57600080fd5b8135612f2e81613636565b60005b8381101561368457818101518382015260200161366c565b50506000910152565b600081518084526136a5816020860160208601613669565b601f01601f19169290920160200192915050565b602081526000612f2e602083018461368d565b6000602082840312156136de57600080fd5b5035919050565b80356001600160a01b03811681146136fc57600080fd5b919050565b6000806040838503121561371457600080fd5b61371d836136e5565b946020939093013593505050565b634e487b7160e01b600052604160045260246000fd5b604080519081016001600160401b03811182821017156137635761376361372b565b60405290565b604051606081016001600160401b03811182821017156137635761376361372b565b604051601f8201601f191681016001600160401b03811182821017156137b3576137b361372b565b604052919050565b60006001600160401b038211156137d4576137d461372b565b5060051b60200190565b600060208083850312156137f157600080fd5b82356001600160401b0381111561380757600080fd5b8301601f8101851361381857600080fd5b803561382b613826826137bb565b61378b565b81815260059190911b8201830190838101908783111561384a57600080fd5b928401925b828410156138685783358252928401929084019061384f565b979650505050505050565b60008060006060848603121561388857600080fd5b613891846136e5565b925061389f602085016136e5565b9150604084013590509250925092565b6000602082840312156138c157600080fd5b612f2e826136e5565b60006020808301818452808551808352604092508286019150828160051b87010184880160005b8381101561393257888303603f19018552815180518785526139158886018261368d565b9189015194890194909452948701949250908601906001016138f1565b509098975050505050505050565b60008060006060848603121561395557600080fd5b83356003811061389157600080fd5b60008060006060848603121561397957600080fd5b505081359360208301359350604090920135919050565b600080604083850312156139a357600080fd5b6139ac836136e5565b9150602083013580151581146139c157600080fd5b809150509250929050565b60006001600160401b038311156139e5576139e561372b565b6139f8601f8401601f191660200161378b565b9050828152838383011115613a0c57600080fd5b828260208301376000602084830101529392505050565b600082601f830112613a3457600080fd5b612f2e838335602085016139cc565b60006020808385031215613a5657600080fd5b82356001600160401b0380821115613a6d57600080fd5b818501915085601f830112613a8157600080fd5b8135613a8f613826826137bb565b81815260059190911b83018401908481019088831115613aae57600080fd5b8585015b83811015613b2157803585811115613aca5760008081fd5b86016040818c03601f1901811315613ae25760008081fd5b613aea613741565b8983013588811115613afc5760008081fd5b613b0a8e8c83870101613a23565b825250910135888201528352918601918601613ab2565b5098975050505050505050565b60008060008060808587031215613b4457600080fd5b613b4d856136e5565b9350613b5b602086016136e5565b92506040850135915060608501356001600160401b03811115613b7d57600080fd5b8501601f81018713613b8e57600080fd5b613b9d878235602084016139cc565b91505092959194509250565b600080600060608486031215613bbe57600080fd5b613bc7846136e5565b925060208401356001600160401b03811115613be257600080fd5b613bee86828701613a23565b925050604084013590509250925092565b60006020808385031215613c1257600080fd5b82356001600160401b0380821115613c2957600080fd5b818501915085601f830112613c3d57600080fd5b8135613c4b613826826137bb565b81815260059190911b83018401908481019088831115613c6a57600080fd5b8585015b83811015613b2157803585811115613c865760008081fd5b86016060818c03601f1901811315613c9e5760008081fd5b613ca6613769565b613cb18a84016136e5565b81526040838101358b830152918301359188831115613cd05760008081fd5b613cde8e8c85870101613a23565b9082015285525050918601918601613c6e565b60008060408385031215613d0457600080fd5b613d0d836136e5565b9150613d1b602084016136e5565b90509250929050565b600181811c90821680613d3857607f821691505b602082108103613d5857634e487b7160e01b600052602260045260246000fd5b50919050565b6020808252602d908201527f4552433732313a2063616c6c6572206973206e6f7420746f6b656e206f776e6560408201526c1c881bdc88185c1c1c9bdd9959609a1b606082015260800190565b634e487b7160e01b600052603260045260246000fd5b634e487b7160e01b600052601160045260246000fd5b600060018201613de957613de9613dc1565b5060010190565b634e487b7160e01b600052602160045260246000fd5b6020810160038310613e2857634e487b7160e01b600052602160045260246000fd5b91905290565b60208082526035908201527f5265736572766564206c696d69742063616e6e6f742065786365656420746865604082015274081d5cd95c89dcc81b5a5b9d1a5b99c81b1a5b5a5d605a1b606082015260800190565b6020808252601a908201527f5573657220526567697374726174696f6e205265717569726564000000000000604082015260600190565b60208082526022908201527f5068617365206d696e74206c696d697420686173206265656e20657863656564604082015261195960f21b606082015260800190565b60208082526026908201527f566572696669636174696f6e20526571756972656420666f72205072656d697560408201526536902ab9b2b960d11b606082015260800190565b600081613f5157613f51613dc1565b506000190190565b8181038181111561058857610588613dc1565b8082018082111561058857610588613dc1565b60208082526025908201527f4552433732313a207472616e736665722066726f6d20696e636f72726563742060408201526437bbb732b960d91b606082015260800190565b601f82111561075c57600081815260208120601f850160051c81016020861015613feb5750805b601f850160051c820191505b8181101561400a57828155600101613ff7565b505050505050565b81516001600160401b0381111561402b5761402b61372b565b61403f816140398454613d24565b84613fc4565b602080601f831160018114614074576000841561405c5750858301515b600019600386901b1c1916600185901b17855561400a565b600085815260208120601f198616915b828110156140a357888601518255948401946001909101908401614084565b50858210156140c15787850151600019600388901b60f8161c191681555b5050505050600190811b01905550565b60208082526032908201527f4552433732313a207472616e7366657220746f206e6f6e20455243373231526560408201527131b2b4bb32b91034b6b83632b6b2b73a32b960711b606082015260800190565b60008351614135818460208801613669565b835190830190614149818360208801613669565b01949350505050565b6001600160a01b03858116825284166020820152604081018390526080606082018190526000906141859083018461368d565b9695505050505050565b6000602082840312156141a157600080fd5b8151612f2e81613636565b634e487b7160e01b600052603160045260246000fdfe42756c6b204172726179204c656e677468206d75737420626520756e64657220a26469706673582212200c78633c2344ba4ef3011cafbe34fde22ddafb169ff06b6dc5ec8dd18bbcd0a164736f6c63430008120033",
			"opcodes": "PUSH1 0x80 PUSH1 0x40 MSTORE CALLVALUE DUP1 ISZERO PUSH3 0x11 JUMPI PUSH1 0x0 DUP1 REVERT JUMPDEST POP PUSH1 0x40 MLOAD PUSH3 0x451E CODESIZE SUB DUP1 PUSH3 0x451E DUP4 CODECOPY DUP2 ADD PUSH1 0x40 DUP2 SWAP1 MSTORE PUSH3 0x34 SWAP2 PUSH3 0x12E JUMP JUMPDEST PUSH1 0x40 MLOAD DUP1 PUSH1 0x40 ADD PUSH1 0x40 MSTORE DUP1 PUSH1 0x9 DUP2 MSTORE PUSH1 0x20 ADD PUSH9 0x524F59414C2D42575 PUSH1 0xBC SHL DUP2 MSTORE POP PUSH1 0x40 MLOAD DUP1 PUSH1 0x40 ADD PUSH1 0x40 MSTORE DUP1 PUSH1 0x3 DUP2 MSTORE PUSH1 0x20 ADD PUSH3 0x52425 PUSH1 0xEC SHL DUP2 MSTORE POP DUP2 PUSH1 0x0 SWAP1 DUP2 PUSH3 0x83 SWAP2 SWAP1 PUSH3 0x202 JUMP JUMPDEST POP PUSH1 0x1 PUSH3 0x92 DUP3 DUP3 PUSH3 0x202 JUMP JUMPDEST POP POP PUSH1 0xB DUP1 SLOAD PUSH1 0xFF NOT AND SWAP1 SSTORE POP PUSH3 0xAA CALLER PUSH3 0xD4 JUMP JUMPDEST PUSH1 0xF DUP4 SWAP1 SSTORE PUSH1 0x10 DUP3 SWAP1 SSTORE PUSH3 0xC0 DUP3 DUP5 PUSH3 0x2CE JUMP JUMPDEST PUSH1 0x11 SSTORE PUSH1 0x1 PUSH1 0x12 SSTORE PUSH1 0x14 SSTORE POP PUSH3 0x2F6 SWAP1 POP JUMP JUMPDEST PUSH1 0xB DUP1 SLOAD PUSH1 0x1 PUSH1 0x1 PUSH1 0xA0 SHL SUB DUP4 DUP2 AND PUSH2 0x100 DUP2 DUP2 MUL PUSH2 0x100 PUSH1 0x1 PUSH1 0xA8 SHL SUB NOT DUP6 AND OR SWAP1 SWAP5 SSTORE PUSH1 0x40 MLOAD SWAP4 SWAP1 SWAP3 DIV AND SWAP2 DUP3 SWAP1 PUSH32 0x8BE0079C531659141344CD1FD0A4F28419497F9722A3DAAFE3B4186F6B6457E0 SWAP1 PUSH1 0x0 SWAP1 LOG3 POP POP JUMP JUMPDEST PUSH1 0x0 DUP1 PUSH1 0x0 PUSH1 0x60 DUP5 DUP7 SUB SLT ISZERO PUSH3 0x144 JUMPI PUSH1 0x0 DUP1 REVERT JUMPDEST DUP4 MLOAD SWAP3 POP PUSH1 0x20 DUP5 ADD MLOAD SWAP2 POP PUSH1 0x40 DUP5 ADD MLOAD SWAP1 POP SWAP3 POP SWAP3 POP SWAP3 JUMP JUMPDEST PUSH4 0x4E487B71 PUSH1 0xE0 SHL PUSH1 0x0 MSTORE PUSH1 0x41 PUSH1 0x4 MSTORE PUSH1 0x24 PUSH1 0x0 REVERT JUMPDEST PUSH1 0x1 DUP2 DUP2 SHR SWAP1 DUP3 AND DUP1 PUSH3 0x188 JUMPI PUSH1 0x7F DUP3 AND SWAP2 POP JUMPDEST PUSH1 0x20 DUP3 LT DUP2 SUB PUSH3 0x1A9 JUMPI PUSH4 0x4E487B71 PUSH1 0xE0 SHL PUSH1 0x0 MSTORE PUSH1 0x22 PUSH1 0x4 MSTORE PUSH1 0x24 PUSH1 0x0 REVERT JUMPDEST POP SWAP2 SWAP1 POP JUMP JUMPDEST PUSH1 0x1F DUP3 GT ISZERO PUSH3 0x1FD JUMPI PUSH1 0x0 DUP2 DUP2 MSTORE PUSH1 0x20 DUP2 KECCAK256 PUSH1 0x1F DUP6 ADD PUSH1 0x5 SHR DUP2 ADD PUSH1 0x20 DUP7 LT ISZERO PUSH3 0x1D8 JUMPI POP DUP1 JUMPDEST PUSH1 0x1F DUP6 ADD PUSH1 0x5 SHR DUP3 ADD SWAP2 POP JUMPDEST DUP2 DUP2 LT ISZERO PUSH3 0x1F9 JUMPI DUP3 DUP2 SSTORE PUSH1 0x1 ADD PUSH3 0x1E4 JUMP JUMPDEST POP POP POP JUMPDEST POP POP POP JUMP JUMPDEST DUP2 MLOAD PUSH1 0x1 PUSH1 0x1 PUSH1 0x40 SHL SUB DUP2 GT ISZERO PUSH3 0x21E JUMPI PUSH3 0x21E PUSH3 0x15D JUMP JUMPDEST PUSH3 0x236 DUP2 PUSH3 0x22F DUP5 SLOAD PUSH3 0x173 JUMP JUMPDEST DUP5 PUSH3 0x1AF JUMP JUMPDEST PUSH1 0x20 DUP1 PUSH1 0x1F DUP4 GT PUSH1 0x1 DUP2 EQ PUSH3 0x26E JUMPI PUSH1 0x0 DUP5 ISZERO PUSH3 0x255 JUMPI POP DUP6 DUP4 ADD MLOAD JUMPDEST PUSH1 0x0 NOT PUSH1 0x3 DUP7 SWAP1 SHL SHR NOT AND PUSH1 0x1 DUP6 SWAP1 SHL OR DUP6 SSTORE PUSH3 0x1F9 JUMP JUMPDEST PUSH1 0x0 DUP6 DUP2 MSTORE PUSH1 0x20 DUP2 KECCAK256 PUSH1 0x1F NOT DUP7 AND SWAP2 JUMPDEST DUP3 DUP2 LT ISZERO PUSH3 0x29F JUMPI DUP9 DUP7 ADD MLOAD DUP3 SSTORE SWAP5 DUP5 ADD SWAP5 PUSH1 0x1 SWAP1 SWAP2 ADD SWAP1 DUP5 ADD PUSH3 0x27E JUMP JUMPDEST POP DUP6 DUP3 LT ISZERO PUSH3 0x2BE JUMPI DUP8 DUP6 ADD MLOAD PUSH1 0x0 NOT PUSH1 0x3 DUP9 SWAP1 SHL PUSH1 0xF8 AND SHR NOT AND DUP2 SSTORE JUMPDEST POP POP POP POP POP PUSH1 0x1 SWAP1 DUP2 SHL ADD SWAP1 SSTORE POP JUMP JUMPDEST DUP2 DUP2 SUB DUP2 DUP2 GT ISZERO PUSH3 0x2F0 JUMPI PUSH4 0x4E487B71 PUSH1 0xE0 SHL PUSH1 0x0 MSTORE PUSH1 0x11 PUSH1 0x4 MSTORE PUSH1 0x24 PUSH1 0x0 REVERT JUMPDEST SWAP3 SWAP2 POP POP JUMP JUMPDEST PUSH2 0x4218 DUP1 PUSH3 0x306 PUSH1 0x0 CODECOPY PUSH1 0x0 RETURN INVALID PUSH1 0x80 PUSH1 0x40 MSTORE CALLVALUE DUP1 ISZERO PUSH2 0x10 JUMPI PUSH1 0x0 DUP1 REVERT JUMPDEST POP PUSH1 0x4 CALLDATASIZE LT PUSH2 0x269 JUMPI PUSH1 0x0 CALLDATALOAD PUSH1 0xE0 SHR DUP1 PUSH4 0x70A08231 GT PUSH2 0x151 JUMPI DUP1 PUSH4 0xB9FD9267 GT PUSH2 0xC3 JUMPI DUP1 PUSH4 0xD36D69A1 GT PUSH2 0x87 JUMPI DUP1 PUSH4 0xD36D69A1 EQ PUSH2 0x4F7 JUMPI DUP1 PUSH4 0xD3FD6432 EQ PUSH2 0x50A JUMPI DUP1 PUSH4 0xD411A369 EQ PUSH2 0x512 JUMPI DUP1 PUSH4 0xE985E9C5 EQ PUSH2 0x525 JUMPI DUP1 PUSH4 0xEBF0C717 EQ PUSH2 0x561 JUMPI DUP1 PUSH4 0xF2FDE38B EQ PUSH2 0x56A JUMPI PUSH1 0x0 DUP1 REVERT JUMPDEST DUP1 PUSH4 0xB9FD9267 EQ PUSH2 0x4A3 JUMPI DUP1 PUSH4 0xBAF9372E EQ PUSH2 0x4B6 JUMPI DUP1 PUSH4 0xC772745A EQ PUSH2 0x4C9 JUMPI DUP1 PUSH4 0xC87B56DD EQ PUSH2 0x4DC JUMPI DUP1 PUSH4 0xCEB5B638 EQ PUSH2 0x4EF JUMPI PUSH1 0x0 DUP1 REVERT JUMPDEST DUP1 PUSH4 0x95D89B41 GT PUSH2 0x115 JUMPI DUP1 PUSH4 0x95D89B41 EQ PUSH2 0x452 JUMPI DUP1 PUSH4 0x9B08A22F EQ PUSH2 0x45A JUMPI DUP1 PUSH4 0xA22CB465 EQ PUSH2 0x462 JUMPI DUP1 PUSH4 0xA8C21AFE EQ PUSH2 0x475 JUMPI DUP1 PUSH4 0xB67F2BF4 EQ PUSH2 0x488 JUMPI DUP1 PUSH4 0xB88D4FDE EQ PUSH2 0x490 JUMPI PUSH1 0x0 DUP1 REVERT JUMPDEST DUP1 PUSH4 0x70A08231 EQ PUSH2 0x406 JUMPI DUP1 PUSH4 0x715018A6 EQ PUSH2 0x419 JUMPI DUP1 PUSH4 0x8456CB59 EQ PUSH2 0x421 JUMPI DUP1 PUSH4 0x8DA5CB5B EQ PUSH2 0x429 JUMPI DUP1 PUSH4 0x90E7D16C EQ PUSH2 0x43F JUMPI PUSH1 0x0 DUP1 REVERT JUMPDEST DUP1 PUSH4 0x2DC71012 GT PUSH2 0x1EA JUMPI DUP1 PUSH4 0x42966C68 GT PUSH2 0x1AE JUMPI DUP1 PUSH4 0x42966C68 EQ PUSH2 0x3A7 JUMPI DUP1 PUSH4 0x4592C43D EQ PUSH2 0x3BA JUMPI DUP1 PUSH4 0x4D8C371C EQ PUSH2 0x3CD JUMPI DUP1 PUSH4 0x4F6CCCE7 EQ PUSH2 0x3D5 JUMPI DUP1 PUSH4 0x5C975ABB EQ PUSH2 0x3E8 JUMPI DUP1 PUSH4 0x6352211E EQ PUSH2 0x3F3 JUMPI PUSH1 0x0 DUP1 REVERT JUMPDEST DUP1 PUSH4 0x2DC71012 EQ PUSH2 0x35E JUMPI DUP1 PUSH4 0x2F745C59 EQ PUSH2 0x366 JUMPI DUP1 PUSH4 0x3A9C0E05 EQ PUSH2 0x379 JUMPI DUP1 PUSH4 0x3F4BA83A EQ PUSH2 0x38C JUMPI DUP1 PUSH4 0x42842E0E EQ PUSH2 0x394 JUMPI PUSH1 0x0 DUP1 REVERT JUMPDEST DUP1 PUSH4 0xF2DDA6F GT PUSH2 0x231 JUMPI DUP1 PUSH4 0xF2DDA6F EQ PUSH2 0x2F3 JUMPI DUP1 PUSH4 0x18160DDD EQ PUSH2 0x306 JUMPI DUP1 PUSH4 0x21FF9970 EQ PUSH2 0x318 JUMPI DUP1 PUSH4 0x23B872DD EQ PUSH2 0x32B JUMPI DUP1 PUSH4 0x24BA2C42 EQ PUSH2 0x33E JUMPI PUSH1 0x0 DUP1 REVERT JUMPDEST DUP1 PUSH4 0x1FFC9A7 EQ PUSH2 0x26E JUMPI DUP1 PUSH4 0x6FDDE03 EQ PUSH2 0x296 JUMPI DUP1 PUSH4 0x81812FC EQ PUSH2 0x2AB JUMPI DUP1 PUSH4 0x95EA7B3 EQ PUSH2 0x2D6 JUMPI DUP1 PUSH4 0xE1B26C6 EQ PUSH2 0x2EB JUMPI JUMPDEST PUSH1 0x0 DUP1 REVERT JUMPDEST PUSH2 0x281 PUSH2 0x27C CALLDATASIZE PUSH1 0x4 PUSH2 0x364C JUMP JUMPDEST PUSH2 0x57D JUMP JUMPDEST PUSH1 0x40 MLOAD SWAP1 ISZERO ISZERO DUP2 MSTORE PUSH1 0x20 ADD JUMPDEST PUSH1 0x40 MLOAD DUP1 SWAP2 SUB SWAP1 RETURN JUMPDEST PUSH2 0x29E PUSH2 0x58E JUMP JUMPDEST PUSH1 0x40 MLOAD PUSH2 0x28D SWAP2 SWAP1 PUSH2 0x36B9 JUMP JUMPDEST PUSH2 0x2BE PUSH2 0x2B9 CALLDATASIZE PUSH1 0x4 PUSH2 0x36CC JUMP JUMPDEST PUSH2 0x620 JUMP JUMPDEST PUSH1 0x40 MLOAD PUSH1 0x1 PUSH1 0x1 PUSH1 0xA0 SHL SUB SWAP1 SWAP2 AND DUP2 MSTORE PUSH1 0x20 ADD PUSH2 0x28D JUMP JUMPDEST PUSH2 0x2E9 PUSH2 0x2E4 CALLDATASIZE PUSH1 0x4 PUSH2 0x3701 JUMP JUMPDEST PUSH2 0x647 JUMP JUMPDEST STOP JUMPDEST PUSH2 0x2E9 PUSH2 0x761 JUMP JUMPDEST PUSH2 0x281 PUSH2 0x301 CALLDATASIZE PUSH1 0x4 PUSH2 0x37DE JUMP JUMPDEST PUSH2 0x860 JUMP JUMPDEST PUSH1 0x8 SLOAD JUMPDEST PUSH1 0x40 MLOAD SWAP1 DUP2 MSTORE PUSH1 0x20 ADD PUSH2 0x28D JUMP JUMPDEST PUSH2 0x2E9 PUSH2 0x326 CALLDATASIZE PUSH1 0x4 PUSH2 0x36CC JUMP JUMPDEST PUSH1 0x14 SSTORE JUMP JUMPDEST PUSH2 0x2E9 PUSH2 0x339 CALLDATASIZE PUSH1 0x4 PUSH2 0x3873 JUMP JUMPDEST PUSH2 0x8A6 JUMP JUMPDEST PUSH2 0x351 PUSH2 0x34C CALLDATASIZE PUSH1 0x4 PUSH2 0x38AF JUMP JUMPDEST PUSH2 0x8D8 JUMP JUMPDEST PUSH1 0x40 MLOAD PUSH2 0x28D SWAP2 SWAP1 PUSH2 0x38CA JUMP JUMPDEST PUSH2 0x2E9 PUSH2 0xA03 JUMP JUMPDEST PUSH2 0x30A PUSH2 0x374 CALLDATASIZE PUSH1 0x4 PUSH2 0x3701 JUMP JUMPDEST PUSH2 0xB08 JUMP JUMPDEST PUSH2 0x2E9 PUSH2 0x387 CALLDATASIZE PUSH1 0x4 PUSH2 0x3940 JUMP JUMPDEST PUSH2 0xB9E JUMP JUMPDEST PUSH2 0x2E9 PUSH2 0xE9F JUMP JUMPDEST PUSH2 0x2E9 PUSH2 0x3A2 CALLDATASIZE PUSH1 0x4 PUSH2 0x3873 JUMP JUMPDEST PUSH2 0xEB1 JUMP JUMPDEST PUSH2 0x2E9 PUSH2 0x3B5 CALLDATASIZE PUSH1 0x4 PUSH2 0x36CC JUMP JUMPDEST PUSH2 0xECC JUMP JUMPDEST PUSH2 0x2E9 PUSH2 0x3C8 CALLDATASIZE PUSH1 0x4 PUSH2 0x3964 JUMP JUMPDEST PUSH2 0xEFD JUMP JUMPDEST PUSH1 0xF SLOAD PUSH2 0x30A JUMP JUMPDEST PUSH2 0x30A PUSH2 0x3E3 CALLDATASIZE PUSH1 0x4 PUSH2 0x36CC JUMP JUMPDEST PUSH2 0x10F9 JUMP JUMPDEST PUSH1 0xB SLOAD PUSH1 0xFF AND PUSH2 0x281 JUMP JUMPDEST PUSH2 0x2BE PUSH2 0x401 CALLDATASIZE PUSH1 0x4 PUSH2 0x36CC JUMP JUMPDEST PUSH2 0x118C JUMP JUMPDEST PUSH2 0x30A PUSH2 0x414 CALLDATASIZE PUSH1 0x4 PUSH2 0x38AF JUMP JUMPDEST PUSH2 0x11EC JUMP JUMPDEST PUSH2 0x2E9 PUSH2 0x1272 JUMP JUMPDEST PUSH2 0x2E9 PUSH2 0x1284 JUMP JUMPDEST PUSH1 0xB SLOAD PUSH2 0x100 SWAP1 DIV PUSH1 0x1 PUSH1 0x1 PUSH1 0xA0 SHL SUB AND PUSH2 0x2BE JUMP JUMPDEST PUSH2 0x2E9 PUSH2 0x44D CALLDATASIZE PUSH1 0x4 PUSH2 0x3701 JUMP JUMPDEST PUSH2 0x1294 JUMP JUMPDEST PUSH2 0x29E PUSH2 0x139B JUMP JUMPDEST PUSH2 0x2E9 PUSH2 0x13AA JUMP JUMPDEST PUSH2 0x2E9 PUSH2 0x470 CALLDATASIZE PUSH1 0x4 PUSH2 0x3990 JUMP JUMPDEST PUSH2 0x1407 JUMP JUMPDEST PUSH2 0x2E9 PUSH2 0x483 CALLDATASIZE PUSH1 0x4 PUSH2 0x3A43 JUMP JUMPDEST PUSH2 0x1416 JUMP JUMPDEST PUSH1 0x10 SLOAD PUSH2 0x30A JUMP JUMPDEST PUSH2 0x2E9 PUSH2 0x49E CALLDATASIZE PUSH1 0x4 PUSH2 0x3B2E JUMP JUMPDEST PUSH2 0x14B6 JUMP JUMPDEST PUSH2 0x2E9 PUSH2 0x4B1 CALLDATASIZE PUSH1 0x4 PUSH2 0x36CC JUMP JUMPDEST PUSH2 0x14EE JUMP JUMPDEST PUSH2 0x2E9 PUSH2 0x4C4 CALLDATASIZE PUSH1 0x4 PUSH2 0x38AF JUMP JUMPDEST PUSH2 0x1639 JUMP JUMPDEST PUSH2 0x2E9 PUSH2 0x4D7 CALLDATASIZE PUSH1 0x4 PUSH2 0x3BA9 JUMP JUMPDEST PUSH2 0x177D JUMP JUMPDEST PUSH2 0x29E PUSH2 0x4EA CALLDATASIZE PUSH1 0x4 PUSH2 0x36CC JUMP JUMPDEST PUSH2 0x1C07 JUMP JUMPDEST PUSH2 0x2E9 PUSH2 0x1C12 JUMP JUMPDEST PUSH2 0x2E9 PUSH2 0x505 CALLDATASIZE PUSH1 0x4 PUSH2 0x3BFF JUMP JUMPDEST PUSH2 0x1C6E JUMP JUMPDEST PUSH1 0x11 SLOAD PUSH2 0x30A JUMP JUMPDEST PUSH2 0x2E9 PUSH2 0x520 CALLDATASIZE PUSH1 0x4 PUSH2 0x3BFF JUMP JUMPDEST PUSH2 0x221D JUMP JUMPDEST PUSH2 0x281 PUSH2 0x533 CALLDATASIZE PUSH1 0x4 PUSH2 0x3CF1 JUMP JUMPDEST PUSH1 0x1 PUSH1 0x1 PUSH1 0xA0 SHL SUB SWAP2 DUP3 AND PUSH1 0x0 SWAP1 DUP2 MSTORE PUSH1 0x5 PUSH1 0x20 SWAP1 DUP2 MSTORE PUSH1 0x40 DUP1 DUP4 KECCAK256 SWAP4 SWAP1 SWAP5 AND DUP3 MSTORE SWAP2 SWAP1 SWAP2 MSTORE KECCAK256 SLOAD PUSH1 0xFF AND SWAP1 JUMP JUMPDEST PUSH2 0x30A PUSH1 0x14 SLOAD DUP2 JUMP JUMPDEST PUSH2 0x2E9 PUSH2 0x578 CALLDATASIZE PUSH1 0x4 PUSH2 0x38AF JUMP JUMPDEST PUSH2 0x23A4 JUMP JUMPDEST PUSH1 0x0 PUSH2 0x588 DUP3 PUSH2 0x241A JUMP JUMPDEST SWAP3 SWAP2 POP POP JUMP JUMPDEST PUSH1 0x60 PUSH1 0x0 DUP1 SLOAD PUSH2 0x59D SWAP1 PUSH2 0x3D24 JUMP JUMPDEST DUP1 PUSH1 0x1F ADD PUSH1 0x20 DUP1 SWAP2 DIV MUL PUSH1 0x20 ADD PUSH1 0x40 MLOAD SWAP1 DUP2 ADD PUSH1 0x40 MSTORE DUP1 SWAP3 SWAP2 SWAP1 DUP2 DUP2 MSTORE PUSH1 0x20 ADD DUP3 DUP1 SLOAD PUSH2 0x5C9 SWAP1 PUSH2 0x3D24 JUMP JUMPDEST DUP1 ISZERO PUSH2 0x616 JUMPI DUP1 PUSH1 0x1F LT PUSH2 0x5EB JUMPI PUSH2 0x100 DUP1 DUP4 SLOAD DIV MUL DUP4 MSTORE SWAP2 PUSH1 0x20 ADD SWAP2 PUSH2 0x616 JUMP JUMPDEST DUP3 ADD SWAP2 SWAP1 PUSH1 0x0 MSTORE PUSH1 0x20 PUSH1 0x0 KECCAK256 SWAP1 JUMPDEST DUP2 SLOAD DUP2 MSTORE SWAP1 PUSH1 0x1 ADD SWAP1 PUSH1 0x20 ADD DUP1 DUP4 GT PUSH2 0x5F9 JUMPI DUP3 SWAP1 SUB PUSH1 0x1F AND DUP3 ADD SWAP2 JUMPDEST POP POP POP POP POP SWAP1 POP SWAP1 JUMP JUMPDEST PUSH1 0x0 PUSH2 0x62B DUP3 PUSH2 0x243F JUMP JUMPDEST POP PUSH1 0x0 SWAP1 DUP2 MSTORE PUSH1 0x4 PUSH1 0x20 MSTORE PUSH1 0x40 SWAP1 KECCAK256 SLOAD PUSH1 0x1 PUSH1 0x1 PUSH1 0xA0 SHL SUB AND SWAP1 JUMP JUMPDEST PUSH1 0x0 PUSH2 0x652 DUP3 PUSH2 0x118C JUMP JUMPDEST SWAP1 POP DUP1 PUSH1 0x1 PUSH1 0x1 PUSH1 0xA0 SHL SUB AND DUP4 PUSH1 0x1 PUSH1 0x1 PUSH1 0xA0 SHL SUB AND SUB PUSH2 0x6C4 JUMPI PUSH1 0x40 MLOAD PUSH3 0x461BCD PUSH1 0xE5 SHL DUP2 MSTORE PUSH1 0x20 PUSH1 0x4 DUP3 ADD MSTORE PUSH1 0x21 PUSH1 0x24 DUP3 ADD MSTORE PUSH32 0x4552433732313A20617070726F76616C20746F2063757272656E74206F776E65 PUSH1 0x44 DUP3 ADD MSTORE PUSH1 0x39 PUSH1 0xF9 SHL PUSH1 0x64 DUP3 ADD MSTORE PUSH1 0x84 ADD JUMPDEST PUSH1 0x40 MLOAD DUP1 SWAP2 SUB SWAP1 REVERT JUMPDEST CALLER PUSH1 0x1 PUSH1 0x1 PUSH1 0xA0 SHL SUB DUP3 AND EQ DUP1 PUSH2 0x6E0 JUMPI POP PUSH2 0x6E0 DUP2 CALLER PUSH2 0x533 JUMP JUMPDEST PUSH2 0x752 JUMPI PUSH1 0x40 MLOAD PUSH3 0x461BCD PUSH1 0xE5 SHL DUP2 MSTORE PUSH1 0x20 PUSH1 0x4 DUP3 ADD MSTORE PUSH1 0x3D PUSH1 0x24 DUP3 ADD MSTORE PUSH32 0x4552433732313A20617070726F76652063616C6C6572206973206E6F7420746F PUSH1 0x44 DUP3 ADD MSTORE PUSH32 0x6B656E206F776E6572206F7220617070726F76656420666F7220616C6C000000 PUSH1 0x64 DUP3 ADD MSTORE PUSH1 0x84 ADD PUSH2 0x6BB JUMP JUMPDEST PUSH2 0x75C DUP4 DUP4 PUSH2 0x249E JUMP JUMPDEST POP POP POP JUMP JUMPDEST PUSH2 0x769 PUSH2 0x250C JUMP JUMPDEST PUSH1 0x12 SLOAD PUSH1 0x0 SWAP1 DUP2 MSTORE PUSH1 0xC PUSH1 0x20 MSTORE PUSH1 0x40 SWAP1 KECCAK256 SLOAD PUSH1 0xFF AND ISZERO PUSH2 0x7CB JUMPI PUSH1 0x40 MLOAD PUSH3 0x461BCD PUSH1 0xE5 SHL DUP2 MSTORE PUSH1 0x20 PUSH1 0x4 DUP3 ADD MSTORE PUSH1 0x18 PUSH1 0x24 DUP3 ADD MSTORE PUSH32 0x506861736520697320616C7265616479206163746976652E0000000000000000 PUSH1 0x44 DUP3 ADD MSTORE PUSH1 0x64 ADD PUSH2 0x6BB JUMP JUMPDEST PUSH1 0x12 SLOAD PUSH1 0x0 SWAP1 DUP2 MSTORE PUSH1 0xC PUSH1 0x20 MSTORE PUSH1 0x40 SWAP1 KECCAK256 PUSH1 0x2 ADD SLOAD ISZERO DUP1 ISZERO SWAP1 PUSH2 0x801 JUMPI POP PUSH1 0x12 SLOAD PUSH1 0x0 SWAP1 DUP2 MSTORE PUSH1 0xC PUSH1 0x20 MSTORE PUSH1 0x40 SWAP1 KECCAK256 PUSH1 0x3 ADD SLOAD ISZERO ISZERO JUMPDEST PUSH2 0x842 JUMPI PUSH1 0x40 MLOAD PUSH3 0x461BCD PUSH1 0xE5 SHL DUP2 MSTORE PUSH1 0x20 PUSH1 0x4 DUP3 ADD MSTORE PUSH1 0x12 PUSH1 0x24 DUP3 ADD MSTORE PUSH18 0x5068617365204E6F74204372656174656421 PUSH1 0x70 SHL PUSH1 0x44 DUP3 ADD MSTORE PUSH1 0x64 ADD PUSH2 0x6BB JUMP JUMPDEST PUSH1 0x12 SLOAD PUSH1 0x0 SWAP1 DUP2 MSTORE PUSH1 0xC PUSH1 0x20 MSTORE PUSH1 0x40 SWAP1 KECCAK256 DUP1 SLOAD PUSH1 0xFF NOT AND PUSH1 0x1 OR SWAP1 SSTORE JUMP JUMPDEST PUSH1 0x14 SLOAD PUSH1 0x40 MLOAD PUSH12 0xFFFFFFFFFFFFFFFFFFFFFFFF NOT CALLER PUSH1 0x60 SHL AND PUSH1 0x20 DUP3 ADD MSTORE PUSH1 0x0 SWAP2 PUSH2 0x588 SWAP2 DUP5 SWAP2 SWAP1 PUSH1 0x34 ADD PUSH1 0x40 MLOAD PUSH1 0x20 DUP2 DUP4 SUB SUB DUP2 MSTORE SWAP1 PUSH1 0x40 MSTORE DUP1 MLOAD SWAP1 PUSH1 0x20 ADD KECCAK256 PUSH2 0x256C JUMP JUMPDEST PUSH2 0x8B1 CALLER JUMPDEST DUP3 PUSH2 0x2582 JUMP JUMPDEST PUSH2 0x8CD JUMPI PUSH1 0x40 MLOAD PUSH3 0x461BCD PUSH1 0xE5 SHL DUP2 MSTORE PUSH1 0x4 ADD PUSH2 0x6BB SWAP1 PUSH2 0x3D5E JUMP JUMPDEST PUSH2 0x75C DUP4 DUP4 DUP4 PUSH2 0x2601 JUMP JUMPDEST PUSH1 0x60 PUSH1 0x0 PUSH2 0x8E5 DUP4 PUSH2 0x11EC JUMP JUMPDEST GT PUSH2 0x91C JUMPI PUSH1 0x40 MLOAD PUSH3 0x461BCD PUSH1 0xE5 SHL DUP2 MSTORE PUSH1 0x20 PUSH1 0x4 DUP3 ADD MSTORE PUSH1 0x7 PUSH1 0x24 DUP3 ADD MSTORE PUSH7 0x4E6F204E465473 PUSH1 0xC8 SHL PUSH1 0x44 DUP3 ADD MSTORE PUSH1 0x64 ADD PUSH2 0x6BB JUMP JUMPDEST PUSH1 0x0 PUSH2 0x927 DUP4 PUSH2 0x11EC JUMP JUMPDEST PUSH1 0x1 PUSH1 0x1 PUSH1 0x40 SHL SUB DUP2 GT ISZERO PUSH2 0x93E JUMPI PUSH2 0x93E PUSH2 0x372B JUMP JUMPDEST PUSH1 0x40 MLOAD SWAP1 DUP1 DUP3 MSTORE DUP1 PUSH1 0x20 MUL PUSH1 0x20 ADD DUP3 ADD PUSH1 0x40 MSTORE DUP1 ISZERO PUSH2 0x984 JUMPI DUP2 PUSH1 0x20 ADD JUMPDEST PUSH1 0x40 DUP1 MLOAD DUP1 DUP3 ADD SWAP1 SWAP2 MSTORE PUSH1 0x60 DUP2 MSTORE PUSH1 0x0 PUSH1 0x20 DUP3 ADD MSTORE DUP2 MSTORE PUSH1 0x20 ADD SWAP1 PUSH1 0x1 SWAP1 SUB SWAP1 DUP2 PUSH2 0x95C JUMPI SWAP1 POP JUMPDEST POP SWAP1 POP PUSH1 0x0 JUMPDEST PUSH2 0x993 DUP5 PUSH2 0x11EC JUMP JUMPDEST DUP2 LT ISZERO PUSH2 0x9FC JUMPI PUSH1 0x0 PUSH2 0x9A6 DUP6 DUP4 PUSH2 0xB08 JUMP JUMPDEST SWAP1 POP PUSH1 0x0 PUSH2 0x9B3 DUP3 PUSH2 0x1C07 JUMP JUMPDEST SWAP1 POP PUSH1 0x40 MLOAD DUP1 PUSH1 0x40 ADD PUSH1 0x40 MSTORE DUP1 DUP3 DUP2 MSTORE PUSH1 0x20 ADD DUP4 DUP2 MSTORE POP DUP5 DUP5 DUP2 MLOAD DUP2 LT PUSH2 0x9DC JUMPI PUSH2 0x9DC PUSH2 0x3DAB JUMP JUMPDEST PUSH1 0x20 MUL PUSH1 0x20 ADD ADD DUP2 SWAP1 MSTORE POP POP POP DUP1 DUP1 PUSH2 0x9F4 SWAP1 PUSH2 0x3DD7 JUMP JUMPDEST SWAP2 POP POP PUSH2 0x98A JUMP JUMPDEST POP SWAP3 SWAP2 POP POP JUMP JUMPDEST PUSH2 0xA0B PUSH2 0x250C JUMP JUMPDEST PUSH1 0x12 SLOAD PUSH1 0x0 SWAP1 DUP2 MSTORE PUSH1 0xC PUSH1 0x20 MSTORE PUSH1 0x40 SWAP1 KECCAK256 SLOAD PUSH1 0xFF AND PUSH2 0xA63 JUMPI PUSH1 0x40 MLOAD PUSH3 0x461BCD PUSH1 0xE5 SHL DUP2 MSTORE PUSH1 0x20 PUSH1 0x4 DUP3 ADD MSTORE PUSH1 0x14 PUSH1 0x24 DUP3 ADD MSTORE PUSH20 0x283430B9B29034B9903737BA1030B1BA34BB3297 PUSH1 0x61 SHL PUSH1 0x44 DUP3 ADD MSTORE PUSH1 0x64 ADD PUSH2 0x6BB JUMP JUMPDEST PUSH1 0x12 SLOAD PUSH1 0x0 SWAP1 DUP2 MSTORE PUSH1 0xC PUSH1 0x20 MSTORE PUSH1 0x40 SWAP1 KECCAK256 PUSH1 0x2 ADD SLOAD ISZERO DUP1 ISZERO SWAP1 PUSH2 0xA99 JUMPI POP PUSH1 0x12 SLOAD PUSH1 0x0 SWAP1 DUP2 MSTORE PUSH1 0xC PUSH1 0x20 MSTORE PUSH1 0x40 SWAP1 KECCAK256 PUSH1 0x3 ADD SLOAD ISZERO ISZERO JUMPDEST PUSH2 0xADA JUMPI PUSH1 0x40 MLOAD PUSH3 0x461BCD PUSH1 0xE5 SHL DUP2 MSTORE PUSH1 0x20 PUSH1 0x4 DUP3 ADD MSTORE PUSH1 0x12 PUSH1 0x24 DUP3 ADD MSTORE PUSH18 0x5068617365204E6F74204372656174656421 PUSH1 0x70 SHL PUSH1 0x44 DUP3 ADD MSTORE PUSH1 0x64 ADD PUSH2 0x6BB JUMP JUMPDEST PUSH1 0x12 DUP1 SLOAD PUSH1 0x0 SWAP1 DUP2 MSTORE PUSH1 0xC PUSH1 0x20 MSTORE PUSH1 0x40 DUP2 KECCAK256 DUP1 SLOAD PUSH1 0xFF NOT AND SWAP1 SSTORE DUP2 SLOAD SWAP2 SWAP1 PUSH2 0xB01 DUP4 PUSH2 0x3DD7 JUMP JUMPDEST SWAP2 SWAP1 POP SSTORE POP JUMP JUMPDEST PUSH1 0x0 PUSH2 0xB13 DUP4 PUSH2 0x11EC JUMP JUMPDEST DUP3 LT PUSH2 0xB75 JUMPI PUSH1 0x40 MLOAD PUSH3 0x461BCD PUSH1 0xE5 SHL DUP2 MSTORE PUSH1 0x20 PUSH1 0x4 DUP3 ADD MSTORE PUSH1 0x2B PUSH1 0x24 DUP3 ADD MSTORE PUSH32 0x455243373231456E756D657261626C653A206F776E657220696E646578206F75 PUSH1 0x44 DUP3 ADD MSTORE PUSH11 0x74206F6620626F756E6473 PUSH1 0xA8 SHL PUSH1 0x64 DUP3 ADD MSTORE PUSH1 0x84 ADD PUSH2 0x6BB JUMP JUMPDEST POP PUSH1 0x1 PUSH1 0x1 PUSH1 0xA0 SHL SUB SWAP2 SWAP1 SWAP2 AND PUSH1 0x0 SWAP1 DUP2 MSTORE PUSH1 0x6 PUSH1 0x20 SWAP1 DUP2 MSTORE PUSH1 0x40 DUP1 DUP4 KECCAK256 SWAP4 DUP4 MSTORE SWAP3 SWAP1 MSTORE KECCAK256 SLOAD SWAP1 JUMP JUMPDEST PUSH2 0xBA6 PUSH2 0x250C JUMP JUMPDEST DUP2 PUSH1 0x1 PUSH1 0x1 PUSH1 0xA0 SHL SUB DUP2 AND PUSH2 0xBEF JUMPI PUSH1 0x40 MLOAD PUSH3 0x461BCD PUSH1 0xE5 SHL DUP2 MSTORE PUSH1 0x20 PUSH1 0x4 DUP3 ADD MSTORE PUSH1 0xF PUSH1 0x24 DUP3 ADD MSTORE PUSH15 0x496E76616C69642061646472657373 PUSH1 0x88 SHL PUSH1 0x44 DUP3 ADD MSTORE PUSH1 0x64 ADD PUSH2 0x6BB JUMP JUMPDEST CALLER PUSH1 0x0 SWAP1 DUP2 MSTORE PUSH1 0xD PUSH1 0x20 MSTORE PUSH1 0x40 SWAP1 KECCAK256 SLOAD PUSH1 0x1 PUSH1 0x1 PUSH1 0xA0 SHL SUB DUP1 DUP6 AND SWAP2 AND SUB PUSH2 0xC59 JUMPI PUSH1 0x40 MLOAD PUSH3 0x461BCD PUSH1 0xE5 SHL DUP2 MSTORE PUSH1 0x20 PUSH1 0x4 DUP3 ADD MSTORE PUSH1 0x17 PUSH1 0x24 DUP3 ADD MSTORE PUSH32 0x5573657220416C72656164792052656769737465726564000000000000000000 PUSH1 0x44 DUP3 ADD MSTORE PUSH1 0x64 ADD PUSH2 0x6BB JUMP JUMPDEST PUSH1 0x1 PUSH1 0x1 PUSH1 0xA0 SHL SUB DUP4 AND PUSH1 0x0 SWAP1 DUP2 MSTORE PUSH1 0xE PUSH1 0x20 MSTORE PUSH1 0x40 SWAP1 KECCAK256 SLOAD PUSH1 0xFF AND ISZERO PUSH2 0xCCD JUMPI PUSH1 0x40 MLOAD PUSH3 0x461BCD PUSH1 0xE5 SHL DUP2 MSTORE PUSH1 0x20 PUSH1 0x4 DUP3 ADD MSTORE PUSH1 0x22 PUSH1 0x24 DUP3 ADD MSTORE PUSH32 0x205573657220416C726561647920526567697374657265642061732041646D69 PUSH1 0x44 DUP3 ADD MSTORE PUSH2 0x6E21 PUSH1 0xF0 SHL PUSH1 0x64 DUP3 ADD MSTORE PUSH1 0x84 ADD PUSH2 0x6BB JUMP JUMPDEST PUSH1 0x0 DUP5 PUSH1 0x2 DUP2 GT ISZERO PUSH2 0xCE1 JUMPI PUSH2 0xCE1 PUSH2 0x3DF0 JUMP JUMPDEST EQ DUP1 PUSH2 0xCFE JUMPI POP PUSH1 0x1 DUP5 PUSH1 0x2 DUP2 GT ISZERO PUSH2 0xCFC JUMPI PUSH2 0xCFC PUSH2 0x3DF0 JUMP JUMPDEST EQ JUMPDEST ISZERO PUSH2 0xDCF JUMPI PUSH1 0x40 MLOAD DUP1 PUSH1 0x80 ADD PUSH1 0x40 MSTORE DUP1 DUP5 PUSH1 0x1 PUSH1 0x1 PUSH1 0xA0 SHL SUB AND DUP2 MSTORE PUSH1 0x20 ADD DUP4 DUP2 MSTORE PUSH1 0x20 ADD PUSH1 0x0 ISZERO ISZERO DUP2 MSTORE PUSH1 0x20 ADD DUP6 PUSH1 0x2 DUP2 GT ISZERO PUSH2 0xD3E JUMPI PUSH2 0xD3E PUSH2 0x3DF0 JUMP JUMPDEST SWAP1 MSTORE PUSH1 0x1 PUSH1 0x1 PUSH1 0xA0 SHL SUB DUP5 DUP2 AND PUSH1 0x0 SWAP1 DUP2 MSTORE PUSH1 0xD PUSH1 0x20 SWAP1 DUP2 MSTORE PUSH1 0x40 SWAP2 DUP3 SWAP1 KECCAK256 DUP5 MLOAD DUP2 SLOAD PUSH1 0x1 PUSH1 0x1 PUSH1 0xA0 SHL SUB NOT AND SWAP5 AND SWAP4 SWAP1 SWAP4 OR DUP4 SSTORE DUP4 ADD MLOAD PUSH1 0x1 DUP4 ADD SSTORE DUP3 ADD MLOAD PUSH1 0x2 DUP1 DUP4 ADD DUP1 SLOAD PUSH1 0xFF NOT DUP2 AND SWAP4 ISZERO ISZERO SWAP4 DUP5 OR DUP3 SSTORE PUSH1 0x60 DUP7 ADD MLOAD SWAP4 SWAP2 SWAP3 PUSH2 0xFFFF NOT SWAP1 SWAP2 AND PUSH2 0xFF00 NOT SWAP1 SWAP3 AND SWAP2 SWAP1 SWAP2 OR SWAP1 PUSH2 0x100 SWAP1 DUP5 SWAP1 DUP2 GT ISZERO PUSH2 0xDC2 JUMPI PUSH2 0xDC2 PUSH2 0x3DF0 JUMP JUMPDEST MUL OR SWAP1 SSTORE POP SWAP1 POP POP PUSH2 0xE58 JUMP JUMPDEST PUSH1 0x2 DUP5 PUSH1 0x2 DUP2 GT ISZERO PUSH2 0xDE3 JUMPI PUSH2 0xDE3 PUSH2 0x3DF0 JUMP JUMPDEST SUB PUSH2 0xE10 JUMPI PUSH1 0x1 PUSH1 0x1 PUSH1 0xA0 SHL SUB DUP4 AND PUSH1 0x0 SWAP1 DUP2 MSTORE PUSH1 0xE PUSH1 0x20 MSTORE PUSH1 0x40 SWAP1 KECCAK256 DUP1 SLOAD PUSH1 0xFF NOT AND PUSH1 0x1 OR SWAP1 SSTORE PUSH2 0xE58 JUMP JUMPDEST PUSH1 0x40 MLOAD PUSH3 0x461BCD PUSH1 0xE5 SHL DUP2 MSTORE PUSH1 0x20 PUSH1 0x4 DUP3 ADD MSTORE PUSH1 0x17 PUSH1 0x24 DUP3 ADD MSTORE PUSH32 0x456E74657220436F7272656374205573657220526F6C65000000000000000000 PUSH1 0x44 DUP3 ADD MSTORE PUSH1 0x64 ADD PUSH2 0x6BB JUMP JUMPDEST DUP3 PUSH1 0x1 PUSH1 0x1 PUSH1 0xA0 SHL SUB AND PUSH32 0x8E18574F8A7333E6A87112742A55853A643E2F0550F4E1A3A2C3F1BB2994441D DUP6 PUSH1 0x40 MLOAD PUSH2 0xE91 SWAP2 SWAP1 PUSH2 0x3E06 JUMP JUMPDEST PUSH1 0x40 MLOAD DUP1 SWAP2 SUB SWAP1 LOG2 POP POP POP POP JUMP JUMPDEST PUSH2 0xEA7 PUSH2 0x250C JUMP JUMPDEST PUSH2 0xEAF PUSH2 0x2772 JUMP JUMPDEST JUMP JUMPDEST PUSH2 0x75C DUP4 DUP4 DUP4 PUSH1 0x40 MLOAD DUP1 PUSH1 0x20 ADD PUSH1 0x40 MSTORE DUP1 PUSH1 0x0 DUP2 MSTORE POP PUSH2 0x14B6 JUMP JUMPDEST PUSH2 0xED5 CALLER PUSH2 0x8AB JUMP JUMPDEST PUSH2 0xEF1 JUMPI PUSH1 0x40 MLOAD PUSH3 0x461BCD PUSH1 0xE5 SHL DUP2 MSTORE PUSH1 0x4 ADD PUSH2 0x6BB SWAP1 PUSH2 0x3D5E JUMP JUMPDEST PUSH2 0xEFA DUP2 PUSH2 0x27C4 JUMP JUMPDEST POP JUMP JUMPDEST PUSH2 0xF05 PUSH2 0x250C JUMP JUMPDEST PUSH1 0x12 SLOAD PUSH1 0x0 SWAP1 DUP2 MSTORE PUSH1 0xC PUSH1 0x20 MSTORE PUSH1 0x40 SWAP1 KECCAK256 SLOAD PUSH1 0xFF AND ISZERO PUSH2 0xF67 JUMPI PUSH1 0x40 MLOAD PUSH3 0x461BCD PUSH1 0xE5 SHL DUP2 MSTORE PUSH1 0x20 PUSH1 0x4 DUP3 ADD DUP2 SWAP1 MSTORE PUSH1 0x24 DUP3 ADD MSTORE PUSH32 0x43757272656E7420706861736520697320616C7265616479206163746976652E PUSH1 0x44 DUP3 ADD MSTORE PUSH1 0x64 ADD PUSH2 0x6BB JUMP JUMPDEST DUP3 PUSH1 0x11 SLOAD LT ISZERO PUSH2 0xF89 JUMPI PUSH1 0x40 MLOAD PUSH3 0x461BCD PUSH1 0xE5 SHL DUP2 MSTORE PUSH1 0x4 ADD PUSH2 0x6BB SWAP1 PUSH2 0x3E2E JUMP JUMPDEST PUSH1 0x12 SLOAD PUSH1 0x0 SWAP1 DUP2 MSTORE PUSH1 0xC PUSH1 0x20 MSTORE PUSH1 0x40 SWAP1 KECCAK256 PUSH1 0x1 ADD SLOAD ISZERO DUP1 ISZERO PUSH2 0xFBD JUMPI POP PUSH1 0x12 SLOAD PUSH1 0x0 SWAP1 DUP2 MSTORE PUSH1 0xC PUSH1 0x20 MSTORE PUSH1 0x40 SWAP1 KECCAK256 PUSH1 0x2 ADD SLOAD ISZERO JUMPDEST DUP1 ISZERO PUSH2 0xFDB JUMPI POP PUSH1 0x12 SLOAD PUSH1 0x0 SWAP1 DUP2 MSTORE PUSH1 0xC PUSH1 0x20 MSTORE PUSH1 0x40 SWAP1 KECCAK256 PUSH1 0x3 ADD SLOAD ISZERO JUMPDEST PUSH2 0x1020 JUMPI PUSH1 0x40 MLOAD PUSH3 0x461BCD PUSH1 0xE5 SHL DUP2 MSTORE PUSH1 0x20 PUSH1 0x4 DUP3 ADD MSTORE PUSH1 0x16 PUSH1 0x24 DUP3 ADD MSTORE PUSH22 0x506861736520416C7265616479204372656174656421 PUSH1 0x50 SHL PUSH1 0x44 DUP3 ADD MSTORE PUSH1 0x64 ADD PUSH2 0x6BB JUMP JUMPDEST PUSH1 0x0 DUP4 GT DUP1 ISZERO PUSH2 0x1030 JUMPI POP PUSH1 0x0 DUP3 GT JUMPDEST DUP1 ISZERO PUSH2 0x103C JUMPI POP PUSH1 0x0 DUP2 GT JUMPDEST PUSH2 0x1078 JUMPI PUSH1 0x40 MLOAD PUSH3 0x461BCD PUSH1 0xE5 SHL DUP2 MSTORE PUSH1 0x20 PUSH1 0x4 DUP3 ADD MSTORE PUSH1 0xD PUSH1 0x24 DUP3 ADD MSTORE PUSH13 0x125B9D985B1A5908131A5B5A5D PUSH1 0x9A SHL PUSH1 0x44 DUP3 ADD MSTORE PUSH1 0x64 ADD PUSH2 0x6BB JUMP JUMPDEST PUSH1 0x12 DUP1 SLOAD PUSH1 0x0 SWAP1 DUP2 MSTORE PUSH1 0xC PUSH1 0x20 SWAP1 DUP2 MSTORE PUSH1 0x40 DUP1 DUP4 KECCAK256 PUSH1 0x1 ADD DUP8 SWAP1 SSTORE DUP4 SLOAD DUP4 MSTORE DUP1 DUP4 KECCAK256 PUSH1 0x2 ADD DUP7 SWAP1 SSTORE DUP4 SLOAD DUP4 MSTORE SWAP2 DUP3 SWAP1 KECCAK256 PUSH1 0x3 ADD DUP5 SWAP1 SSTORE SWAP2 SLOAD DUP2 MLOAD SWAP1 DUP2 MSTORE SWAP2 DUP3 ADD DUP6 SWAP1 MSTORE DUP2 ADD DUP4 SWAP1 MSTORE PUSH1 0x60 DUP2 ADD DUP3 SWAP1 MSTORE PUSH32 0x27EDCD2337D9132D264397555C946B288F9237463E029DB583F17E4277EB8F3A SWAP1 PUSH1 0x80 ADD PUSH1 0x40 MLOAD DUP1 SWAP2 SUB SWAP1 LOG1 POP POP POP JUMP JUMPDEST PUSH1 0x0 PUSH2 0x1104 PUSH1 0x8 SLOAD SWAP1 JUMP JUMPDEST DUP3 LT PUSH2 0x1167 JUMPI PUSH1 0x40 MLOAD PUSH3 0x461BCD PUSH1 0xE5 SHL DUP2 MSTORE PUSH1 0x20 PUSH1 0x4 DUP3 ADD MSTORE PUSH1 0x2C PUSH1 0x24 DUP3 ADD MSTORE PUSH32 0x455243373231456E756D657261626C653A20676C6F62616C20696E646578206F PUSH1 0x44 DUP3 ADD MSTORE PUSH12 0x7574206F6620626F756E6473 PUSH1 0xA0 SHL PUSH1 0x64 DUP3 ADD MSTORE PUSH1 0x84 ADD PUSH2 0x6BB JUMP JUMPDEST PUSH1 0x8 DUP3 DUP2 SLOAD DUP2 LT PUSH2 0x117A JUMPI PUSH2 0x117A PUSH2 0x3DAB JUMP JUMPDEST SWAP1 PUSH1 0x0 MSTORE PUSH1 0x20 PUSH1 0x0 KECCAK256 ADD SLOAD SWAP1 POP SWAP2 SWAP1 POP JUMP JUMPDEST PUSH1 0x0 DUP2 DUP2 MSTORE PUSH1 0x2 PUSH1 0x20 MSTORE PUSH1 0x40 DUP2 KECCAK256 SLOAD PUSH1 0x1 PUSH1 0x1 PUSH1 0xA0 SHL SUB AND DUP1 PUSH2 0x588 JUMPI PUSH1 0x40 MLOAD PUSH3 0x461BCD PUSH1 0xE5 SHL DUP2 MSTORE PUSH1 0x20 PUSH1 0x4 DUP3 ADD MSTORE PUSH1 0x18 PUSH1 0x24 DUP3 ADD MSTORE PUSH24 0x115490CDCC8C4E881A5B9D985B1A59081D1BDAD95B881251 PUSH1 0x42 SHL PUSH1 0x44 DUP3 ADD MSTORE PUSH1 0x64 ADD PUSH2 0x6BB JUMP JUMPDEST PUSH1 0x0 PUSH1 0x1 PUSH1 0x1 PUSH1 0xA0 SHL SUB DUP3 AND PUSH2 0x1256 JUMPI PUSH1 0x40 MLOAD PUSH3 0x461BCD PUSH1 0xE5 SHL DUP2 MSTORE PUSH1 0x20 PUSH1 0x4 DUP3 ADD MSTORE PUSH1 0x29 PUSH1 0x24 DUP3 ADD MSTORE PUSH32 0x4552433732313A2061646472657373207A65726F206973206E6F742061207661 PUSH1 0x44 DUP3 ADD MSTORE PUSH9 0x3634B21037BBB732B9 PUSH1 0xB9 SHL PUSH1 0x64 DUP3 ADD MSTORE PUSH1 0x84 ADD PUSH2 0x6BB JUMP JUMPDEST POP PUSH1 0x1 PUSH1 0x1 PUSH1 0xA0 SHL SUB AND PUSH1 0x0 SWAP1 DUP2 MSTORE PUSH1 0x3 PUSH1 0x20 MSTORE PUSH1 0x40 SWAP1 KECCAK256 SLOAD SWAP1 JUMP JUMPDEST PUSH2 0x127A PUSH2 0x250C JUMP JUMPDEST PUSH2 0xEAF PUSH1 0x0 PUSH2 0x27CD JUMP JUMPDEST PUSH2 0x128C PUSH2 0x250C JUMP JUMPDEST PUSH2 0xEAF PUSH2 0x2827 JUMP JUMPDEST PUSH2 0x129C PUSH2 0x250C JUMP JUMPDEST PUSH1 0x1 PUSH1 0x1 PUSH1 0xA0 SHL SUB DUP1 DUP4 AND PUSH1 0x0 SWAP1 DUP2 MSTORE PUSH1 0xD PUSH1 0x20 MSTORE PUSH1 0x40 SWAP1 KECCAK256 SLOAD DUP4 SWAP2 AND PUSH2 0x12D5 JUMPI PUSH1 0x40 MLOAD PUSH3 0x461BCD PUSH1 0xE5 SHL DUP2 MSTORE PUSH1 0x4 ADD PUSH2 0x6BB SWAP1 PUSH2 0x3E83 JUMP JUMPDEST PUSH2 0x12DE DUP4 PUSH2 0x11EC JUMP JUMPDEST DUP3 GT PUSH2 0x133E JUMPI PUSH1 0x40 MLOAD PUSH3 0x461BCD PUSH1 0xE5 SHL DUP2 MSTORE PUSH1 0x20 PUSH1 0x4 DUP3 ADD MSTORE PUSH1 0x29 PUSH1 0x24 DUP3 ADD MSTORE PUSH32 0x546865206C696D6974206D757374206578636565642074686520757365722773 PUSH1 0x44 DUP3 ADD MSTORE PUSH9 0x103130B630B731B297 PUSH1 0xB9 SHL PUSH1 0x64 DUP3 ADD MSTORE PUSH1 0x84 ADD PUSH2 0x6BB JUMP JUMPDEST PUSH1 0x1 PUSH1 0x1 PUSH1 0xA0 SHL SUB DUP4 AND PUSH1 0x0 DUP2 DUP2 MSTORE PUSH1 0xD PUSH1 0x20 MSTORE PUSH1 0x40 SWAP1 DUP2 SWAP1 KECCAK256 PUSH1 0x1 ADD DUP5 SWAP1 SSTORE MLOAD PUSH32 0x72E439FFF0A6322E6C1644425183FC960C33CB2C2354C69569E15B066E8F786A SWAP1 PUSH2 0x138E SWAP1 DUP6 DUP2 MSTORE PUSH1 0x20 ADD SWAP1 JUMP JUMPDEST PUSH1 0x40 MLOAD DUP1 SWAP2 SUB SWAP1 LOG2 POP POP POP JUMP JUMPDEST PUSH1 0x60 PUSH1 0x1 DUP1 SLOAD PUSH2 0x59D SWAP1 PUSH2 0x3D24 JUMP JUMPDEST PUSH2 0x13B2 PUSH2 0x250C JUMP JUMPDEST PUSH1 0x13 SLOAD PUSH1 0xFF AND ISZERO PUSH2 0x13F8 JUMPI PUSH1 0x40 MLOAD PUSH3 0x461BCD PUSH1 0xE5 SHL DUP2 MSTORE PUSH1 0x20 PUSH1 0x4 DUP3 ADD MSTORE PUSH1 0x10 PUSH1 0x24 DUP3 ADD MSTORE PUSH16 0x416C726561647920416C6C6F77656421 PUSH1 0x80 SHL PUSH1 0x44 DUP3 ADD MSTORE PUSH1 0x64 ADD PUSH2 0x6BB JUMP JUMPDEST PUSH1 0x13 DUP1 SLOAD PUSH1 0xFF NOT AND PUSH1 0x1 OR SWAP1 SSTORE JUMP JUMPDEST PUSH2 0x1412 CALLER DUP4 DUP4 PUSH2 0x2864 JUMP JUMPDEST POP POP JUMP JUMPDEST PUSH1 0x0 JUMPDEST DUP2 MLOAD DUP2 LT ISZERO PUSH2 0x1412 JUMPI CALLER PUSH1 0x1 PUSH1 0x1 PUSH1 0xA0 SHL SUB AND PUSH2 0x1452 DUP4 DUP4 DUP2 MLOAD DUP2 LT PUSH2 0x1441 JUMPI PUSH2 0x1441 PUSH2 0x3DAB JUMP JUMPDEST PUSH1 0x20 MUL PUSH1 0x20 ADD ADD MLOAD PUSH1 0x20 ADD MLOAD PUSH2 0x118C JUMP JUMPDEST PUSH1 0x1 PUSH1 0x1 PUSH1 0xA0 SHL SUB AND SUB PUSH2 0x14A4 JUMPI PUSH2 0x14A4 DUP3 DUP3 DUP2 MLOAD DUP2 LT PUSH2 0x1475 JUMPI PUSH2 0x1475 PUSH2 0x3DAB JUMP JUMPDEST PUSH1 0x20 MUL PUSH1 0x20 ADD ADD MLOAD PUSH1 0x20 ADD MLOAD DUP4 DUP4 DUP2 MLOAD DUP2 LT PUSH2 0x1493 JUMPI PUSH2 0x1493 PUSH2 0x3DAB JUMP JUMPDEST PUSH1 0x20 MUL PUSH1 0x20 ADD ADD MLOAD PUSH1 0x0 ADD MLOAD PUSH2 0x2932 JUMP JUMPDEST DUP1 PUSH2 0x14AE DUP2 PUSH2 0x3DD7 JUMP JUMPDEST SWAP2 POP POP PUSH2 0x1419 JUMP JUMPDEST PUSH2 0x14C0 CALLER DUP4 PUSH2 0x2582 JUMP JUMPDEST PUSH2 0x14DC JUMPI PUSH1 0x40 MLOAD PUSH3 0x461BCD PUSH1 0xE5 SHL DUP2 MSTORE PUSH1 0x4 ADD PUSH2 0x6BB SWAP1 PUSH2 0x3D5E JUMP JUMPDEST PUSH2 0x14E8 DUP5 DUP5 DUP5 DUP5 PUSH2 0x29FD JUMP JUMPDEST POP POP POP POP JUMP JUMPDEST PUSH2 0x14F6 PUSH2 0x250C JUMP JUMPDEST PUSH1 0x12 SLOAD PUSH1 0x0 SWAP1 DUP2 MSTORE PUSH1 0xC PUSH1 0x20 MSTORE PUSH1 0x40 SWAP1 KECCAK256 SLOAD PUSH1 0xFF AND PUSH2 0x154A JUMPI PUSH1 0x40 MLOAD PUSH3 0x461BCD PUSH1 0xE5 SHL DUP2 MSTORE PUSH1 0x20 PUSH1 0x4 DUP3 ADD MSTORE PUSH1 0x10 PUSH1 0x24 DUP3 ADD MSTORE PUSH16 0x5068617365204E6F7420416374697665 PUSH1 0x80 SHL PUSH1 0x44 DUP3 ADD MSTORE PUSH1 0x64 ADD PUSH2 0x6BB JUMP JUMPDEST DUP1 PUSH1 0x11 SLOAD LT ISZERO PUSH2 0x156C JUMPI PUSH1 0x40 MLOAD PUSH3 0x461BCD PUSH1 0xE5 SHL DUP2 MSTORE PUSH1 0x4 ADD PUSH2 0x6BB SWAP1 PUSH2 0x3E2E JUMP JUMPDEST PUSH1 0x12 SLOAD PUSH1 0x0 SWAP1 DUP2 MSTORE PUSH1 0xC PUSH1 0x20 MSTORE PUSH1 0x40 SWAP1 KECCAK256 PUSH1 0x1 ADD SLOAD DUP2 GT PUSH2 0x15E2 JUMPI PUSH1 0x40 MLOAD PUSH3 0x461BCD PUSH1 0xE5 SHL DUP2 MSTORE PUSH1 0x20 PUSH1 0x4 DUP3 ADD MSTORE PUSH1 0x2A PUSH1 0x24 DUP3 ADD MSTORE PUSH32 0x4C696D69742067726561746572207468616E206578697374696E672072657365 PUSH1 0x44 DUP3 ADD MSTORE PUSH10 0x1C9D9959081B1A5B5A5D PUSH1 0xB2 SHL PUSH1 0x64 DUP3 ADD MSTORE PUSH1 0x84 ADD PUSH2 0x6BB JUMP JUMPDEST PUSH1 0x12 DUP1 SLOAD PUSH1 0x0 SWAP1 DUP2 MSTORE PUSH1 0xC PUSH1 0x20 SWAP1 DUP2 MSTORE PUSH1 0x40 SWAP2 DUP3 SWAP1 KECCAK256 PUSH1 0x1 ADD DUP5 SWAP1 SSTORE SWAP2 SLOAD DUP2 MLOAD SWAP1 DUP2 MSTORE SWAP2 DUP3 ADD DUP4 SWAP1 MSTORE PUSH32 0x145F08BB6CF86F23F9AF7CE6966DF2320EC8FDB5DBE1C4E2B1BF170D4EEEEEA9 SWAP2 ADD PUSH1 0x40 MLOAD DUP1 SWAP2 SUB SWAP1 LOG1 POP JUMP JUMPDEST PUSH2 0x1641 PUSH2 0x250C JUMP JUMPDEST PUSH1 0x1 PUSH1 0x1 PUSH1 0xA0 SHL SUB DUP1 DUP3 AND PUSH1 0x0 SWAP1 DUP2 MSTORE PUSH1 0xD PUSH1 0x20 MSTORE PUSH1 0x40 SWAP1 KECCAK256 SLOAD DUP3 SWAP2 AND PUSH2 0x167A JUMPI PUSH1 0x40 MLOAD PUSH3 0x461BCD PUSH1 0xE5 SHL DUP2 MSTORE PUSH1 0x4 ADD PUSH2 0x6BB SWAP1 PUSH2 0x3E83 JUMP JUMPDEST PUSH1 0x1 PUSH1 0x1 PUSH1 0x1 PUSH1 0xA0 SHL SUB DUP4 AND PUSH1 0x0 SWAP1 DUP2 MSTORE PUSH1 0xD PUSH1 0x20 MSTORE PUSH1 0x40 SWAP1 KECCAK256 PUSH1 0x2 SWAP1 DUP2 ADD SLOAD PUSH2 0x100 SWAP1 DIV PUSH1 0xFF AND SWAP1 DUP2 GT ISZERO PUSH2 0x16B2 JUMPI PUSH2 0x16B2 PUSH2 0x3DF0 JUMP JUMPDEST SUB PUSH2 0x1740 JUMPI PUSH1 0x1 PUSH1 0x1 PUSH1 0xA0 SHL SUB DUP3 AND PUSH1 0x0 SWAP1 DUP2 MSTORE PUSH1 0xD PUSH1 0x20 MSTORE PUSH1 0x40 SWAP1 KECCAK256 PUSH1 0x2 ADD SLOAD PUSH1 0xFF AND ISZERO PUSH2 0x1716 JUMPI PUSH1 0x40 MLOAD PUSH3 0x461BCD PUSH1 0xE5 SHL DUP2 MSTORE PUSH1 0x20 PUSH1 0x4 DUP3 ADD MSTORE PUSH1 0x10 PUSH1 0x24 DUP3 ADD MSTORE PUSH16 0x105B1C9958591E4815995C9A599A5959 PUSH1 0x82 SHL PUSH1 0x44 DUP3 ADD MSTORE PUSH1 0x64 ADD PUSH2 0x6BB JUMP JUMPDEST PUSH1 0x1 PUSH1 0x1 PUSH1 0xA0 SHL SUB DUP3 AND PUSH1 0x0 SWAP1 DUP2 MSTORE PUSH1 0xD PUSH1 0x20 MSTORE PUSH1 0x40 SWAP1 KECCAK256 PUSH1 0x2 ADD DUP1 SLOAD PUSH1 0xFF NOT AND PUSH1 0x1 OR SWAP1 SSTORE POP POP JUMP JUMPDEST PUSH1 0x40 MLOAD PUSH3 0x461BCD PUSH1 0xE5 SHL DUP2 MSTORE PUSH1 0x20 PUSH1 0x4 DUP3 ADD MSTORE PUSH1 0x12 PUSH1 0x24 DUP3 ADD MSTORE PUSH18 0x139BDC9B585B08139BDD08105B1B1BDDD959 PUSH1 0x72 SHL PUSH1 0x44 DUP3 ADD MSTORE PUSH1 0x64 ADD PUSH2 0x6BB JUMP JUMPDEST DUP3 PUSH1 0x1 PUSH1 0x1 PUSH1 0xA0 SHL SUB DUP2 AND PUSH2 0x17C6 JUMPI PUSH1 0x40 MLOAD PUSH3 0x461BCD PUSH1 0xE5 SHL DUP2 MSTORE PUSH1 0x20 PUSH1 0x4 DUP3 ADD MSTORE PUSH1 0xF PUSH1 0x24 DUP3 ADD MSTORE PUSH15 0x496E76616C69642061646472657373 PUSH1 0x88 SHL PUSH1 0x44 DUP3 ADD MSTORE PUSH1 0x64 ADD PUSH2 0x6BB JUMP JUMPDEST CALLER PUSH1 0x0 DUP2 DUP2 MSTORE PUSH1 0xD PUSH1 0x20 MSTORE PUSH1 0x40 SWAP1 KECCAK256 SLOAD PUSH1 0x1 PUSH1 0x1 PUSH1 0xA0 SHL SUB AND PUSH2 0x17FB JUMPI PUSH1 0x40 MLOAD PUSH3 0x461BCD PUSH1 0xE5 SHL DUP2 MSTORE PUSH1 0x4 ADD PUSH2 0x6BB SWAP1 PUSH2 0x3E83 JUMP JUMPDEST PUSH1 0x12 SLOAD PUSH1 0x0 SWAP1 DUP2 MSTORE PUSH1 0xC PUSH1 0x20 MSTORE PUSH1 0x40 SWAP1 KECCAK256 SLOAD PUSH1 0xFF AND PUSH2 0x185C JUMPI PUSH1 0x40 MLOAD PUSH3 0x461BCD PUSH1 0xE5 SHL DUP2 MSTORE PUSH1 0x20 PUSH1 0x4 DUP3 ADD MSTORE PUSH1 0x1F PUSH1 0x24 DUP3 ADD MSTORE PUSH32 0x5068617365206973204E6F7420616374697665206F7220437265617465642100 PUSH1 0x44 DUP3 ADD MSTORE PUSH1 0x64 ADD PUSH2 0x6BB JUMP JUMPDEST PUSH1 0x0 PUSH1 0x11 SLOAD GT PUSH2 0x18C7 JUMPI PUSH1 0x40 MLOAD PUSH3 0x461BCD PUSH1 0xE5 SHL DUP2 MSTORE PUSH1 0x20 PUSH1 0x4 DUP3 ADD MSTORE PUSH1 0x30 PUSH1 0x24 DUP3 ADD MSTORE PUSH32 0x436F6E7472616374202055736572204D696E74696E672020206C696D69742068 PUSH1 0x44 DUP3 ADD MSTORE PUSH16 0x185CC81899595B88195E18D959591959 PUSH1 0x82 SHL PUSH1 0x64 DUP3 ADD MSTORE PUSH1 0x84 ADD PUSH2 0x6BB JUMP JUMPDEST PUSH1 0x12 SLOAD PUSH1 0x0 SWAP1 DUP2 MSTORE PUSH1 0xC PUSH1 0x20 MSTORE PUSH1 0x40 SWAP1 KECCAK256 PUSH1 0x1 ADD SLOAD PUSH2 0x18F8 JUMPI PUSH1 0x40 MLOAD PUSH3 0x461BCD PUSH1 0xE5 SHL DUP2 MSTORE PUSH1 0x4 ADD PUSH2 0x6BB SWAP1 PUSH2 0x3EBA JUMP JUMPDEST PUSH2 0x1901 DUP4 PUSH2 0x2A30 JUMP JUMPDEST POP PUSH1 0x12 SLOAD PUSH1 0x0 SWAP1 DUP2 MSTORE PUSH1 0xC PUSH1 0x20 SWAP1 DUP2 MSTORE PUSH1 0x40 DUP1 DUP4 KECCAK256 CALLER DUP5 MSTORE PUSH1 0xD DUP4 MSTORE DUP2 DUP5 KECCAK256 DUP3 MLOAD PUSH1 0x80 DUP2 ADD DUP5 MSTORE DUP2 SLOAD PUSH1 0x1 PUSH1 0x1 PUSH1 0xA0 SHL SUB AND DUP2 MSTORE PUSH1 0x1 DUP3 ADD SLOAD SWAP5 DUP2 ADD SWAP5 SWAP1 SWAP5 MSTORE PUSH1 0x2 DUP1 DUP3 ADD SLOAD PUSH1 0xFF DUP1 DUP3 AND ISZERO ISZERO SWAP6 DUP8 ADD SWAP6 SWAP1 SWAP6 MSTORE SWAP3 SWAP6 SWAP5 SWAP4 SWAP2 SWAP3 PUSH1 0x60 DUP6 ADD SWAP3 PUSH2 0x100 SWAP1 SWAP2 DIV AND SWAP1 DUP2 GT ISZERO PUSH2 0x1977 JUMPI PUSH2 0x1977 PUSH2 0x3DF0 JUMP JUMPDEST PUSH1 0x2 DUP2 GT ISZERO PUSH2 0x1988 JUMPI PUSH2 0x1988 PUSH2 0x3DF0 JUMP JUMPDEST SWAP1 MSTORE POP SWAP1 POP PUSH1 0x1 DUP2 PUSH1 0x60 ADD MLOAD PUSH1 0x2 DUP2 GT ISZERO PUSH2 0x19A5 JUMPI PUSH2 0x19A5 PUSH2 0x3DF0 JUMP JUMPDEST SUB PUSH2 0x1AB7 JUMPI DUP1 PUSH1 0x40 ADD MLOAD PUSH2 0x19CB JUMPI PUSH1 0x40 MLOAD PUSH3 0x461BCD PUSH1 0xE5 SHL DUP2 MSTORE PUSH1 0x4 ADD PUSH2 0x6BB SWAP1 PUSH2 0x3EFC JUMP JUMPDEST DUP1 PUSH1 0x20 ADD MLOAD PUSH2 0x19D9 CALLER PUSH2 0x11EC JUMP JUMPDEST LT PUSH2 0x1A3A JUMPI PUSH1 0x40 MLOAD PUSH3 0x461BCD PUSH1 0xE5 SHL DUP2 MSTORE PUSH1 0x20 PUSH1 0x4 DUP3 ADD MSTORE PUSH1 0x2B PUSH1 0x24 DUP3 ADD MSTORE PUSH32 0x5072656D69756D207573657220676C6F62616C206C696D697420686173206265 PUSH1 0x44 DUP3 ADD MSTORE PUSH11 0x195B88195E18D959591959 PUSH1 0xAA SHL PUSH1 0x64 DUP3 ADD MSTORE PUSH1 0x84 ADD PUSH2 0x6BB JUMP JUMPDEST CALLER PUSH1 0x0 SWAP1 DUP2 MSTORE PUSH1 0x4 DUP4 ADD PUSH1 0x20 MSTORE PUSH1 0x40 SWAP1 KECCAK256 SLOAD PUSH1 0x2 DUP4 ADD SLOAD GT PUSH2 0x1AB2 JUMPI PUSH1 0x40 MLOAD PUSH3 0x461BCD PUSH1 0xE5 SHL DUP2 MSTORE PUSH1 0x20 PUSH1 0x4 DUP3 ADD MSTORE PUSH1 0x2B PUSH1 0x24 DUP3 ADD MSTORE PUSH32 0x5072656D69756D207573657220706861736573206C696D697420686173206265 PUSH1 0x44 DUP3 ADD MSTORE PUSH11 0x195B88195E18D959591959 PUSH1 0xAA SHL PUSH1 0x64 DUP3 ADD MSTORE PUSH1 0x84 ADD PUSH2 0x6BB JUMP JUMPDEST PUSH2 0x1B9C JUMP JUMPDEST DUP1 PUSH1 0x20 ADD MLOAD PUSH2 0x1AC5 CALLER PUSH2 0x11EC JUMP JUMPDEST LT PUSH2 0x1B25 JUMPI PUSH1 0x40 MLOAD PUSH3 0x461BCD PUSH1 0xE5 SHL DUP2 MSTORE PUSH1 0x20 PUSH1 0x4 DUP3 ADD MSTORE PUSH1 0x2A PUSH1 0x24 DUP3 ADD MSTORE PUSH32 0x4E6F726D616C207573657220676C6F62616C206C696D69742068617320626565 PUSH1 0x44 DUP3 ADD MSTORE PUSH10 0x1B88195E18D959591959 PUSH1 0xB2 SHL PUSH1 0x64 DUP3 ADD MSTORE PUSH1 0x84 ADD PUSH2 0x6BB JUMP JUMPDEST CALLER PUSH1 0x0 SWAP1 DUP2 MSTORE PUSH1 0x4 DUP4 ADD PUSH1 0x20 MSTORE PUSH1 0x40 SWAP1 KECCAK256 SLOAD PUSH1 0x3 DUP4 ADD SLOAD GT PUSH2 0x1B9C JUMPI PUSH1 0x40 MLOAD PUSH3 0x461BCD PUSH1 0xE5 SHL DUP2 MSTORE PUSH1 0x20 PUSH1 0x4 DUP3 ADD MSTORE PUSH1 0x2A PUSH1 0x24 DUP3 ADD MSTORE PUSH32 0x4E6F726D616C207573657220706861736573206C696D69742068617320626565 PUSH1 0x44 DUP3 ADD MSTORE PUSH10 0x1B88195E18D959591959 PUSH1 0xB2 SHL PUSH1 0x64 DUP3 ADD MSTORE PUSH1 0x84 ADD PUSH2 0x6BB JUMP JUMPDEST CALLER PUSH1 0x0 SWAP1 DUP2 MSTORE PUSH1 0x4 DUP4 ADD PUSH1 0x20 MSTORE PUSH1 0x40 DUP2 KECCAK256 DUP1 SLOAD SWAP2 PUSH2 0x1BB9 DUP4 PUSH2 0x3DD7 JUMP JUMPDEST SWAP1 SWAP2 SSTORE POP POP PUSH1 0x1 DUP3 ADD DUP1 SLOAD SWAP1 PUSH1 0x0 PUSH2 0x1BD0 DUP4 PUSH2 0x3F42 JUMP JUMPDEST SWAP1 SWAP2 SSTORE POP POP PUSH1 0x11 DUP1 SLOAD SWAP1 PUSH1 0x0 PUSH2 0x1BE5 DUP4 PUSH2 0x3F42 JUMP JUMPDEST SWAP2 SWAP1 POP SSTORE POP PUSH2 0x1BF4 DUP8 DUP7 PUSH2 0x2A9D JUMP JUMPDEST PUSH2 0x1BFE DUP6 DUP8 PUSH2 0x2932 JUMP JUMPDEST POP POP POP POP POP POP POP JUMP JUMPDEST PUSH1 0x60 PUSH2 0x588 DUP3 PUSH2 0x2AB7 JUMP JUMPDEST PUSH2 0x1C1A PUSH2 0x250C JUMP JUMPDEST PUSH1 0x13 SLOAD PUSH1 0xFF AND PUSH2 0x1C62 JUMPI PUSH1 0x40 MLOAD PUSH3 0x461BCD PUSH1 0xE5 SHL DUP2 MSTORE PUSH1 0x20 PUSH1 0x4 DUP3 ADD MSTORE PUSH1 0x13 PUSH1 0x24 DUP3 ADD MSTORE PUSH19 0x416C726561647920446973616C6C6F77656421 PUSH1 0x68 SHL PUSH1 0x44 DUP3 ADD MSTORE PUSH1 0x64 ADD PUSH2 0x6BB JUMP JUMPDEST PUSH1 0x13 DUP1 SLOAD PUSH1 0xFF NOT AND SWAP1 SSTORE JUMP JUMPDEST CALLER PUSH1 0x0 DUP2 DUP2 MSTORE PUSH1 0xD PUSH1 0x20 MSTORE PUSH1 0x40 SWAP1 KECCAK256 SLOAD PUSH1 0x1 PUSH1 0x1 PUSH1 0xA0 SHL SUB AND PUSH2 0x1CA3 JUMPI PUSH1 0x40 MLOAD PUSH3 0x461BCD PUSH1 0xE5 SHL DUP2 MSTORE PUSH1 0x4 ADD PUSH2 0x6BB SWAP1 PUSH2 0x3E83 JUMP JUMPDEST PUSH1 0x12 SLOAD PUSH1 0x0 SWAP1 DUP2 MSTORE PUSH1 0xC PUSH1 0x20 MSTORE PUSH1 0x40 SWAP1 KECCAK256 SLOAD PUSH1 0xFF AND PUSH2 0x1D04 JUMPI PUSH1 0x40 MLOAD PUSH3 0x461BCD PUSH1 0xE5 SHL DUP2 MSTORE PUSH1 0x20 PUSH1 0x4 DUP3 ADD MSTORE PUSH1 0x1F PUSH1 0x24 DUP3 ADD MSTORE PUSH32 0x5068617365206973204E6F7420616374697665206F7220437265617465642100 PUSH1 0x44 DUP3 ADD MSTORE PUSH1 0x64 ADD PUSH2 0x6BB JUMP JUMPDEST PUSH1 0x0 DUP3 MLOAD PUSH1 0x11 SLOAD PUSH2 0x1D15 SWAP2 SWAP1 PUSH2 0x3F59 JUMP JUMPDEST GT PUSH2 0x1D78 JUMPI PUSH1 0x40 MLOAD PUSH3 0x461BCD PUSH1 0xE5 SHL DUP2 MSTORE PUSH1 0x20 PUSH1 0x4 DUP3 ADD MSTORE PUSH1 0x2D PUSH1 0x24 DUP3 ADD MSTORE PUSH32 0x436F6E74726163742055736572204D696E74696E67206C696D69742068617320 PUSH1 0x44 DUP3 ADD MSTORE PUSH13 0x1899595B88195E18D959591959 PUSH1 0x9A SHL PUSH1 0x64 DUP3 ADD MSTORE PUSH1 0x84 ADD PUSH2 0x6BB JUMP JUMPDEST DUP2 MLOAD PUSH1 0x12 SLOAD PUSH1 0x0 SWAP1 DUP2 MSTORE PUSH1 0xC PUSH1 0x20 MSTORE PUSH1 0x40 DUP2 KECCAK256 PUSH1 0x1 ADD SLOAD SWAP1 SWAP2 PUSH2 0x1D9A SWAP2 PUSH2 0x3F59 JUMP JUMPDEST GT PUSH2 0x1DB7 JUMPI PUSH1 0x40 MLOAD PUSH3 0x461BCD PUSH1 0xE5 SHL DUP2 MSTORE PUSH1 0x4 ADD PUSH2 0x6BB SWAP1 PUSH2 0x3EBA JUMP JUMPDEST PUSH1 0x12 SLOAD PUSH1 0x0 SWAP1 DUP2 MSTORE PUSH1 0xC PUSH1 0x20 SWAP1 DUP2 MSTORE PUSH1 0x40 DUP1 DUP4 KECCAK256 CALLER DUP5 MSTORE PUSH1 0xD DUP4 MSTORE DUP2 DUP5 KECCAK256 DUP3 MLOAD PUSH1 0x80 DUP2 ADD DUP5 MSTORE DUP2 SLOAD PUSH1 0x1 PUSH1 0x1 PUSH1 0xA0 SHL SUB AND DUP2 MSTORE PUSH1 0x1 DUP3 ADD SLOAD SWAP5 DUP2 ADD SWAP5 SWAP1 SWAP5 MSTORE PUSH1 0x2 DUP1 DUP3 ADD SLOAD PUSH1 0xFF DUP1 DUP3 AND ISZERO ISZERO SWAP6 DUP8 ADD SWAP6 SWAP1 SWAP6 MSTORE SWAP3 SWAP6 SWAP5 SWAP4 SWAP2 SWAP3 PUSH1 0x60 DUP6 ADD SWAP3 PUSH2 0x100 SWAP1 SWAP2 DIV AND SWAP1 DUP2 GT ISZERO PUSH2 0x1E2C JUMPI PUSH2 0x1E2C PUSH2 0x3DF0 JUMP JUMPDEST PUSH1 0x2 DUP2 GT ISZERO PUSH2 0x1E3D JUMPI PUSH2 0x1E3D PUSH2 0x3DF0 JUMP JUMPDEST SWAP1 MSTORE POP SWAP1 POP PUSH1 0x1 DUP2 PUSH1 0x60 ADD MLOAD PUSH1 0x2 DUP2 GT ISZERO PUSH2 0x1E5A JUMPI PUSH2 0x1E5A PUSH2 0x3DF0 JUMP JUMPDEST SUB PUSH2 0x1F86 JUMPI DUP1 PUSH1 0x40 ADD MLOAD PUSH2 0x1E80 JUMPI PUSH1 0x40 MLOAD PUSH3 0x461BCD PUSH1 0xE5 SHL DUP2 MSTORE PUSH1 0x4 ADD PUSH2 0x6BB SWAP1 PUSH2 0x3EFC JUMP JUMPDEST DUP4 MLOAD PUSH2 0x1E8B CALLER PUSH2 0x11EC JUMP JUMPDEST PUSH2 0x1E95 SWAP2 SWAP1 PUSH2 0x3F6C JUMP JUMPDEST DUP2 PUSH1 0x20 ADD MLOAD LT ISZERO PUSH2 0x1EFC JUMPI PUSH1 0x40 MLOAD PUSH3 0x461BCD PUSH1 0xE5 SHL DUP2 MSTORE PUSH1 0x20 PUSH1 0x4 DUP3 ADD MSTORE PUSH1 0x39 PUSH1 0x24 DUP3 ADD MSTORE PUSH1 0x0 DUP1 MLOAD PUSH1 0x20 PUSH2 0x41C3 DUP4 CODECOPY DUP2 MLOAD SWAP2 MSTORE PUSH1 0x44 DUP3 ADD MSTORE PUSH32 0x5072656D69756D205573657220476C6F62616C204C696D697400000000000000 PUSH1 0x64 DUP3 ADD MSTORE PUSH1 0x84 ADD PUSH2 0x6BB JUMP JUMPDEST DUP4 MLOAD CALLER PUSH1 0x0 SWAP1 DUP2 MSTORE PUSH1 0x4 DUP5 ADD PUSH1 0x20 MSTORE PUSH1 0x40 SWAP1 KECCAK256 SLOAD PUSH2 0x1F1A SWAP2 SWAP1 PUSH2 0x3F6C JUMP JUMPDEST DUP3 PUSH1 0x2 ADD SLOAD LT ISZERO PUSH2 0x1F81 JUMPI PUSH1 0x40 MLOAD PUSH3 0x461BCD PUSH1 0xE5 SHL DUP2 MSTORE PUSH1 0x20 PUSH1 0x4 DUP3 ADD MSTORE PUSH1 0x38 PUSH1 0x24 DUP3 ADD MSTORE PUSH1 0x0 DUP1 MLOAD PUSH1 0x20 PUSH2 0x41C3 DUP4 CODECOPY DUP2 MLOAD SWAP2 MSTORE PUSH1 0x44 DUP3 ADD MSTORE PUSH32 0x5072656D69756D2055736572205068617365204C696D69740000000000000000 PUSH1 0x64 DUP3 ADD MSTORE PUSH1 0x84 ADD PUSH2 0x6BB JUMP JUMPDEST PUSH2 0x2085 JUMP JUMPDEST DUP4 MLOAD PUSH2 0x1F91 CALLER PUSH2 0x11EC JUMP JUMPDEST PUSH2 0x1F9B SWAP2 SWAP1 PUSH2 0x3F6C JUMP JUMPDEST DUP2 PUSH1 0x20 ADD MLOAD GT PUSH2 0x2001 JUMPI PUSH1 0x40 MLOAD PUSH3 0x461BCD PUSH1 0xE5 SHL DUP2 MSTORE PUSH1 0x20 PUSH1 0x4 DUP3 ADD MSTORE PUSH1 0x38 PUSH1 0x24 DUP3 ADD MSTORE PUSH1 0x0 DUP1 MLOAD PUSH1 0x20 PUSH2 0x41C3 DUP4 CODECOPY DUP2 MLOAD SWAP2 MSTORE PUSH1 0x44 DUP3 ADD MSTORE PUSH32 0x4E6F726D616C205573657220476C6F62616C204C696D69740000000000000000 PUSH1 0x64 DUP3 ADD MSTORE PUSH1 0x84 ADD PUSH2 0x6BB JUMP JUMPDEST DUP4 MLOAD CALLER PUSH1 0x0 SWAP1 DUP2 MSTORE PUSH1 0x4 DUP5 ADD PUSH1 0x20 MSTORE PUSH1 0x40 SWAP1 KECCAK256 SLOAD PUSH2 0x201F SWAP2 SWAP1 PUSH2 0x3F6C JUMP JUMPDEST DUP3 PUSH1 0x3 ADD SLOAD GT PUSH2 0x2085 JUMPI PUSH1 0x40 MLOAD PUSH3 0x461BCD PUSH1 0xE5 SHL DUP2 MSTORE PUSH1 0x20 PUSH1 0x4 DUP3 ADD MSTORE PUSH1 0x37 PUSH1 0x24 DUP3 ADD MSTORE PUSH1 0x0 DUP1 MLOAD PUSH1 0x20 PUSH2 0x41C3 DUP4 CODECOPY DUP2 MLOAD SWAP2 MSTORE PUSH1 0x44 DUP3 ADD MSTORE PUSH32 0x4E6F726D616C2055736572205068617365204C696D6974000000000000000000 PUSH1 0x64 DUP3 ADD MSTORE PUSH1 0x84 ADD PUSH2 0x6BB JUMP JUMPDEST PUSH1 0x0 JUMPDEST DUP5 MLOAD DUP2 LT ISZERO PUSH2 0x2216 JUMPI PUSH1 0x0 PUSH1 0x1 PUSH1 0x1 PUSH1 0xA0 SHL SUB AND DUP6 DUP3 DUP2 MLOAD DUP2 LT PUSH2 0x20AE JUMPI PUSH2 0x20AE PUSH2 0x3DAB JUMP JUMPDEST PUSH1 0x20 MUL PUSH1 0x20 ADD ADD MLOAD PUSH1 0x0 ADD MLOAD PUSH1 0x1 PUSH1 0x1 PUSH1 0xA0 SHL SUB AND SUB PUSH2 0x2107 JUMPI PUSH1 0x40 MLOAD PUSH3 0x461BCD PUSH1 0xE5 SHL DUP2 MSTORE PUSH1 0x20 PUSH1 0x4 DUP3 ADD MSTORE PUSH1 0x14 PUSH1 0x24 DUP3 ADD MSTORE PUSH20 0x496E76616C6964204D696E742041646472657373 PUSH1 0x60 SHL PUSH1 0x44 DUP3 ADD MSTORE PUSH1 0x64 ADD PUSH2 0x6BB JUMP JUMPDEST PUSH2 0x212D DUP6 DUP3 DUP2 MLOAD DUP2 LT PUSH2 0x211C JUMPI PUSH2 0x211C PUSH2 0x3DAB JUMP JUMPDEST PUSH1 0x20 MUL PUSH1 0x20 ADD ADD MLOAD PUSH1 0x20 ADD MLOAD PUSH2 0x2A30 JUMP JUMPDEST POP CALLER PUSH1 0x0 SWAP1 DUP2 MSTORE PUSH1 0x4 DUP5 ADD PUSH1 0x20 MSTORE PUSH1 0x40 DUP2 KECCAK256 DUP1 SLOAD SWAP2 PUSH2 0x214B DUP4 PUSH2 0x3DD7 JUMP JUMPDEST SWAP1 SWAP2 SSTORE POP POP PUSH1 0x1 DUP4 ADD DUP1 SLOAD SWAP1 PUSH1 0x0 PUSH2 0x2162 DUP4 PUSH2 0x3F42 JUMP JUMPDEST SWAP1 SWAP2 SSTORE POP POP PUSH1 0x11 DUP1 SLOAD SWAP1 PUSH1 0x0 PUSH2 0x2177 DUP4 PUSH2 0x3F42 JUMP JUMPDEST SWAP2 SWAP1 POP SSTORE POP PUSH2 0x21C0 DUP6 DUP3 DUP2 MLOAD DUP2 LT PUSH2 0x2191 JUMPI PUSH2 0x2191 PUSH2 0x3DAB JUMP JUMPDEST PUSH1 0x20 MUL PUSH1 0x20 ADD ADD MLOAD PUSH1 0x0 ADD MLOAD DUP7 DUP4 DUP2 MLOAD DUP2 LT PUSH2 0x21AF JUMPI PUSH2 0x21AF PUSH2 0x3DAB JUMP JUMPDEST PUSH1 0x20 MUL PUSH1 0x20 ADD ADD MLOAD PUSH1 0x20 ADD MLOAD PUSH2 0x2A9D JUMP JUMPDEST PUSH2 0x2204 DUP6 DUP3 DUP2 MLOAD DUP2 LT PUSH2 0x21D5 JUMPI PUSH2 0x21D5 PUSH2 0x3DAB JUMP JUMPDEST PUSH1 0x20 MUL PUSH1 0x20 ADD ADD MLOAD PUSH1 0x20 ADD MLOAD DUP7 DUP4 DUP2 MLOAD DUP2 LT PUSH2 0x21F3 JUMPI PUSH2 0x21F3 PUSH2 0x3DAB JUMP JUMPDEST PUSH1 0x20 MUL PUSH1 0x20 ADD ADD MLOAD PUSH1 0x40 ADD MLOAD PUSH2 0x2932 JUMP JUMPDEST DUP1 PUSH2 0x220E DUP2 PUSH2 0x3DD7 JUMP JUMPDEST SWAP2 POP POP PUSH2 0x2088 JUMP JUMPDEST POP POP POP POP POP JUMP JUMPDEST CALLER PUSH1 0x0 SWAP1 DUP2 MSTORE PUSH1 0xE PUSH1 0x20 MSTORE PUSH1 0x40 SWAP1 KECCAK256 SLOAD PUSH1 0xFF AND PUSH2 0x227C JUMPI PUSH1 0x40 MLOAD PUSH3 0x461BCD PUSH1 0xE5 SHL DUP2 MSTORE PUSH1 0x20 PUSH1 0x4 DUP3 ADD MSTORE PUSH1 0x19 PUSH1 0x24 DUP3 ADD MSTORE PUSH32 0x4F6E6C792041646D696E732063616E204D696E74204E46547300000000000000 PUSH1 0x44 DUP3 ADD MSTORE PUSH1 0x64 ADD PUSH2 0x6BB JUMP JUMPDEST DUP1 MLOAD PUSH1 0x10 SLOAD PUSH2 0x228B SWAP2 SWAP1 PUSH2 0x3F59 JUMP JUMPDEST PUSH1 0x10 SLOAD GT PUSH2 0x22F4 JUMPI PUSH1 0x40 MLOAD PUSH3 0x461BCD PUSH1 0xE5 SHL DUP2 MSTORE PUSH1 0x20 PUSH1 0x4 DUP3 ADD MSTORE PUSH1 0x30 PUSH1 0x24 DUP3 ADD MSTORE PUSH32 0x4172726179204C696D6974206D75737420626520756E64657220506C6174666F PUSH1 0x44 DUP3 ADD MSTORE PUSH16 0x1C9B48135A5B9D1A5B99C8131A5B5A5D PUSH1 0x82 SHL PUSH1 0x64 DUP3 ADD MSTORE PUSH1 0x84 ADD PUSH2 0x6BB JUMP JUMPDEST PUSH1 0x0 JUMPDEST DUP2 MLOAD DUP2 LT ISZERO PUSH2 0x1412 JUMPI PUSH2 0x2315 DUP3 DUP3 DUP2 MLOAD DUP2 LT PUSH2 0x211C JUMPI PUSH2 0x211C PUSH2 0x3DAB JUMP JUMPDEST POP PUSH2 0x2349 DUP3 DUP3 DUP2 MLOAD DUP2 LT PUSH2 0x232B JUMPI PUSH2 0x232B PUSH2 0x3DAB JUMP JUMPDEST PUSH1 0x20 MUL PUSH1 0x20 ADD ADD MLOAD PUSH1 0x0 ADD MLOAD DUP4 DUP4 DUP2 MLOAD DUP2 LT PUSH2 0x21AF JUMPI PUSH2 0x21AF PUSH2 0x3DAB JUMP JUMPDEST PUSH2 0x237C DUP3 DUP3 DUP2 MLOAD DUP2 LT PUSH2 0x235E JUMPI PUSH2 0x235E PUSH2 0x3DAB JUMP JUMPDEST PUSH1 0x20 MUL PUSH1 0x20 ADD ADD MLOAD PUSH1 0x20 ADD MLOAD DUP4 DUP4 DUP2 MLOAD DUP2 LT PUSH2 0x21F3 JUMPI PUSH2 0x21F3 PUSH2 0x3DAB JUMP JUMPDEST PUSH1 0x10 DUP1 SLOAD SWAP1 PUSH1 0x0 PUSH2 0x238C DUP4 PUSH2 0x3F42 JUMP JUMPDEST SWAP2 SWAP1 POP SSTORE POP DUP1 DUP1 PUSH2 0x239C SWAP1 PUSH2 0x3DD7 JUMP JUMPDEST SWAP2 POP POP PUSH2 0x22F7 JUMP JUMPDEST PUSH2 0x23AC PUSH2 0x250C JUMP JUMPDEST PUSH1 0x1 PUSH1 0x1 PUSH1 0xA0 SHL SUB DUP2 AND PUSH2 0x2411 JUMPI PUSH1 0x40 MLOAD PUSH3 0x461BCD PUSH1 0xE5 SHL DUP2 MSTORE PUSH1 0x20 PUSH1 0x4 DUP3 ADD MSTORE PUSH1 0x26 PUSH1 0x24 DUP3 ADD MSTORE PUSH32 0x4F776E61626C653A206E6577206F776E657220697320746865207A65726F2061 PUSH1 0x44 DUP3 ADD MSTORE PUSH6 0x646472657373 PUSH1 0xD0 SHL PUSH1 0x64 DUP3 ADD MSTORE PUSH1 0x84 ADD PUSH2 0x6BB JUMP JUMPDEST PUSH2 0xEFA DUP2 PUSH2 0x27CD JUMP JUMPDEST PUSH1 0x0 PUSH1 0x1 PUSH1 0x1 PUSH1 0xE0 SHL SUB NOT DUP3 AND PUSH4 0x24832483 PUSH1 0xE1 SHL EQ DUP1 PUSH2 0x588 JUMPI POP PUSH2 0x588 DUP3 PUSH2 0x2BBF JUMP JUMPDEST PUSH1 0x0 DUP2 DUP2 MSTORE PUSH1 0x2 PUSH1 0x20 MSTORE PUSH1 0x40 SWAP1 KECCAK256 SLOAD PUSH1 0x1 PUSH1 0x1 PUSH1 0xA0 SHL SUB AND PUSH2 0xEFA JUMPI PUSH1 0x40 MLOAD PUSH3 0x461BCD PUSH1 0xE5 SHL DUP2 MSTORE PUSH1 0x20 PUSH1 0x4 DUP3 ADD MSTORE PUSH1 0x18 PUSH1 0x24 DUP3 ADD MSTORE PUSH24 0x115490CDCC8C4E881A5B9D985B1A59081D1BDAD95B881251 PUSH1 0x42 SHL PUSH1 0x44 DUP3 ADD MSTORE PUSH1 0x64 ADD PUSH2 0x6BB JUMP JUMPDEST PUSH1 0x0 DUP2 DUP2 MSTORE PUSH1 0x4 PUSH1 0x20 MSTORE PUSH1 0x40 SWAP1 KECCAK256 DUP1 SLOAD PUSH1 0x1 PUSH1 0x1 PUSH1 0xA0 SHL SUB NOT AND PUSH1 0x1 PUSH1 0x1 PUSH1 0xA0 SHL SUB DUP5 AND SWAP1 DUP2 OR SWAP1 SWAP2 SSTORE DUP2 SWAP1 PUSH2 0x24D3 DUP3 PUSH2 0x118C JUMP JUMPDEST PUSH1 0x1 PUSH1 0x1 PUSH1 0xA0 SHL SUB AND PUSH32 0x8C5BE1E5EBEC7D5BD14F71427D1E84F3DD0314C0F7B2291E5B200AC8C7C3B925 PUSH1 0x40 MLOAD PUSH1 0x40 MLOAD DUP1 SWAP2 SUB SWAP1 LOG4 POP POP JUMP JUMPDEST PUSH1 0xB SLOAD PUSH1 0x1 PUSH1 0x1 PUSH1 0xA0 SHL SUB PUSH2 0x100 SWAP1 SWAP2 DIV AND CALLER EQ PUSH2 0xEAF JUMPI PUSH1 0x40 MLOAD PUSH3 0x461BCD PUSH1 0xE5 SHL DUP2 MSTORE PUSH1 0x20 PUSH1 0x4 DUP3 ADD DUP2 SWAP1 MSTORE PUSH1 0x24 DUP3 ADD MSTORE PUSH32 0x4F776E61626C653A2063616C6C6572206973206E6F7420746865206F776E6572 PUSH1 0x44 DUP3 ADD MSTORE PUSH1 0x64 ADD PUSH2 0x6BB JUMP JUMPDEST PUSH1 0x0 DUP3 PUSH2 0x2579 DUP6 DUP5 PUSH2 0x2BE4 JUMP JUMPDEST EQ SWAP5 SWAP4 POP POP POP POP JUMP JUMPDEST PUSH1 0x0 DUP1 PUSH2 0x258E DUP4 PUSH2 0x118C JUMP JUMPDEST SWAP1 POP DUP1 PUSH1 0x1 PUSH1 0x1 PUSH1 0xA0 SHL SUB AND DUP5 PUSH1 0x1 PUSH1 0x1 PUSH1 0xA0 SHL SUB AND EQ DUP1 PUSH2 0x25D5 JUMPI POP PUSH1 0x1 PUSH1 0x1 PUSH1 0xA0 SHL SUB DUP1 DUP3 AND PUSH1 0x0 SWAP1 DUP2 MSTORE PUSH1 0x5 PUSH1 0x20 SWAP1 DUP2 MSTORE PUSH1 0x40 DUP1 DUP4 KECCAK256 SWAP4 DUP9 AND DUP4 MSTORE SWAP3 SWAP1 MSTORE KECCAK256 SLOAD PUSH1 0xFF AND JUMPDEST DUP1 PUSH2 0x25F9 JUMPI POP DUP4 PUSH1 0x1 PUSH1 0x1 PUSH1 0xA0 SHL SUB AND PUSH2 0x25EE DUP5 PUSH2 0x620 JUMP JUMPDEST PUSH1 0x1 PUSH1 0x1 PUSH1 0xA0 SHL SUB AND EQ JUMPDEST SWAP5 SWAP4 POP POP POP POP JUMP JUMPDEST DUP3 PUSH1 0x1 PUSH1 0x1 PUSH1 0xA0 SHL SUB AND PUSH2 0x2614 DUP3 PUSH2 0x118C JUMP JUMPDEST PUSH1 0x1 PUSH1 0x1 PUSH1 0xA0 SHL SUB AND EQ PUSH2 0x263A JUMPI PUSH1 0x40 MLOAD PUSH3 0x461BCD PUSH1 0xE5 SHL DUP2 MSTORE PUSH1 0x4 ADD PUSH2 0x6BB SWAP1 PUSH2 0x3F7F JUMP JUMPDEST PUSH1 0x1 PUSH1 0x1 PUSH1 0xA0 SHL SUB DUP3 AND PUSH2 0x269C JUMPI PUSH1 0x40 MLOAD PUSH3 0x461BCD PUSH1 0xE5 SHL DUP2 MSTORE PUSH1 0x20 PUSH1 0x4 DUP3 ADD MSTORE PUSH1 0x24 DUP1 DUP3 ADD MSTORE PUSH32 0x4552433732313A207472616E7366657220746F20746865207A65726F20616464 PUSH1 0x44 DUP3 ADD MSTORE PUSH4 0x72657373 PUSH1 0xE0 SHL PUSH1 0x64 DUP3 ADD MSTORE PUSH1 0x84 ADD PUSH2 0x6BB JUMP JUMPDEST PUSH2 0x26A9 DUP4 DUP4 DUP4 PUSH1 0x1 PUSH2 0x2C58 JUMP JUMPDEST DUP3 PUSH1 0x1 PUSH1 0x1 PUSH1 0xA0 SHL SUB AND PUSH2 0x26BC DUP3 PUSH2 0x118C JUMP JUMPDEST PUSH1 0x1 PUSH1 0x1 PUSH1 0xA0 SHL SUB AND EQ PUSH2 0x26E2 JUMPI PUSH1 0x40 MLOAD PUSH3 0x461BCD PUSH1 0xE5 SHL DUP2 MSTORE PUSH1 0x4 ADD PUSH2 0x6BB SWAP1 PUSH2 0x3F7F JUMP JUMPDEST PUSH1 0x0 DUP2 DUP2 MSTORE PUSH1 0x4 PUSH1 0x20 SWAP1 DUP2 MSTORE PUSH1 0x40 DUP1 DUP4 KECCAK256 DUP1 SLOAD PUSH1 0x1 PUSH1 0x1 PUSH1 0xA0 SHL SUB NOT SWAP1 DUP2 AND SWAP1 SWAP2 SSTORE PUSH1 0x1 PUSH1 0x1 PUSH1 0xA0 SHL SUB DUP8 DUP2 AND DUP1 DUP7 MSTORE PUSH1 0x3 DUP6 MSTORE DUP4 DUP7 KECCAK256 DUP1 SLOAD PUSH1 0x0 NOT ADD SWAP1 SSTORE SWAP1 DUP8 AND DUP1 DUP7 MSTORE DUP4 DUP7 KECCAK256 DUP1 SLOAD PUSH1 0x1 ADD SWAP1 SSTORE DUP7 DUP7 MSTORE PUSH1 0x2 SWAP1 SWAP5 MSTORE DUP3 DUP6 KECCAK256 DUP1 SLOAD SWAP1 SWAP3 AND DUP5 OR SWAP1 SWAP2 SSTORE SWAP1 MLOAD DUP5 SWAP4 PUSH32 0xDDF252AD1BE2C89B69C2B068FC378DAA952BA7F163C4A11628F55A4DF523B3EF SWAP2 LOG4 POP POP POP JUMP JUMPDEST PUSH2 0x277A PUSH2 0x2CBE JUMP JUMPDEST PUSH1 0xB DUP1 SLOAD PUSH1 0xFF NOT AND SWAP1 SSTORE PUSH32 0x5DB9EE0A495BF2E6FF9C91A7834C1BA4FDD244A5E8AA4E537BD38AEAE4B073AA CALLER JUMPDEST PUSH1 0x40 MLOAD PUSH1 0x1 PUSH1 0x1 PUSH1 0xA0 SHL SUB SWAP1 SWAP2 AND DUP2 MSTORE PUSH1 0x20 ADD PUSH1 0x40 MLOAD DUP1 SWAP2 SUB SWAP1 LOG1 JUMP JUMPDEST PUSH2 0xEFA DUP2 PUSH2 0x2D07 JUMP JUMPDEST PUSH1 0xB DUP1 SLOAD PUSH1 0x1 PUSH1 0x1 PUSH1 0xA0 SHL SUB DUP4 DUP2 AND PUSH2 0x100 DUP2 DUP2 MUL PUSH2 0x100 PUSH1 0x1 PUSH1 0xA8 SHL SUB NOT DUP6 AND OR SWAP1 SWAP5 SSTORE PUSH1 0x40 MLOAD SWAP4 SWAP1 SWAP3 DIV AND SWAP2 DUP3 SWAP1 PUSH32 0x8BE0079C531659141344CD1FD0A4F28419497F9722A3DAAFE3B4186F6B6457E0 SWAP1 PUSH1 0x0 SWAP1 LOG3 POP POP JUMP JUMPDEST PUSH2 0x282F PUSH2 0x2D47 JUMP JUMPDEST PUSH1 0xB DUP1 SLOAD PUSH1 0xFF NOT AND PUSH1 0x1 OR SWAP1 SSTORE PUSH32 0x62E78CEA01BEE320CD4E420270B5EA74000D11B0C9F74754EBDBFC544B05A258 PUSH2 0x27A7 CALLER SWAP1 JUMP JUMPDEST DUP2 PUSH1 0x1 PUSH1 0x1 PUSH1 0xA0 SHL SUB AND DUP4 PUSH1 0x1 PUSH1 0x1 PUSH1 0xA0 SHL SUB AND SUB PUSH2 0x28C5 JUMPI PUSH1 0x40 MLOAD PUSH3 0x461BCD PUSH1 0xE5 SHL DUP2 MSTORE PUSH1 0x20 PUSH1 0x4 DUP3 ADD MSTORE PUSH1 0x19 PUSH1 0x24 DUP3 ADD MSTORE PUSH32 0x4552433732313A20617070726F766520746F2063616C6C657200000000000000 PUSH1 0x44 DUP3 ADD MSTORE PUSH1 0x64 ADD PUSH2 0x6BB JUMP JUMPDEST PUSH1 0x1 PUSH1 0x1 PUSH1 0xA0 SHL SUB DUP4 DUP2 AND PUSH1 0x0 DUP2 DUP2 MSTORE PUSH1 0x5 PUSH1 0x20 SWAP1 DUP2 MSTORE PUSH1 0x40 DUP1 DUP4 KECCAK256 SWAP5 DUP8 AND DUP1 DUP5 MSTORE SWAP5 DUP3 MSTORE SWAP2 DUP3 SWAP1 KECCAK256 DUP1 SLOAD PUSH1 0xFF NOT AND DUP7 ISZERO ISZERO SWAP1 DUP2 OR SWAP1 SWAP2 SSTORE SWAP2 MLOAD SWAP2 DUP3 MSTORE PUSH32 0x17307EAB39AB6107E8899845AD3D59BD9653F200F220920489CA2B5937696C31 SWAP2 ADD PUSH1 0x40 MLOAD DUP1 SWAP2 SUB SWAP1 LOG3 POP POP POP JUMP JUMPDEST PUSH1 0x0 DUP3 DUP2 MSTORE PUSH1 0x2 PUSH1 0x20 MSTORE PUSH1 0x40 SWAP1 KECCAK256 SLOAD PUSH1 0x1 PUSH1 0x1 PUSH1 0xA0 SHL SUB AND PUSH2 0x29AD JUMPI PUSH1 0x40 MLOAD PUSH3 0x461BCD PUSH1 0xE5 SHL DUP2 MSTORE PUSH1 0x20 PUSH1 0x4 DUP3 ADD MSTORE PUSH1 0x2E PUSH1 0x24 DUP3 ADD MSTORE PUSH32 0x45524337323155524953746F726167653A2055524920736574206F66206E6F6E PUSH1 0x44 DUP3 ADD MSTORE PUSH14 0x32BC34B9BA32B73A103A37B5B2B7 PUSH1 0x91 SHL PUSH1 0x64 DUP3 ADD MSTORE PUSH1 0x84 ADD PUSH2 0x6BB JUMP JUMPDEST PUSH1 0x0 DUP3 DUP2 MSTORE PUSH1 0xA PUSH1 0x20 MSTORE PUSH1 0x40 SWAP1 KECCAK256 PUSH2 0x29C5 DUP3 DUP3 PUSH2 0x4012 JUMP JUMPDEST POP PUSH1 0x40 MLOAD DUP3 DUP2 MSTORE PUSH32 0xF8E1A15ABA9398E019F0B49DF1A4FDE98EE17AE345CB5F6B5E2C27F5033E8CE7 SWAP1 PUSH1 0x20 ADD PUSH1 0x40 MLOAD DUP1 SWAP2 SUB SWAP1 LOG1 POP POP JUMP JUMPDEST PUSH2 0x2A08 DUP5 DUP5 DUP5 PUSH2 0x2601 JUMP JUMPDEST PUSH2 0x2A14 DUP5 DUP5 DUP5 DUP5 PUSH2 0x2D8D JUMP JUMPDEST PUSH2 0x14E8 JUMPI PUSH1 0x40 MLOAD PUSH3 0x461BCD PUSH1 0xE5 SHL DUP2 MSTORE PUSH1 0x4 ADD PUSH2 0x6BB SWAP1 PUSH2 0x40D1 JUMP JUMPDEST PUSH1 0x0 PUSH1 0xF SLOAD DUP3 GT ISZERO PUSH2 0x2A95 JUMPI PUSH1 0x40 MLOAD PUSH3 0x461BCD PUSH1 0xE5 SHL DUP2 MSTORE PUSH1 0x20 PUSH1 0x4 DUP3 ADD MSTORE PUSH1 0x28 PUSH1 0x24 DUP3 ADD MSTORE PUSH32 0x546F6B656E20494420657863656564732074686520546F74616C204D696E7469 PUSH1 0x44 DUP3 ADD MSTORE PUSH8 0x1B99C8131A5B5A5D PUSH1 0xC2 SHL PUSH1 0x64 DUP3 ADD MSTORE PUSH1 0x84 ADD PUSH2 0x6BB JUMP JUMPDEST POP PUSH1 0x1 SWAP2 SWAP1 POP JUMP JUMPDEST PUSH2 0x1412 DUP3 DUP3 PUSH1 0x40 MLOAD DUP1 PUSH1 0x20 ADD PUSH1 0x40 MSTORE DUP1 PUSH1 0x0 DUP2 MSTORE POP PUSH2 0x2E8E JUMP JUMPDEST PUSH1 0x60 PUSH2 0x2AC2 DUP3 PUSH2 0x243F JUMP JUMPDEST PUSH1 0x0 DUP3 DUP2 MSTORE PUSH1 0xA PUSH1 0x20 MSTORE PUSH1 0x40 DUP2 KECCAK256 DUP1 SLOAD PUSH2 0x2ADB SWAP1 PUSH2 0x3D24 JUMP JUMPDEST DUP1 PUSH1 0x1F ADD PUSH1 0x20 DUP1 SWAP2 DIV MUL PUSH1 0x20 ADD PUSH1 0x40 MLOAD SWAP1 DUP2 ADD PUSH1 0x40 MSTORE DUP1 SWAP3 SWAP2 SWAP1 DUP2 DUP2 MSTORE PUSH1 0x20 ADD DUP3 DUP1 SLOAD PUSH2 0x2B07 SWAP1 PUSH2 0x3D24 JUMP JUMPDEST DUP1 ISZERO PUSH2 0x2B54 JUMPI DUP1 PUSH1 0x1F LT PUSH2 0x2B29 JUMPI PUSH2 0x100 DUP1 DUP4 SLOAD DIV MUL DUP4 MSTORE SWAP2 PUSH1 0x20 ADD SWAP2 PUSH2 0x2B54 JUMP JUMPDEST DUP3 ADD SWAP2 SWAP1 PUSH1 0x0 MSTORE PUSH1 0x20 PUSH1 0x0 KECCAK256 SWAP1 JUMPDEST DUP2 SLOAD DUP2 MSTORE SWAP1 PUSH1 0x1 ADD SWAP1 PUSH1 0x20 ADD DUP1 DUP4 GT PUSH2 0x2B37 JUMPI DUP3 SWAP1 SUB PUSH1 0x1F AND DUP3 ADD SWAP2 JUMPDEST POP POP POP POP POP SWAP1 POP PUSH1 0x0 PUSH2 0x2B72 PUSH1 0x40 DUP1 MLOAD PUSH1 0x20 DUP2 ADD SWAP1 SWAP2 MSTORE PUSH1 0x0 DUP2 MSTORE SWAP1 JUMP JUMPDEST SWAP1 POP DUP1 MLOAD PUSH1 0x0 SUB PUSH2 0x2B84 JUMPI POP SWAP3 SWAP2 POP POP JUMP JUMPDEST DUP2 MLOAD ISZERO PUSH2 0x2BB6 JUMPI DUP1 DUP3 PUSH1 0x40 MLOAD PUSH1 0x20 ADD PUSH2 0x2B9E SWAP3 SWAP2 SWAP1 PUSH2 0x4123 JUMP JUMPDEST PUSH1 0x40 MLOAD PUSH1 0x20 DUP2 DUP4 SUB SUB DUP2 MSTORE SWAP1 PUSH1 0x40 MSTORE SWAP3 POP POP POP SWAP2 SWAP1 POP JUMP JUMPDEST PUSH2 0x25F9 DUP5 PUSH2 0x2EC1 JUMP JUMPDEST PUSH1 0x0 PUSH1 0x1 PUSH1 0x1 PUSH1 0xE0 SHL SUB NOT DUP3 AND PUSH4 0x780E9D63 PUSH1 0xE0 SHL EQ DUP1 PUSH2 0x588 JUMPI POP PUSH2 0x588 DUP3 PUSH2 0x2F35 JUMP JUMPDEST PUSH1 0x0 DUP2 DUP2 JUMPDEST DUP5 MLOAD DUP2 LT ISZERO PUSH2 0x2C50 JUMPI PUSH1 0x0 DUP6 DUP3 DUP2 MLOAD DUP2 LT PUSH2 0x2C06 JUMPI PUSH2 0x2C06 PUSH2 0x3DAB JUMP JUMPDEST PUSH1 0x20 MUL PUSH1 0x20 ADD ADD MLOAD SWAP1 POP DUP1 DUP4 GT PUSH2 0x2C2C JUMPI PUSH1 0x0 DUP4 DUP2 MSTORE PUSH1 0x20 DUP3 SWAP1 MSTORE PUSH1 0x40 SWAP1 KECCAK256 SWAP3 POP PUSH2 0x2C3D JUMP JUMPDEST PUSH1 0x0 DUP2 DUP2 MSTORE PUSH1 0x20 DUP5 SWAP1 MSTORE PUSH1 0x40 SWAP1 KECCAK256 SWAP3 POP JUMPDEST POP DUP1 PUSH2 0x2C48 DUP2 PUSH2 0x3DD7 JUMP JUMPDEST SWAP2 POP POP PUSH2 0x2BE9 JUMP JUMPDEST POP SWAP4 SWAP3 POP POP POP JUMP JUMPDEST PUSH2 0x2C60 PUSH2 0x2D47 JUMP JUMPDEST PUSH1 0x13 SLOAD PUSH1 0xFF AND PUSH2 0x2CB2 JUMPI PUSH1 0x40 MLOAD PUSH3 0x461BCD PUSH1 0xE5 SHL DUP2 MSTORE PUSH1 0x20 PUSH1 0x4 DUP3 ADD MSTORE PUSH1 0x17 PUSH1 0x24 DUP3 ADD MSTORE PUSH32 0x5472616E73666572206973206465616374697661746564000000000000000000 PUSH1 0x44 DUP3 ADD MSTORE PUSH1 0x64 ADD PUSH2 0x6BB JUMP JUMPDEST PUSH2 0x14E8 DUP5 DUP5 DUP5 DUP5 PUSH2 0x2F85 JUMP JUMPDEST PUSH1 0xB SLOAD PUSH1 0xFF AND PUSH2 0xEAF JUMPI PUSH1 0x40 MLOAD PUSH3 0x461BCD PUSH1 0xE5 SHL DUP2 MSTORE PUSH1 0x20 PUSH1 0x4 DUP3 ADD MSTORE PUSH1 0x14 PUSH1 0x24 DUP3 ADD MSTORE PUSH20 0x14185D5CD8589B194E881B9BDD081C185D5CD959 PUSH1 0x62 SHL PUSH1 0x44 DUP3 ADD MSTORE PUSH1 0x64 ADD PUSH2 0x6BB JUMP JUMPDEST PUSH2 0x2D10 DUP2 PUSH2 0x30B2 JUMP JUMPDEST PUSH1 0x0 DUP2 DUP2 MSTORE PUSH1 0xA PUSH1 0x20 MSTORE PUSH1 0x40 SWAP1 KECCAK256 DUP1 SLOAD PUSH2 0x2D29 SWAP1 PUSH2 0x3D24 JUMP JUMPDEST ISZERO SWAP1 POP PUSH2 0xEFA JUMPI PUSH1 0x0 DUP2 DUP2 MSTORE PUSH1 0xA PUSH1 0x20 MSTORE PUSH1 0x40 DUP2 KECCAK256 PUSH2 0xEFA SWAP2 PUSH2 0x35E8 JUMP JUMPDEST PUSH1 0xB SLOAD PUSH1 0xFF AND ISZERO PUSH2 0xEAF JUMPI PUSH1 0x40 MLOAD PUSH3 0x461BCD PUSH1 0xE5 SHL DUP2 MSTORE PUSH1 0x20 PUSH1 0x4 DUP3 ADD MSTORE PUSH1 0x10 PUSH1 0x24 DUP3 ADD MSTORE PUSH16 0x14185D5CD8589B194E881C185D5CD959 PUSH1 0x82 SHL PUSH1 0x44 DUP3 ADD MSTORE PUSH1 0x64 ADD PUSH2 0x6BB JUMP JUMPDEST PUSH1 0x0 PUSH1 0x1 PUSH1 0x1 PUSH1 0xA0 SHL SUB DUP5 AND EXTCODESIZE ISZERO PUSH2 0x2E83 JUMPI PUSH1 0x40 MLOAD PUSH4 0xA85BD01 PUSH1 0xE1 SHL DUP2 MSTORE PUSH1 0x1 PUSH1 0x1 PUSH1 0xA0 SHL SUB DUP6 AND SWAP1 PUSH4 0x150B7A02 SWAP1 PUSH2 0x2DD1 SWAP1 CALLER SWAP1 DUP10 SWAP1 DUP9 SWAP1 DUP9 SWAP1 PUSH1 0x4 ADD PUSH2 0x4152 JUMP JUMPDEST PUSH1 0x20 PUSH1 0x40 MLOAD DUP1 DUP4 SUB DUP2 PUSH1 0x0 DUP8 GAS CALL SWAP3 POP POP POP DUP1 ISZERO PUSH2 0x2E0C JUMPI POP PUSH1 0x40 DUP1 MLOAD PUSH1 0x1F RETURNDATASIZE SWAP1 DUP2 ADD PUSH1 0x1F NOT AND DUP3 ADD SWAP1 SWAP3 MSTORE PUSH2 0x2E09 SWAP2 DUP2 ADD SWAP1 PUSH2 0x418F JUMP JUMPDEST PUSH1 0x1 JUMPDEST PUSH2 0x2E69 JUMPI RETURNDATASIZE DUP1 DUP1 ISZERO PUSH2 0x2E3A JUMPI PUSH1 0x40 MLOAD SWAP2 POP PUSH1 0x1F NOT PUSH1 0x3F RETURNDATASIZE ADD AND DUP3 ADD PUSH1 0x40 MSTORE RETURNDATASIZE DUP3 MSTORE RETURNDATASIZE PUSH1 0x0 PUSH1 0x20 DUP5 ADD RETURNDATACOPY PUSH2 0x2E3F JUMP JUMPDEST PUSH1 0x60 SWAP2 POP JUMPDEST POP DUP1 MLOAD PUSH1 0x0 SUB PUSH2 0x2E61 JUMPI PUSH1 0x40 MLOAD PUSH3 0x461BCD PUSH1 0xE5 SHL DUP2 MSTORE PUSH1 0x4 ADD PUSH2 0x6BB SWAP1 PUSH2 0x40D1 JUMP JUMPDEST DUP1 MLOAD DUP2 PUSH1 0x20 ADD REVERT JUMPDEST PUSH1 0x1 PUSH1 0x1 PUSH1 0xE0 SHL SUB NOT AND PUSH4 0xA85BD01 PUSH1 0xE1 SHL EQ SWAP1 POP PUSH2 0x25F9 JUMP JUMPDEST POP PUSH1 0x1 SWAP5 SWAP4 POP POP POP POP JUMP JUMPDEST PUSH2 0x2E98 DUP4 DUP4 PUSH2 0x3155 JUMP JUMPDEST PUSH2 0x2EA5 PUSH1 0x0 DUP5 DUP5 DUP5 PUSH2 0x2D8D JUMP JUMPDEST PUSH2 0x75C JUMPI PUSH1 0x40 MLOAD PUSH3 0x461BCD PUSH1 0xE5 SHL DUP2 MSTORE PUSH1 0x4 ADD PUSH2 0x6BB SWAP1 PUSH2 0x40D1 JUMP JUMPDEST PUSH1 0x60 PUSH2 0x2ECC DUP3 PUSH2 0x243F JUMP JUMPDEST PUSH1 0x0 PUSH2 0x2EE3 PUSH1 0x40 DUP1 MLOAD PUSH1 0x20 DUP2 ADD SWAP1 SWAP2 MSTORE PUSH1 0x0 DUP2 MSTORE SWAP1 JUMP JUMPDEST SWAP1 POP PUSH1 0x0 DUP2 MLOAD GT PUSH2 0x2F03 JUMPI PUSH1 0x40 MLOAD DUP1 PUSH1 0x20 ADD PUSH1 0x40 MSTORE DUP1 PUSH1 0x0 DUP2 MSTORE POP PUSH2 0x2F2E JUMP JUMPDEST DUP1 PUSH2 0x2F0D DUP5 PUSH2 0x32EE JUMP JUMPDEST PUSH1 0x40 MLOAD PUSH1 0x20 ADD PUSH2 0x2F1E SWAP3 SWAP2 SWAP1 PUSH2 0x4123 JUMP JUMPDEST PUSH1 0x40 MLOAD PUSH1 0x20 DUP2 DUP4 SUB SUB DUP2 MSTORE SWAP1 PUSH1 0x40 MSTORE JUMPDEST SWAP4 SWAP3 POP POP POP JUMP JUMPDEST PUSH1 0x0 PUSH1 0x1 PUSH1 0x1 PUSH1 0xE0 SHL SUB NOT DUP3 AND PUSH4 0x80AC58CD PUSH1 0xE0 SHL EQ DUP1 PUSH2 0x2F66 JUMPI POP PUSH1 0x1 PUSH1 0x1 PUSH1 0xE0 SHL SUB NOT DUP3 AND PUSH4 0x5B5E139F PUSH1 0xE0 SHL EQ JUMPDEST DUP1 PUSH2 0x588 JUMPI POP PUSH4 0x1FFC9A7 PUSH1 0xE0 SHL PUSH1 0x1 PUSH1 0x1 PUSH1 0xE0 SHL SUB NOT DUP4 AND EQ PUSH2 0x588 JUMP JUMPDEST PUSH1 0x1 DUP2 GT ISZERO PUSH2 0x2FF4 JUMPI PUSH1 0x40 MLOAD PUSH3 0x461BCD PUSH1 0xE5 SHL DUP2 MSTORE PUSH1 0x20 PUSH1 0x4 DUP3 ADD MSTORE PUSH1 0x35 PUSH1 0x24 DUP3 ADD MSTORE PUSH32 0x455243373231456E756D657261626C653A20636F6E7365637574697665207472 PUSH1 0x44 DUP3 ADD MSTORE PUSH21 0x185B9CD9995C9CC81B9BDD081CDD5C1C1BDC9D1959 PUSH1 0x5A SHL PUSH1 0x64 DUP3 ADD MSTORE PUSH1 0x84 ADD PUSH2 0x6BB JUMP JUMPDEST DUP2 PUSH1 0x1 PUSH1 0x1 PUSH1 0xA0 SHL SUB DUP6 AND PUSH2 0x3050 JUMPI PUSH2 0x304B DUP2 PUSH1 0x8 DUP1 SLOAD PUSH1 0x0 DUP4 DUP2 MSTORE PUSH1 0x9 PUSH1 0x20 MSTORE PUSH1 0x40 DUP2 KECCAK256 DUP3 SWAP1 SSTORE PUSH1 0x1 DUP3 ADD DUP4 SSTORE SWAP2 SWAP1 SWAP2 MSTORE PUSH32 0xF3F7A9FE364FAAB93B216DA50A3214154F22A0A2B415B23A84C8169E8B636EE3 ADD SSTORE JUMP JUMPDEST PUSH2 0x3073 JUMP JUMPDEST DUP4 PUSH1 0x1 PUSH1 0x1 PUSH1 0xA0 SHL SUB AND DUP6 PUSH1 0x1 PUSH1 0x1 PUSH1 0xA0 SHL SUB AND EQ PUSH2 0x3073 JUMPI PUSH2 0x3073 DUP6 DUP3 PUSH2 0x3380 JUMP JUMPDEST PUSH1 0x1 PUSH1 0x1 PUSH1 0xA0 SHL SUB DUP5 AND PUSH2 0x308F JUMPI PUSH2 0x308A DUP2 PUSH2 0x341D JUMP JUMPDEST PUSH2 0x2216 JUMP JUMPDEST DUP5 PUSH1 0x1 PUSH1 0x1 PUSH1 0xA0 SHL SUB AND DUP5 PUSH1 0x1 PUSH1 0x1 PUSH1 0xA0 SHL SUB AND EQ PUSH2 0x2216 JUMPI PUSH2 0x2216 DUP5 DUP3 PUSH2 0x34CC JUMP JUMPDEST PUSH1 0x0 PUSH2 0x30BD DUP3 PUSH2 0x118C JUMP JUMPDEST SWAP1 POP PUSH2 0x30CD DUP2 PUSH1 0x0 DUP5 PUSH1 0x1 PUSH2 0x2C58 JUMP JUMPDEST PUSH2 0x30D6 DUP3 PUSH2 0x118C JUMP JUMPDEST PUSH1 0x0 DUP4 DUP2 MSTORE PUSH1 0x4 PUSH1 0x20 SWAP1 DUP2 MSTORE PUSH1 0x40 DUP1 DUP4 KECCAK256 DUP1 SLOAD PUSH1 0x1 PUSH1 0x1 PUSH1 0xA0 SHL SUB NOT SWAP1 DUP2 AND SWAP1 SWAP2 SSTORE PUSH1 0x1 PUSH1 0x1 PUSH1 0xA0 SHL SUB DUP6 AND DUP1 DUP6 MSTORE PUSH1 0x3 DUP5 MSTORE DUP3 DUP6 KECCAK256 DUP1 SLOAD PUSH1 0x0 NOT ADD SWAP1 SSTORE DUP8 DUP6 MSTORE PUSH1 0x2 SWAP1 SWAP4 MSTORE DUP2 DUP5 KECCAK256 DUP1 SLOAD SWAP1 SWAP2 AND SWAP1 SSTORE MLOAD SWAP3 SWAP4 POP DUP5 SWAP3 PUSH32 0xDDF252AD1BE2C89B69C2B068FC378DAA952BA7F163C4A11628F55A4DF523B3EF SWAP1 DUP4 SWAP1 LOG4 POP POP JUMP JUMPDEST PUSH1 0x1 PUSH1 0x1 PUSH1 0xA0 SHL SUB DUP3 AND PUSH2 0x31AB JUMPI PUSH1 0x40 MLOAD PUSH3 0x461BCD PUSH1 0xE5 SHL DUP2 MSTORE PUSH1 0x20 PUSH1 0x4 DUP3 ADD DUP2 SWAP1 MSTORE PUSH1 0x24 DUP3 ADD MSTORE PUSH32 0x4552433732313A206D696E7420746F20746865207A65726F2061646472657373 PUSH1 0x44 DUP3 ADD MSTORE PUSH1 0x64 ADD PUSH2 0x6BB JUMP JUMPDEST PUSH1 0x0 DUP2 DUP2 MSTORE PUSH1 0x2 PUSH1 0x20 MSTORE PUSH1 0x40 SWAP1 KECCAK256 SLOAD PUSH1 0x1 PUSH1 0x1 PUSH1 0xA0 SHL SUB AND ISZERO PUSH2 0x3210 JUMPI PUSH1 0x40 MLOAD PUSH3 0x461BCD PUSH1 0xE5 SHL DUP2 MSTORE PUSH1 0x20 PUSH1 0x4 DUP3 ADD MSTORE PUSH1 0x1C PUSH1 0x24 DUP3 ADD MSTORE PUSH32 0x4552433732313A20746F6B656E20616C7265616479206D696E74656400000000 PUSH1 0x44 DUP3 ADD MSTORE PUSH1 0x64 ADD PUSH2 0x6BB JUMP JUMPDEST PUSH2 0x321E PUSH1 0x0 DUP4 DUP4 PUSH1 0x1 PUSH2 0x2C58 JUMP JUMPDEST PUSH1 0x0 DUP2 DUP2 MSTORE PUSH1 0x2 PUSH1 0x20 MSTORE PUSH1 0x40 SWAP1 KECCAK256 SLOAD PUSH1 0x1 PUSH1 0x1 PUSH1 0xA0 SHL SUB AND ISZERO PUSH2 0x3283 JUMPI PUSH1 0x40 MLOAD PUSH3 0x461BCD PUSH1 0xE5 SHL DUP2 MSTORE PUSH1 0x20 PUSH1 0x4 DUP3 ADD MSTORE PUSH1 0x1C PUSH1 0x24 DUP3 ADD MSTORE PUSH32 0x4552433732313A20746F6B656E20616C7265616479206D696E74656400000000 PUSH1 0x44 DUP3 ADD MSTORE PUSH1 0x64 ADD PUSH2 0x6BB JUMP JUMPDEST PUSH1 0x1 PUSH1 0x1 PUSH1 0xA0 SHL SUB DUP3 AND PUSH1 0x0 DUP2 DUP2 MSTORE PUSH1 0x3 PUSH1 0x20 SWAP1 DUP2 MSTORE PUSH1 0x40 DUP1 DUP4 KECCAK256 DUP1 SLOAD PUSH1 0x1 ADD SWAP1 SSTORE DUP5 DUP4 MSTORE PUSH1 0x2 SWAP1 SWAP2 MSTORE DUP1 DUP3 KECCAK256 DUP1 SLOAD PUSH1 0x1 PUSH1 0x1 PUSH1 0xA0 SHL SUB NOT AND DUP5 OR SWAP1 SSTORE MLOAD DUP4 SWAP3 SWAP2 SWAP1 PUSH32 0xDDF252AD1BE2C89B69C2B068FC378DAA952BA7F163C4A11628F55A4DF523B3EF SWAP1 DUP3 SWAP1 LOG4 POP POP JUMP JUMPDEST PUSH1 0x60 PUSH1 0x0 PUSH2 0x32FB DUP4 PUSH2 0x3510 JUMP JUMPDEST PUSH1 0x1 ADD SWAP1 POP PUSH1 0x0 DUP2 PUSH1 0x1 PUSH1 0x1 PUSH1 0x40 SHL SUB DUP2 GT ISZERO PUSH2 0x331A JUMPI PUSH2 0x331A PUSH2 0x372B JUMP JUMPDEST PUSH1 0x40 MLOAD SWAP1 DUP1 DUP3 MSTORE DUP1 PUSH1 0x1F ADD PUSH1 0x1F NOT AND PUSH1 0x20 ADD DUP3 ADD PUSH1 0x40 MSTORE DUP1 ISZERO PUSH2 0x3344 JUMPI PUSH1 0x20 DUP3 ADD DUP2 DUP1 CALLDATASIZE DUP4 CALLDATACOPY ADD SWAP1 POP JUMPDEST POP SWAP1 POP DUP2 DUP2 ADD PUSH1 0x20 ADD JUMPDEST PUSH1 0x0 NOT ADD PUSH16 0x181899199A1A9B1B9C1CB0B131B232B3 PUSH1 0x81 SHL PUSH1 0xA DUP7 MOD BYTE DUP2 MSTORE8 PUSH1 0xA DUP6 DIV SWAP5 POP DUP5 PUSH2 0x334E JUMPI POP SWAP4 SWAP3 POP POP POP JUMP JUMPDEST PUSH1 0x0 PUSH1 0x1 PUSH2 0x338D DUP5 PUSH2 0x11EC JUMP JUMPDEST PUSH2 0x3397 SWAP2 SWAP1 PUSH2 0x3F59 JUMP JUMPDEST PUSH1 0x0 DUP4 DUP2 MSTORE PUSH1 0x7 PUSH1 0x20 MSTORE PUSH1 0x40 SWAP1 KECCAK256 SLOAD SWAP1 SWAP2 POP DUP1 DUP3 EQ PUSH2 0x33EA JUMPI PUSH1 0x1 PUSH1 0x1 PUSH1 0xA0 SHL SUB DUP5 AND PUSH1 0x0 SWAP1 DUP2 MSTORE PUSH1 0x6 PUSH1 0x20 SWAP1 DUP2 MSTORE PUSH1 0x40 DUP1 DUP4 KECCAK256 DUP6 DUP5 MSTORE DUP3 MSTORE DUP1 DUP4 KECCAK256 SLOAD DUP5 DUP5 MSTORE DUP2 DUP5 KECCAK256 DUP2 SWAP1 SSTORE DUP4 MSTORE PUSH1 0x7 SWAP1 SWAP2 MSTORE SWAP1 KECCAK256 DUP2 SWAP1 SSTORE JUMPDEST POP PUSH1 0x0 SWAP2 DUP3 MSTORE PUSH1 0x7 PUSH1 0x20 SWAP1 DUP2 MSTORE PUSH1 0x40 DUP1 DUP5 KECCAK256 DUP5 SWAP1 SSTORE PUSH1 0x1 PUSH1 0x1 PUSH1 0xA0 SHL SUB SWAP1 SWAP5 AND DUP4 MSTORE PUSH1 0x6 DUP2 MSTORE DUP4 DUP4 KECCAK256 SWAP2 DUP4 MSTORE MSTORE SWAP1 DUP2 KECCAK256 SSTORE JUMP JUMPDEST PUSH1 0x8 SLOAD PUSH1 0x0 SWAP1 PUSH2 0x342F SWAP1 PUSH1 0x1 SWAP1 PUSH2 0x3F59 JUMP JUMPDEST PUSH1 0x0 DUP4 DUP2 MSTORE PUSH1 0x9 PUSH1 0x20 MSTORE PUSH1 0x40 DUP2 KECCAK256 SLOAD PUSH1 0x8 DUP1 SLOAD SWAP4 SWAP5 POP SWAP1 SWAP3 DUP5 SWAP1 DUP2 LT PUSH2 0x3457 JUMPI PUSH2 0x3457 PUSH2 0x3DAB JUMP JUMPDEST SWAP1 PUSH1 0x0 MSTORE PUSH1 0x20 PUSH1 0x0 KECCAK256 ADD SLOAD SWAP1 POP DUP1 PUSH1 0x8 DUP4 DUP2 SLOAD DUP2 LT PUSH2 0x3478 JUMPI PUSH2 0x3478 PUSH2 0x3DAB JUMP JUMPDEST PUSH1 0x0 SWAP2 DUP3 MSTORE PUSH1 0x20 DUP1 DUP4 KECCAK256 SWAP1 SWAP2 ADD SWAP3 SWAP1 SWAP3 SSTORE DUP3 DUP2 MSTORE PUSH1 0x9 SWAP1 SWAP2 MSTORE PUSH1 0x40 DUP1 DUP3 KECCAK256 DUP5 SWAP1 SSTORE DUP6 DUP3 MSTORE DUP2 KECCAK256 SSTORE PUSH1 0x8 DUP1 SLOAD DUP1 PUSH2 0x34B0 JUMPI PUSH2 0x34B0 PUSH2 0x41AC JUMP JUMPDEST PUSH1 0x1 SWAP1 SUB DUP2 DUP2 SWAP1 PUSH1 0x0 MSTORE PUSH1 0x20 PUSH1 0x0 KECCAK256 ADD PUSH1 0x0 SWAP1 SSTORE SWAP1 SSTORE POP POP POP POP JUMP JUMPDEST PUSH1 0x0 PUSH2 0x34D7 DUP4 PUSH2 0x11EC JUMP JUMPDEST PUSH1 0x1 PUSH1 0x1 PUSH1 0xA0 SHL SUB SWAP1 SWAP4 AND PUSH1 0x0 SWAP1 DUP2 MSTORE PUSH1 0x6 PUSH1 0x20 SWAP1 DUP2 MSTORE PUSH1 0x40 DUP1 DUP4 KECCAK256 DUP7 DUP5 MSTORE DUP3 MSTORE DUP1 DUP4 KECCAK256 DUP6 SWAP1 SSTORE SWAP4 DUP3 MSTORE PUSH1 0x7 SWAP1 MSTORE SWAP2 SWAP1 SWAP2 KECCAK256 SWAP2 SWAP1 SWAP2 SSTORE POP JUMP JUMPDEST PUSH1 0x0 DUP1 PUSH19 0x184F03E93FF9F4DAA797ED6E38ED64BF6A1F01 PUSH1 0x40 SHL DUP4 LT PUSH2 0x354F JUMPI PUSH19 0x184F03E93FF9F4DAA797ED6E38ED64BF6A1F01 PUSH1 0x40 SHL DUP4 DIV SWAP3 POP PUSH1 0x40 ADD JUMPDEST PUSH14 0x4EE2D6D415B85ACEF8100000000 DUP4 LT PUSH2 0x357B JUMPI PUSH14 0x4EE2D6D415B85ACEF8100000000 DUP4 DIV SWAP3 POP PUSH1 0x20 ADD JUMPDEST PUSH7 0x2386F26FC10000 DUP4 LT PUSH2 0x3599 JUMPI PUSH7 0x2386F26FC10000 DUP4 DIV SWAP3 POP PUSH1 0x10 ADD JUMPDEST PUSH4 0x5F5E100 DUP4 LT PUSH2 0x35B1 JUMPI PUSH4 0x5F5E100 DUP4 DIV SWAP3 POP PUSH1 0x8 ADD JUMPDEST PUSH2 0x2710 DUP4 LT PUSH2 0x35C5 JUMPI PUSH2 0x2710 DUP4 DIV SWAP3 POP PUSH1 0x4 ADD JUMPDEST PUSH1 0x64 DUP4 LT PUSH2 0x35D7 JUMPI PUSH1 0x64 DUP4 DIV SWAP3 POP PUSH1 0x2 ADD JUMPDEST PUSH1 0xA DUP4 LT PUSH2 0x588 JUMPI PUSH1 0x1 ADD SWAP3 SWAP2 POP POP JUMP JUMPDEST POP DUP1 SLOAD PUSH2 0x35F4 SWAP1 PUSH2 0x3D24 JUMP JUMPDEST PUSH1 0x0 DUP3 SSTORE DUP1 PUSH1 0x1F LT PUSH2 0x3604 JUMPI POP POP JUMP JUMPDEST PUSH1 0x1F ADD PUSH1 0x20 SWAP1 DIV SWAP1 PUSH1 0x0 MSTORE PUSH1 0x20 PUSH1 0x0 KECCAK256 SWAP1 DUP2 ADD SWAP1 PUSH2 0xEFA SWAP2 SWAP1 JUMPDEST DUP1 DUP3 GT ISZERO PUSH2 0x3632 JUMPI PUSH1 0x0 DUP2 SSTORE PUSH1 0x1 ADD PUSH2 0x361E JUMP JUMPDEST POP SWAP1 JUMP JUMPDEST PUSH1 0x1 PUSH1 0x1 PUSH1 0xE0 SHL SUB NOT DUP2 AND DUP2 EQ PUSH2 0xEFA JUMPI PUSH1 0x0 DUP1 REVERT JUMPDEST PUSH1 0x0 PUSH1 0x20 DUP3 DUP5 SUB SLT ISZERO PUSH2 0x365E JUMPI PUSH1 0x0 DUP1 REVERT JUMPDEST DUP2 CALLDATALOAD PUSH2 0x2F2E DUP2 PUSH2 0x3636 JUMP JUMPDEST PUSH1 0x0 JUMPDEST DUP4 DUP2 LT ISZERO PUSH2 0x3684 JUMPI DUP2 DUP2 ADD MLOAD DUP4 DUP3 ADD MSTORE PUSH1 0x20 ADD PUSH2 0x366C JUMP JUMPDEST POP POP PUSH1 0x0 SWAP2 ADD MSTORE JUMP JUMPDEST PUSH1 0x0 DUP2 MLOAD DUP1 DUP5 MSTORE PUSH2 0x36A5 DUP2 PUSH1 0x20 DUP7 ADD PUSH1 0x20 DUP7 ADD PUSH2 0x3669 JUMP JUMPDEST PUSH1 0x1F ADD PUSH1 0x1F NOT AND SWAP3 SWAP1 SWAP3 ADD PUSH1 0x20 ADD SWAP3 SWAP2 POP POP JUMP JUMPDEST PUSH1 0x20 DUP2 MSTORE PUSH1 0x0 PUSH2 0x2F2E PUSH1 0x20 DUP4 ADD DUP5 PUSH2 0x368D JUMP JUMPDEST PUSH1 0x0 PUSH1 0x20 DUP3 DUP5 SUB SLT ISZERO PUSH2 0x36DE JUMPI PUSH1 0x0 DUP1 REVERT JUMPDEST POP CALLDATALOAD SWAP2 SWAP1 POP JUMP JUMPDEST DUP1 CALLDATALOAD PUSH1 0x1 PUSH1 0x1 PUSH1 0xA0 SHL SUB DUP2 AND DUP2 EQ PUSH2 0x36FC JUMPI PUSH1 0x0 DUP1 REVERT JUMPDEST SWAP2 SWAP1 POP JUMP JUMPDEST PUSH1 0x0 DUP1 PUSH1 0x40 DUP4 DUP6 SUB SLT ISZERO PUSH2 0x3714 JUMPI PUSH1 0x0 DUP1 REVERT JUMPDEST PUSH2 0x371D DUP4 PUSH2 0x36E5 JUMP JUMPDEST SWAP5 PUSH1 0x20 SWAP4 SWAP1 SWAP4 ADD CALLDATALOAD SWAP4 POP POP POP JUMP JUMPDEST PUSH4 0x4E487B71 PUSH1 0xE0 SHL PUSH1 0x0 MSTORE PUSH1 0x41 PUSH1 0x4 MSTORE PUSH1 0x24 PUSH1 0x0 REVERT JUMPDEST PUSH1 0x40 DUP1 MLOAD SWAP1 DUP2 ADD PUSH1 0x1 PUSH1 0x1 PUSH1 0x40 SHL SUB DUP2 GT DUP3 DUP3 LT OR ISZERO PUSH2 0x3763 JUMPI PUSH2 0x3763 PUSH2 0x372B JUMP JUMPDEST PUSH1 0x40 MSTORE SWAP1 JUMP JUMPDEST PUSH1 0x40 MLOAD PUSH1 0x60 DUP2 ADD PUSH1 0x1 PUSH1 0x1 PUSH1 0x40 SHL SUB DUP2 GT DUP3 DUP3 LT OR ISZERO PUSH2 0x3763 JUMPI PUSH2 0x3763 PUSH2 0x372B JUMP JUMPDEST PUSH1 0x40 MLOAD PUSH1 0x1F DUP3 ADD PUSH1 0x1F NOT AND DUP2 ADD PUSH1 0x1 PUSH1 0x1 PUSH1 0x40 SHL SUB DUP2 GT DUP3 DUP3 LT OR ISZERO PUSH2 0x37B3 JUMPI PUSH2 0x37B3 PUSH2 0x372B JUMP JUMPDEST PUSH1 0x40 MSTORE SWAP2 SWAP1 POP JUMP JUMPDEST PUSH1 0x0 PUSH1 0x1 PUSH1 0x1 PUSH1 0x40 SHL SUB DUP3 GT ISZERO PUSH2 0x37D4 JUMPI PUSH2 0x37D4 PUSH2 0x372B JUMP JUMPDEST POP PUSH1 0x5 SHL PUSH1 0x20 ADD SWAP1 JUMP JUMPDEST PUSH1 0x0 PUSH1 0x20 DUP1 DUP4 DUP6 SUB SLT ISZERO PUSH2 0x37F1 JUMPI PUSH1 0x0 DUP1 REVERT JUMPDEST DUP3 CALLDATALOAD PUSH1 0x1 PUSH1 0x1 PUSH1 0x40 SHL SUB DUP2 GT ISZERO PUSH2 0x3807 JUMPI PUSH1 0x0 DUP1 REVERT JUMPDEST DUP4 ADD PUSH1 0x1F DUP2 ADD DUP6 SGT PUSH2 0x3818 JUMPI PUSH1 0x0 DUP1 REVERT JUMPDEST DUP1 CALLDATALOAD PUSH2 0x382B PUSH2 0x3826 DUP3 PUSH2 0x37BB JUMP JUMPDEST PUSH2 0x378B JUMP JUMPDEST DUP2 DUP2 MSTORE PUSH1 0x5 SWAP2 SWAP1 SWAP2 SHL DUP3 ADD DUP4 ADD SWAP1 DUP4 DUP2 ADD SWAP1 DUP8 DUP4 GT ISZERO PUSH2 0x384A JUMPI PUSH1 0x0 DUP1 REVERT JUMPDEST SWAP3 DUP5 ADD SWAP3 JUMPDEST DUP3 DUP5 LT ISZERO PUSH2 0x3868 JUMPI DUP4 CALLDATALOAD DUP3 MSTORE SWAP3 DUP5 ADD SWAP3 SWAP1 DUP5 ADD SWAP1 PUSH2 0x384F JUMP JUMPDEST SWAP8 SWAP7 POP POP POP POP POP POP POP JUMP JUMPDEST PUSH1 0x0 DUP1 PUSH1 0x0 PUSH1 0x60 DUP5 DUP7 SUB SLT ISZERO PUSH2 0x3888 JUMPI PUSH1 0x0 DUP1 REVERT JUMPDEST PUSH2 0x3891 DUP5 PUSH2 0x36E5 JUMP JUMPDEST SWAP3 POP PUSH2 0x389F PUSH1 0x20 DUP6 ADD PUSH2 0x36E5 JUMP JUMPDEST SWAP2 POP PUSH1 0x40 DUP5 ADD CALLDATALOAD SWAP1 POP SWAP3 POP SWAP3 POP SWAP3 JUMP JUMPDEST PUSH1 0x0 PUSH1 0x20 DUP3 DUP5 SUB SLT ISZERO PUSH2 0x38C1 JUMPI PUSH1 0x0 DUP1 REVERT JUMPDEST PUSH2 0x2F2E DUP3 PUSH2 0x36E5 JUMP JUMPDEST PUSH1 0x0 PUSH1 0x20 DUP1 DUP4 ADD DUP2 DUP5 MSTORE DUP1 DUP6 MLOAD DUP1 DUP4 MSTORE PUSH1 0x40 SWAP3 POP DUP3 DUP7 ADD SWAP2 POP DUP3 DUP2 PUSH1 0x5 SHL DUP8 ADD ADD DUP5 DUP9 ADD PUSH1 0x0 JUMPDEST DUP4 DUP2 LT ISZERO PUSH2 0x3932 JUMPI DUP9 DUP4 SUB PUSH1 0x3F NOT ADD DUP6 MSTORE DUP2 MLOAD DUP1 MLOAD DUP8 DUP6 MSTORE PUSH2 0x3915 DUP9 DUP7 ADD DUP3 PUSH2 0x368D JUMP JUMPDEST SWAP2 DUP10 ADD MLOAD SWAP5 DUP10 ADD SWAP5 SWAP1 SWAP5 MSTORE SWAP5 DUP8 ADD SWAP5 SWAP3 POP SWAP1 DUP7 ADD SWAP1 PUSH1 0x1 ADD PUSH2 0x38F1 JUMP JUMPDEST POP SWAP1 SWAP9 SWAP8 POP POP POP POP POP POP POP POP JUMP JUMPDEST PUSH1 0x0 DUP1 PUSH1 0x0 PUSH1 0x60 DUP5 DUP7 SUB SLT ISZERO PUSH2 0x3955 JUMPI PUSH1 0x0 DUP1 REVERT JUMPDEST DUP4 CALLDATALOAD PUSH1 0x3 DUP2 LT PUSH2 0x3891 JUMPI PUSH1 0x0 DUP1 REVERT JUMPDEST PUSH1 0x0 DUP1 PUSH1 0x0 PUSH1 0x60 DUP5 DUP7 SUB SLT ISZERO PUSH2 0x3979 JUMPI PUSH1 0x0 DUP1 REVERT JUMPDEST POP POP DUP2 CALLDATALOAD SWAP4 PUSH1 0x20 DUP4 ADD CALLDATALOAD SWAP4 POP PUSH1 0x40 SWAP1 SWAP3 ADD CALLDATALOAD SWAP2 SWAP1 POP JUMP JUMPDEST PUSH1 0x0 DUP1 PUSH1 0x40 DUP4 DUP6 SUB SLT ISZERO PUSH2 0x39A3 JUMPI PUSH1 0x0 DUP1 REVERT JUMPDEST PUSH2 0x39AC DUP4 PUSH2 0x36E5 JUMP JUMPDEST SWAP2 POP PUSH1 0x20 DUP4 ADD CALLDATALOAD DUP1 ISZERO ISZERO DUP2 EQ PUSH2 0x39C1 JUMPI PUSH1 0x0 DUP1 REVERT JUMPDEST DUP1 SWAP2 POP POP SWAP3 POP SWAP3 SWAP1 POP JUMP JUMPDEST PUSH1 0x0 PUSH1 0x1 PUSH1 0x1 PUSH1 0x40 SHL SUB DUP4 GT ISZERO PUSH2 0x39E5 JUMPI PUSH2 0x39E5 PUSH2 0x372B JUMP JUMPDEST PUSH2 0x39F8 PUSH1 0x1F DUP5 ADD PUSH1 0x1F NOT AND PUSH1 0x20 ADD PUSH2 0x378B JUMP JUMPDEST SWAP1 POP DUP3 DUP2 MSTORE DUP4 DUP4 DUP4 ADD GT ISZERO PUSH2 0x3A0C JUMPI PUSH1 0x0 DUP1 REVERT JUMPDEST DUP3 DUP3 PUSH1 0x20 DUP4 ADD CALLDATACOPY PUSH1 0x0 PUSH1 0x20 DUP5 DUP4 ADD ADD MSTORE SWAP4 SWAP3 POP POP POP JUMP JUMPDEST PUSH1 0x0 DUP3 PUSH1 0x1F DUP4 ADD SLT PUSH2 0x3A34 JUMPI PUSH1 0x0 DUP1 REVERT JUMPDEST PUSH2 0x2F2E DUP4 DUP4 CALLDATALOAD PUSH1 0x20 DUP6 ADD PUSH2 0x39CC JUMP JUMPDEST PUSH1 0x0 PUSH1 0x20 DUP1 DUP4 DUP6 SUB SLT ISZERO PUSH2 0x3A56 JUMPI PUSH1 0x0 DUP1 REVERT JUMPDEST DUP3 CALLDATALOAD PUSH1 0x1 PUSH1 0x1 PUSH1 0x40 SHL SUB DUP1 DUP3 GT ISZERO PUSH2 0x3A6D JUMPI PUSH1 0x0 DUP1 REVERT JUMPDEST DUP2 DUP6 ADD SWAP2 POP DUP6 PUSH1 0x1F DUP4 ADD SLT PUSH2 0x3A81 JUMPI PUSH1 0x0 DUP1 REVERT JUMPDEST DUP2 CALLDATALOAD PUSH2 0x3A8F PUSH2 0x3826 DUP3 PUSH2 0x37BB JUMP JUMPDEST DUP2 DUP2 MSTORE PUSH1 0x5 SWAP2 SWAP1 SWAP2 SHL DUP4 ADD DUP5 ADD SWAP1 DUP5 DUP2 ADD SWAP1 DUP9 DUP4 GT ISZERO PUSH2 0x3AAE JUMPI PUSH1 0x0 DUP1 REVERT JUMPDEST DUP6 DUP6 ADD JUMPDEST DUP4 DUP2 LT ISZERO PUSH2 0x3B21 JUMPI DUP1 CALLDATALOAD DUP6 DUP2 GT ISZERO PUSH2 0x3ACA JUMPI PUSH1 0x0 DUP1 DUP2 REVERT JUMPDEST DUP7 ADD PUSH1 0x40 DUP2 DUP13 SUB PUSH1 0x1F NOT ADD DUP2 SGT ISZERO PUSH2 0x3AE2 JUMPI PUSH1 0x0 DUP1 DUP2 REVERT JUMPDEST PUSH2 0x3AEA PUSH2 0x3741 JUMP JUMPDEST DUP10 DUP4 ADD CALLDATALOAD DUP9 DUP2 GT ISZERO PUSH2 0x3AFC JUMPI PUSH1 0x0 DUP1 DUP2 REVERT JUMPDEST PUSH2 0x3B0A DUP15 DUP13 DUP4 DUP8 ADD ADD PUSH2 0x3A23 JUMP JUMPDEST DUP3 MSTORE POP SWAP2 ADD CALLDATALOAD DUP9 DUP3 ADD MSTORE DUP4 MSTORE SWAP2 DUP7 ADD SWAP2 DUP7 ADD PUSH2 0x3AB2 JUMP JUMPDEST POP SWAP9 SWAP8 POP POP POP POP POP POP POP POP JUMP JUMPDEST PUSH1 0x0 DUP1 PUSH1 0x0 DUP1 PUSH1 0x80 DUP6 DUP8 SUB SLT ISZERO PUSH2 0x3B44 JUMPI PUSH1 0x0 DUP1 REVERT JUMPDEST PUSH2 0x3B4D DUP6 PUSH2 0x36E5 JUMP JUMPDEST SWAP4 POP PUSH2 0x3B5B PUSH1 0x20 DUP7 ADD PUSH2 0x36E5 JUMP JUMPDEST SWAP3 POP PUSH1 0x40 DUP6 ADD CALLDATALOAD SWAP2 POP PUSH1 0x60 DUP6 ADD CALLDATALOAD PUSH1 0x1 PUSH1 0x1 PUSH1 0x40 SHL SUB DUP2 GT ISZERO PUSH2 0x3B7D JUMPI PUSH1 0x0 DUP1 REVERT JUMPDEST DUP6 ADD PUSH1 0x1F DUP2 ADD DUP8 SGT PUSH2 0x3B8E JUMPI PUSH1 0x0 DUP1 REVERT JUMPDEST PUSH2 0x3B9D DUP8 DUP3 CALLDATALOAD PUSH1 0x20 DUP5 ADD PUSH2 0x39CC JUMP JUMPDEST SWAP2 POP POP SWAP3 SWAP6 SWAP2 SWAP5 POP SWAP3 POP JUMP JUMPDEST PUSH1 0x0 DUP1 PUSH1 0x0 PUSH1 0x60 DUP5 DUP7 SUB SLT ISZERO PUSH2 0x3BBE JUMPI PUSH1 0x0 DUP1 REVERT JUMPDEST PUSH2 0x3BC7 DUP5 PUSH2 0x36E5 JUMP JUMPDEST SWAP3 POP PUSH1 0x20 DUP5 ADD CALLDATALOAD PUSH1 0x1 PUSH1 0x1 PUSH1 0x40 SHL SUB DUP2 GT ISZERO PUSH2 0x3BE2 JUMPI PUSH1 0x0 DUP1 REVERT JUMPDEST PUSH2 0x3BEE DUP7 DUP3 DUP8 ADD PUSH2 0x3A23 JUMP JUMPDEST SWAP3 POP POP PUSH1 0x40 DUP5 ADD CALLDATALOAD SWAP1 POP SWAP3 POP SWAP3 POP SWAP3 JUMP JUMPDEST PUSH1 0x0 PUSH1 0x20 DUP1 DUP4 DUP6 SUB SLT ISZERO PUSH2 0x3C12 JUMPI PUSH1 0x0 DUP1 REVERT JUMPDEST DUP3 CALLDATALOAD PUSH1 0x1 PUSH1 0x1 PUSH1 0x40 SHL SUB DUP1 DUP3 GT ISZERO PUSH2 0x3C29 JUMPI PUSH1 0x0 DUP1 REVERT JUMPDEST DUP2 DUP6 ADD SWAP2 POP DUP6 PUSH1 0x1F DUP4 ADD SLT PUSH2 0x3C3D JUMPI PUSH1 0x0 DUP1 REVERT JUMPDEST DUP2 CALLDATALOAD PUSH2 0x3C4B PUSH2 0x3826 DUP3 PUSH2 0x37BB JUMP JUMPDEST DUP2 DUP2 MSTORE PUSH1 0x5 SWAP2 SWAP1 SWAP2 SHL DUP4 ADD DUP5 ADD SWAP1 DUP5 DUP2 ADD SWAP1 DUP9 DUP4 GT ISZERO PUSH2 0x3C6A JUMPI PUSH1 0x0 DUP1 REVERT JUMPDEST DUP6 DUP6 ADD JUMPDEST DUP4 DUP2 LT ISZERO PUSH2 0x3B21 JUMPI DUP1 CALLDATALOAD DUP6 DUP2 GT ISZERO PUSH2 0x3C86 JUMPI PUSH1 0x0 DUP1 DUP2 REVERT JUMPDEST DUP7 ADD PUSH1 0x60 DUP2 DUP13 SUB PUSH1 0x1F NOT ADD DUP2 SGT ISZERO PUSH2 0x3C9E JUMPI PUSH1 0x0 DUP1 DUP2 REVERT JUMPDEST PUSH2 0x3CA6 PUSH2 0x3769 JUMP JUMPDEST PUSH2 0x3CB1 DUP11 DUP5 ADD PUSH2 0x36E5 JUMP JUMPDEST DUP2 MSTORE PUSH1 0x40 DUP4 DUP2 ADD CALLDATALOAD DUP12 DUP4 ADD MSTORE SWAP2 DUP4 ADD CALLDATALOAD SWAP2 DUP9 DUP4 GT ISZERO PUSH2 0x3CD0 JUMPI PUSH1 0x0 DUP1 DUP2 REVERT JUMPDEST PUSH2 0x3CDE DUP15 DUP13 DUP6 DUP8 ADD ADD PUSH2 0x3A23 JUMP JUMPDEST SWAP1 DUP3 ADD MSTORE DUP6 MSTORE POP POP SWAP2 DUP7 ADD SWAP2 DUP7 ADD PUSH2 0x3C6E JUMP JUMPDEST PUSH1 0x0 DUP1 PUSH1 0x40 DUP4 DUP6 SUB SLT ISZERO PUSH2 0x3D04 JUMPI PUSH1 0x0 DUP1 REVERT JUMPDEST PUSH2 0x3D0D DUP4 PUSH2 0x36E5 JUMP JUMPDEST SWAP2 POP PUSH2 0x3D1B PUSH1 0x20 DUP5 ADD PUSH2 0x36E5 JUMP JUMPDEST SWAP1 POP SWAP3 POP SWAP3 SWAP1 POP JUMP JUMPDEST PUSH1 0x1 DUP2 DUP2 SHR SWAP1 DUP3 AND DUP1 PUSH2 0x3D38 JUMPI PUSH1 0x7F DUP3 AND SWAP2 POP JUMPDEST PUSH1 0x20 DUP3 LT DUP2 SUB PUSH2 0x3D58 JUMPI PUSH4 0x4E487B71 PUSH1 0xE0 SHL PUSH1 0x0 MSTORE PUSH1 0x22 PUSH1 0x4 MSTORE PUSH1 0x24 PUSH1 0x0 REVERT JUMPDEST POP SWAP2 SWAP1 POP JUMP JUMPDEST PUSH1 0x20 DUP1 DUP3 MSTORE PUSH1 0x2D SWAP1 DUP3 ADD MSTORE PUSH32 0x4552433732313A2063616C6C6572206973206E6F7420746F6B656E206F776E65 PUSH1 0x40 DUP3 ADD MSTORE PUSH13 0x1C881BDC88185C1C1C9BDD9959 PUSH1 0x9A SHL PUSH1 0x60 DUP3 ADD MSTORE PUSH1 0x80 ADD SWAP1 JUMP JUMPDEST PUSH4 0x4E487B71 PUSH1 0xE0 SHL PUSH1 0x0 MSTORE PUSH1 0x32 PUSH1 0x4 MSTORE PUSH1 0x24 PUSH1 0x0 REVERT JUMPDEST PUSH4 0x4E487B71 PUSH1 0xE0 SHL PUSH1 0x0 MSTORE PUSH1 0x11 PUSH1 0x4 MSTORE PUSH1 0x24 PUSH1 0x0 REVERT JUMPDEST PUSH1 0x0 PUSH1 0x1 DUP3 ADD PUSH2 0x3DE9 JUMPI PUSH2 0x3DE9 PUSH2 0x3DC1 JUMP JUMPDEST POP PUSH1 0x1 ADD SWAP1 JUMP JUMPDEST PUSH4 0x4E487B71 PUSH1 0xE0 SHL PUSH1 0x0 MSTORE PUSH1 0x21 PUSH1 0x4 MSTORE PUSH1 0x24 PUSH1 0x0 REVERT JUMPDEST PUSH1 0x20 DUP2 ADD PUSH1 0x3 DUP4 LT PUSH2 0x3E28 JUMPI PUSH4 0x4E487B71 PUSH1 0xE0 SHL PUSH1 0x0 MSTORE PUSH1 0x21 PUSH1 0x4 MSTORE PUSH1 0x24 PUSH1 0x0 REVERT JUMPDEST SWAP2 SWAP1 MSTORE SWAP1 JUMP JUMPDEST PUSH1 0x20 DUP1 DUP3 MSTORE PUSH1 0x35 SWAP1 DUP3 ADD MSTORE PUSH32 0x5265736572766564206C696D69742063616E6E6F742065786365656420746865 PUSH1 0x40 DUP3 ADD MSTORE PUSH21 0x81D5CD95C89DCC81B5A5B9D1A5B99C81B1A5B5A5D PUSH1 0x5A SHL PUSH1 0x60 DUP3 ADD MSTORE PUSH1 0x80 ADD SWAP1 JUMP JUMPDEST PUSH1 0x20 DUP1 DUP3 MSTORE PUSH1 0x1A SWAP1 DUP3 ADD MSTORE PUSH32 0x5573657220526567697374726174696F6E205265717569726564000000000000 PUSH1 0x40 DUP3 ADD MSTORE PUSH1 0x60 ADD SWAP1 JUMP JUMPDEST PUSH1 0x20 DUP1 DUP3 MSTORE PUSH1 0x22 SWAP1 DUP3 ADD MSTORE PUSH32 0x5068617365206D696E74206C696D697420686173206265656E20657863656564 PUSH1 0x40 DUP3 ADD MSTORE PUSH2 0x1959 PUSH1 0xF2 SHL PUSH1 0x60 DUP3 ADD MSTORE PUSH1 0x80 ADD SWAP1 JUMP JUMPDEST PUSH1 0x20 DUP1 DUP3 MSTORE PUSH1 0x26 SWAP1 DUP3 ADD MSTORE PUSH32 0x566572696669636174696F6E20526571756972656420666F72205072656D6975 PUSH1 0x40 DUP3 ADD MSTORE PUSH6 0x36902AB9B2B9 PUSH1 0xD1 SHL PUSH1 0x60 DUP3 ADD MSTORE PUSH1 0x80 ADD SWAP1 JUMP JUMPDEST PUSH1 0x0 DUP2 PUSH2 0x3F51 JUMPI PUSH2 0x3F51 PUSH2 0x3DC1 JUMP JUMPDEST POP PUSH1 0x0 NOT ADD SWAP1 JUMP JUMPDEST DUP2 DUP2 SUB DUP2 DUP2 GT ISZERO PUSH2 0x588 JUMPI PUSH2 0x588 PUSH2 0x3DC1 JUMP JUMPDEST DUP1 DUP3 ADD DUP1 DUP3 GT ISZERO PUSH2 0x588 JUMPI PUSH2 0x588 PUSH2 0x3DC1 JUMP JUMPDEST PUSH1 0x20 DUP1 DUP3 MSTORE PUSH1 0x25 SWAP1 DUP3 ADD MSTORE PUSH32 0x4552433732313A207472616E736665722066726F6D20696E636F727265637420 PUSH1 0x40 DUP3 ADD MSTORE PUSH5 0x37BBB732B9 PUSH1 0xD9 SHL PUSH1 0x60 DUP3 ADD MSTORE PUSH1 0x80 ADD SWAP1 JUMP JUMPDEST PUSH1 0x1F DUP3 GT ISZERO PUSH2 0x75C JUMPI PUSH1 0x0 DUP2 DUP2 MSTORE PUSH1 0x20 DUP2 KECCAK256 PUSH1 0x1F DUP6 ADD PUSH1 0x5 SHR DUP2 ADD PUSH1 0x20 DUP7 LT ISZERO PUSH2 0x3FEB JUMPI POP DUP1 JUMPDEST PUSH1 0x1F DUP6 ADD PUSH1 0x5 SHR DUP3 ADD SWAP2 POP JUMPDEST DUP2 DUP2 LT ISZERO PUSH2 0x400A JUMPI DUP3 DUP2 SSTORE PUSH1 0x1 ADD PUSH2 0x3FF7 JUMP JUMPDEST POP POP POP POP POP POP JUMP JUMPDEST DUP2 MLOAD PUSH1 0x1 PUSH1 0x1 PUSH1 0x40 SHL SUB DUP2 GT ISZERO PUSH2 0x402B JUMPI PUSH2 0x402B PUSH2 0x372B JUMP JUMPDEST PUSH2 0x403F DUP2 PUSH2 0x4039 DUP5 SLOAD PUSH2 0x3D24 JUMP JUMPDEST DUP5 PUSH2 0x3FC4 JUMP JUMPDEST PUSH1 0x20 DUP1 PUSH1 0x1F DUP4 GT PUSH1 0x1 DUP2 EQ PUSH2 0x4074 JUMPI PUSH1 0x0 DUP5 ISZERO PUSH2 0x405C JUMPI POP DUP6 DUP4 ADD MLOAD JUMPDEST PUSH1 0x0 NOT PUSH1 0x3 DUP7 SWAP1 SHL SHR NOT AND PUSH1 0x1 DUP6 SWAP1 SHL OR DUP6 SSTORE PUSH2 0x400A JUMP JUMPDEST PUSH1 0x0 DUP6 DUP2 MSTORE PUSH1 0x20 DUP2 KECCAK256 PUSH1 0x1F NOT DUP7 AND SWAP2 JUMPDEST DUP3 DUP2 LT ISZERO PUSH2 0x40A3 JUMPI DUP9 DUP7 ADD MLOAD DUP3 SSTORE SWAP5 DUP5 ADD SWAP5 PUSH1 0x1 SWAP1 SWAP2 ADD SWAP1 DUP5 ADD PUSH2 0x4084 JUMP JUMPDEST POP DUP6 DUP3 LT ISZERO PUSH2 0x40C1 JUMPI DUP8 DUP6 ADD MLOAD PUSH1 0x0 NOT PUSH1 0x3 DUP9 SWAP1 SHL PUSH1 0xF8 AND SHR NOT AND DUP2 SSTORE JUMPDEST POP POP POP POP POP PUSH1 0x1 SWAP1 DUP2 SHL ADD SWAP1 SSTORE POP JUMP JUMPDEST PUSH1 0x20 DUP1 DUP3 MSTORE PUSH1 0x32 SWAP1 DUP3 ADD MSTORE PUSH32 0x4552433732313A207472616E7366657220746F206E6F6E204552433732315265 PUSH1 0x40 DUP3 ADD MSTORE PUSH18 0x31B2B4BB32B91034B6B83632B6B2B73A32B9 PUSH1 0x71 SHL PUSH1 0x60 DUP3 ADD MSTORE PUSH1 0x80 ADD SWAP1 JUMP JUMPDEST PUSH1 0x0 DUP4 MLOAD PUSH2 0x4135 DUP2 DUP5 PUSH1 0x20 DUP9 ADD PUSH2 0x3669 JUMP JUMPDEST DUP4 MLOAD SWAP1 DUP4 ADD SWAP1 PUSH2 0x4149 DUP2 DUP4 PUSH1 0x20 DUP9 ADD PUSH2 0x3669 JUMP JUMPDEST ADD SWAP5 SWAP4 POP POP POP POP JUMP JUMPDEST PUSH1 0x1 PUSH1 0x1 PUSH1 0xA0 SHL SUB DUP6 DUP2 AND DUP3 MSTORE DUP5 AND PUSH1 0x20 DUP3 ADD MSTORE PUSH1 0x40 DUP2 ADD DUP4 SWAP1 MSTORE PUSH1 0x80 PUSH1 0x60 DUP3 ADD DUP2 SWAP1 MSTORE PUSH1 0x0 SWAP1 PUSH2 0x4185 SWAP1 DUP4 ADD DUP5 PUSH2 0x368D JUMP JUMPDEST SWAP7 SWAP6 POP POP POP POP POP POP JUMP JUMPDEST PUSH1 0x0 PUSH1 0x20 DUP3 DUP5 SUB SLT ISZERO PUSH2 0x41A1 JUMPI PUSH1 0x0 DUP1 REVERT JUMPDEST DUP2 MLOAD PUSH2 0x2F2E DUP2 PUSH2 0x3636 JUMP JUMPDEST PUSH4 0x4E487B71 PUSH1 0xE0 SHL PUSH1 0x0 MSTORE PUSH1 0x31 PUSH1 0x4 MSTORE PUSH1 0x24 PUSH1 0x0 REVERT INVALID TIMESTAMP PUSH22 0x6C6B204172726179204C656E677468206D7573742062 PUSH6 0x20756E646572 KECCAK256 LOG2 PUSH5 0x6970667358 0x22 SLT KECCAK256 0xC PUSH25 0x633C2344BA4EF3011CAFBE34FDE22DDAFB169FF06B6DC5EC8D 0xD1 DUP12 0xBC 0xD0 LOG1 PUSH5 0x736F6C6343 STOP ADDMOD SLT STOP CALLER "
		},
		"gasEstimates": {
			"creation": {
				"codeDepositCost": "3384000",
				"executionCost": "infinite",
				"totalCost": "infinite"
			},
			"external": {
				"AdminMint((address,uint256,string)[])": "infinite",
				"FetchNFTS(address)": "infinite",
				"MaxMinting()": "2381",
				"MerkleTree(bytes32[])": "infinite",
				"PlatformMinting()": "2425",
				"RegisterUser(uint8,address,uint256)": "101837",
				"UpdateReservedLimit(uint256)": "40895",
				"UserMinting()": "2358",
				"VerifyPermiumUser(address)": "33567",
				"activePhase()": "41749",
				"allowTransfer()": "28739",
				"approve(address,uint256)": "infinite",
				"balanceOf(address)": "2635",
				"burn(uint256)": "infinite",
				"createPhase(uint256,uint256,uint256)": "98750",
				"deactivatePhase()": "65937",
				"getApproved(uint256)": "4815",
				"isApprovedForAll(address,address)": "infinite",
				"mintBulkNfts((address,uint256,string)[])": "infinite",
				"name()": "infinite",
				"owner()": "2454",
				"ownerOf(uint256)": "2693",
				"pause()": "infinite",
				"paused()": "2426",
				"renounceOwnership()": "infinite",
				"restrictTransfer()": "28796",
				"root()": "2427",
				"safeMint(address,string,uint256)": "infinite",
				"safeTransferFrom(address,address,uint256)": "infinite",
				"safeTransferFrom(address,address,uint256,bytes)": "infinite",
				"setApprovalForAll(address,bool)": "26772",
				"supportsInterface(bytes4)": "infinite",
				"symbol()": "infinite",
				"tokenByIndex(uint256)": "6826",
				"tokenOfOwnerByIndex(address,uint256)": "4998",
				"tokenURI(uint256)": "infinite",
				"totalSupply()": "2349",
				"transferFrom(address,address,uint256)": "infinite",
				"transferOwnership(address)": "28523",
				"unpause()": "infinite",
				"updateBulkNfts((string,uint256)[])": "infinite",
				"updateRoot(bytes32)": "22402",
				"updateUserGlobalLimit(address,uint256)": "30789"
			},
			"internal": {
				"_beforeTokenTransfer(address,address,uint256,uint256)": "infinite",
				"_burn(uint256)": "infinite",
				"_validateTokenId(uint256)": "infinite"
			}
		},
		"methodIdentifiers": {
			"AdminMint((address,uint256,string)[])": "d411a369",
			"FetchNFTS(address)": "24ba2c42",
			"MaxMinting()": "4d8c371c",
			"MerkleTree(bytes32[])": "0f2dda6f",
			"PlatformMinting()": "b67f2bf4",
			"RegisterUser(uint8,address,uint256)": "3a9c0e05",
			"UpdateReservedLimit(uint256)": "b9fd9267",
			"UserMinting()": "d3fd6432",
			"VerifyPermiumUser(address)": "baf9372e",
			"activePhase()": "0e1b26c6",
			"allowTransfer()": "9b08a22f",
			"approve(address,uint256)": "095ea7b3",
			"balanceOf(address)": "70a08231",
			"burn(uint256)": "42966c68",
			"createPhase(uint256,uint256,uint256)": "4592c43d",
			"deactivatePhase()": "2dc71012",
			"getApproved(uint256)": "081812fc",
			"isApprovedForAll(address,address)": "e985e9c5",
			"mintBulkNfts((address,uint256,string)[])": "d36d69a1",
			"name()": "06fdde03",
			"owner()": "8da5cb5b",
			"ownerOf(uint256)": "6352211e",
			"pause()": "8456cb59",
			"paused()": "5c975abb",
			"renounceOwnership()": "715018a6",
			"restrictTransfer()": "ceb5b638",
			"root()": "ebf0c717",
			"safeMint(address,string,uint256)": "c772745a",
			"safeTransferFrom(address,address,uint256)": "42842e0e",
			"safeTransferFrom(address,address,uint256,bytes)": "b88d4fde",
			"setApprovalForAll(address,bool)": "a22cb465",
			"supportsInterface(bytes4)": "01ffc9a7",
			"symbol()": "95d89b41",
			"tokenByIndex(uint256)": "4f6ccce7",
			"tokenOfOwnerByIndex(address,uint256)": "2f745c59",
			"tokenURI(uint256)": "c87b56dd",
			"totalSupply()": "18160ddd",
			"transferFrom(address,address,uint256)": "23b872dd",
			"transferOwnership(address)": "f2fde38b",
			"unpause()": "3f4ba83a",
			"updateBulkNfts((string,uint256)[])": "a8c21afe",
			"updateRoot(bytes32)": "21ff9970",
			"updateUserGlobalLimit(address,uint256)": "90e7d16c"
		}
	},
	"abi": [
		{
			"inputs": [
				{
					"internalType": "uint256",
					"name": "maxlim",
					"type": "uint256"
				},
				{
					"internalType": "uint256",
					"name": "platlim",
					"type": "uint256"
				},
				{
					"internalType": "bytes32",
					"name": "_root",
					"type": "bytes32"
				}
			],
			"stateMutability": "nonpayable",
			"type": "constructor"
		},
		{
			"anonymous": false,
			"inputs": [
				{
					"indexed": true,
					"internalType": "address",
					"name": "owner",
					"type": "address"
				},
				{
					"indexed": true,
					"internalType": "address",
					"name": "approved",
					"type": "address"
				},
				{
					"indexed": true,
					"internalType": "uint256",
					"name": "tokenId",
					"type": "uint256"
				}
			],
			"name": "Approval",
			"type": "event"
		},
		{
			"anonymous": false,
			"inputs": [
				{
					"indexed": true,
					"internalType": "address",
					"name": "owner",
					"type": "address"
				},
				{
					"indexed": true,
					"internalType": "address",
					"name": "operator",
					"type": "address"
				},
				{
					"indexed": false,
					"internalType": "bool",
					"name": "approved",
					"type": "bool"
				}
			],
			"name": "ApprovalForAll",
			"type": "event"
		},
		{
			"anonymous": false,
			"inputs": [
				{
					"indexed": false,
					"internalType": "uint256",
					"name": "_fromTokenId",
					"type": "uint256"
				},
				{
					"indexed": false,
					"internalType": "uint256",
					"name": "_toTokenId",
					"type": "uint256"
				}
			],
			"name": "BatchMetadataUpdate",
			"type": "event"
		},
		{
			"anonymous": false,
			"inputs": [
				{
					"indexed": true,
					"internalType": "address",
					"name": "userAddress",
					"type": "address"
				},
				{
					"indexed": false,
					"internalType": "uint256",
					"name": "newLimit",
					"type": "uint256"
				}
			],
			"name": "GlobalLimitUpdated",
			"type": "event"
		},
		{
			"anonymous": false,
			"inputs": [
				{
					"indexed": false,
					"internalType": "uint256",
					"name": "_tokenId",
					"type": "uint256"
				}
			],
			"name": "MetadataUpdate",
			"type": "event"
		},
		{
			"anonymous": false,
			"inputs": [
				{
					"indexed": true,
					"internalType": "address",
					"name": "previousOwner",
					"type": "address"
				},
				{
					"indexed": true,
					"internalType": "address",
					"name": "newOwner",
					"type": "address"
				}
			],
			"name": "OwnershipTransferred",
			"type": "event"
		},
		{
			"anonymous": false,
			"inputs": [
				{
					"indexed": false,
					"internalType": "address",
					"name": "account",
					"type": "address"
				}
			],
			"name": "Paused",
			"type": "event"
		},
		{
			"anonymous": false,
			"inputs": [
				{
					"indexed": false,
					"internalType": "uint256",
					"name": "phaseIndex",
					"type": "uint256"
				},
				{
					"indexed": false,
					"internalType": "uint256",
					"name": "reservedLimit",
					"type": "uint256"
				},
				{
					"indexed": false,
					"internalType": "uint256",
					"name": "permiumLimit",
					"type": "uint256"
				},
				{
					"indexed": false,
					"internalType": "uint256",
					"name": "normalLimit",
					"type": "uint256"
				}
			],
			"name": "PhaseCreated",
			"type": "event"
		},
		{
			"anonymous": false,
			"inputs": [
				{
					"indexed": false,
					"internalType": "uint256",
					"name": "phaseIndex",
					"type": "uint256"
				},
				{
					"indexed": false,
					"internalType": "uint256",
					"name": "newLimit",
					"type": "uint256"
				}
			],
			"name": "ReservedLimitUpdated",
			"type": "event"
		},
		{
			"anonymous": false,
			"inputs": [
				{
					"indexed": true,
					"internalType": "address",
					"name": "from",
					"type": "address"
				},
				{
					"indexed": true,
					"internalType": "address",
					"name": "to",
					"type": "address"
				},
				{
					"indexed": true,
					"internalType": "uint256",
					"name": "tokenId",
					"type": "uint256"
				}
			],
			"name": "Transfer",
			"type": "event"
		},
		{
			"anonymous": false,
			"inputs": [
				{
					"indexed": false,
					"internalType": "address",
					"name": "account",
					"type": "address"
				}
			],
			"name": "Unpaused",
			"type": "event"
		},
		{
			"anonymous": false,
			"inputs": [
				{
					"indexed": true,
					"internalType": "address",
					"name": "userAddress",
					"type": "address"
				},
				{
					"indexed": false,
					"internalType": "enum ROYALBWP.UserRole",
					"name": "userRole",
					"type": "uint8"
				}
			],
			"name": "UserRegistered",
			"type": "event"
		},
		{
			"inputs": [
				{
					"components": [
						{
							"internalType": "address",
							"name": "to",
							"type": "address"
						},
						{
							"internalType": "uint256",
							"name": "token_id",
							"type": "uint256"
						},
						{
							"internalType": "string",
							"name": "uri",
							"type": "string"
						}
					],
					"internalType": "struct ROYALBWP.NFTBatch[]",
					"name": "_nftsArray",
					"type": "tuple[]"
				}
			],
			"name": "AdminMint",
			"outputs": [],
			"stateMutability": "nonpayable",
			"type": "function"
		},
		{
			"inputs": [
				{
					"internalType": "address",
					"name": "add",
					"type": "address"
				}
			],
			"name": "FetchNFTS",
			"outputs": [
				{
					"components": [
						{
							"internalType": "string",
							"name": "Uri",
							"type": "string"
						},
						{
							"internalType": "uint256",
							"name": "token_id",
							"type": "uint256"
						}
					],
					"internalType": "struct ROYALBWP.NFTMetadata[]",
					"name": "_nftsArray",
					"type": "tuple[]"
				}
			],
			"stateMutability": "view",
			"type": "function"
		},
		{
			"inputs": [],
			"name": "MaxMinting",
			"outputs": [
				{
					"internalType": "uint256",
					"name": "",
					"type": "uint256"
				}
			],
			"stateMutability": "view",
			"type": "function"
		},
		{
			"inputs": [
				{
					"internalType": "bytes32[]",
					"name": "proof",
					"type": "bytes32[]"
				}
			],
			"name": "MerkleTree",
			"outputs": [
				{
					"internalType": "bool",
					"name": "",
					"type": "bool"
				}
			],
			"stateMutability": "view",
			"type": "function"
		},
		{
			"inputs": [],
			"name": "PlatformMinting",
			"outputs": [
				{
					"internalType": "uint256",
					"name": "",
					"type": "uint256"
				}
			],
			"stateMutability": "view",
			"type": "function"
		},
		{
			"inputs": [
				{
					"internalType": "enum ROYALBWP.UserRole",
					"name": "_userRole",
					"type": "uint8"
				},
				{
					"internalType": "address",
					"name": "_userAdd",
					"type": "address"
				},
				{
					"internalType": "uint256",
					"name": "_lim",
					"type": "uint256"
				}
			],
			"name": "RegisterUser",
			"outputs": [],
			"stateMutability": "nonpayable",
			"type": "function"
		},
		{
			"inputs": [
				{
					"internalType": "uint256",
					"name": "_lim",
					"type": "uint256"
				}
			],
			"name": "UpdateReservedLimit",
			"outputs": [],
			"stateMutability": "nonpayable",
			"type": "function"
		},
		{
			"inputs": [],
			"name": "UserMinting",
			"outputs": [
				{
					"internalType": "uint256",
					"name": "",
					"type": "uint256"
				}
			],
			"stateMutability": "view",
			"type": "function"
		},
		{
			"inputs": [
				{
					"internalType": "address",
					"name": "add",
					"type": "address"
				}
			],
			"name": "VerifyPermiumUser",
			"outputs": [],
			"stateMutability": "nonpayable",
			"type": "function"
		},
		{
			"inputs": [],
			"name": "activePhase",
			"outputs": [],
			"stateMutability": "nonpayable",
			"type": "function"
		},
		{
			"inputs": [],
			"name": "allowTransfer",
			"outputs": [],
			"stateMutability": "nonpayable",
			"type": "function"
		},
		{
			"inputs": [
				{
					"internalType": "address",
					"name": "to",
					"type": "address"
				},
				{
					"internalType": "uint256",
					"name": "tokenId",
					"type": "uint256"
				}
			],
			"name": "approve",
			"outputs": [],
			"stateMutability": "nonpayable",
			"type": "function"
		},
		{
			"inputs": [
				{
					"internalType": "address",
					"name": "owner",
					"type": "address"
				}
			],
			"name": "balanceOf",
			"outputs": [
				{
					"internalType": "uint256",
					"name": "",
					"type": "uint256"
				}
			],
			"stateMutability": "view",
			"type": "function"
		},
		{
			"inputs": [
				{
					"internalType": "uint256",
					"name": "tokenId",
					"type": "uint256"
				}
			],
			"name": "burn",
			"outputs": [],
			"stateMutability": "nonpayable",
			"type": "function"
		},
		{
			"inputs": [
				{
					"internalType": "uint256",
					"name": "_reservedLimit",
					"type": "uint256"
				},
				{
					"internalType": "uint256",
					"name": "_permiumLimit",
					"type": "uint256"
				},
				{
					"internalType": "uint256",
					"name": "_normalLimit",
					"type": "uint256"
				}
			],
			"name": "createPhase",
			"outputs": [],
			"stateMutability": "nonpayable",
			"type": "function"
		},
		{
			"inputs": [],
			"name": "deactivatePhase",
			"outputs": [],
			"stateMutability": "nonpayable",
			"type": "function"
		},
		{
			"inputs": [
				{
					"internalType": "uint256",
					"name": "tokenId",
					"type": "uint256"
				}
			],
			"name": "getApproved",
			"outputs": [
				{
					"internalType": "address",
					"name": "",
					"type": "address"
				}
			],
			"stateMutability": "view",
			"type": "function"
		},
		{
			"inputs": [
				{
					"internalType": "address",
					"name": "owner",
					"type": "address"
				},
				{
					"internalType": "address",
					"name": "operator",
					"type": "address"
				}
			],
			"name": "isApprovedForAll",
			"outputs": [
				{
					"internalType": "bool",
					"name": "",
					"type": "bool"
				}
			],
			"stateMutability": "view",
			"type": "function"
		},
		{
			"inputs": [
				{
					"components": [
						{
							"internalType": "address",
							"name": "to",
							"type": "address"
						},
						{
							"internalType": "uint256",
							"name": "token_id",
							"type": "uint256"
						},
						{
							"internalType": "string",
							"name": "uri",
							"type": "string"
						}
					],
					"internalType": "struct ROYALBWP.NFTBatch[]",
					"name": "nftsArray",
					"type": "tuple[]"
				}
			],
			"name": "mintBulkNfts",
			"outputs": [],
			"stateMutability": "nonpayable",
			"type": "function"
		},
		{
			"inputs": [],
			"name": "name",
			"outputs": [
				{
					"internalType": "string",
					"name": "",
					"type": "string"
				}
			],
			"stateMutability": "view",
			"type": "function"
		},
		{
			"inputs": [],
			"name": "owner",
			"outputs": [
				{
					"internalType": "address",
					"name": "",
					"type": "address"
				}
			],
			"stateMutability": "view",
			"type": "function"
		},
		{
			"inputs": [
				{
					"internalType": "uint256",
					"name": "tokenId",
					"type": "uint256"
				}
			],
			"name": "ownerOf",
			"outputs": [
				{
					"internalType": "address",
					"name": "",
					"type": "address"
				}
			],
			"stateMutability": "view",
			"type": "function"
		},
		{
			"inputs": [],
			"name": "pause",
			"outputs": [],
			"stateMutability": "nonpayable",
			"type": "function"
		},
		{
			"inputs": [],
			"name": "paused",
			"outputs": [
				{
					"internalType": "bool",
					"name": "",
					"type": "bool"
				}
			],
			"stateMutability": "view",
			"type": "function"
		},
		{
			"inputs": [],
			"name": "renounceOwnership",
			"outputs": [],
			"stateMutability": "nonpayable",
			"type": "function"
		},
		{
			"inputs": [],
			"name": "restrictTransfer",
			"outputs": [],
			"stateMutability": "nonpayable",
			"type": "function"
		},
		{
			"inputs": [],
			"name": "root",
			"outputs": [
				{
					"internalType": "bytes32",
					"name": "",
					"type": "bytes32"
				}
			],
			"stateMutability": "view",
			"type": "function"
		},
		{
			"inputs": [
				{
					"internalType": "address",
					"name": "to",
					"type": "address"
				},
				{
					"internalType": "string",
					"name": "uri",
					"type": "string"
				},
				{
					"internalType": "uint256",
					"name": "tokenId",
					"type": "uint256"
				}
			],
			"name": "safeMint",
			"outputs": [],
			"stateMutability": "nonpayable",
			"type": "function"
		},
		{
			"inputs": [
				{
					"internalType": "address",
					"name": "from",
					"type": "address"
				},
				{
					"internalType": "address",
					"name": "to",
					"type": "address"
				},
				{
					"internalType": "uint256",
					"name": "tokenId",
					"type": "uint256"
				}
			],
			"name": "safeTransferFrom",
			"outputs": [],
			"stateMutability": "nonpayable",
			"type": "function"
		},
		{
			"inputs": [
				{
					"internalType": "address",
					"name": "from",
					"type": "address"
				},
				{
					"internalType": "address",
					"name": "to",
					"type": "address"
				},
				{
					"internalType": "uint256",
					"name": "tokenId",
					"type": "uint256"
				},
				{
					"internalType": "bytes",
					"name": "data",
					"type": "bytes"
				}
			],
			"name": "safeTransferFrom",
			"outputs": [],
			"stateMutability": "nonpayable",
			"type": "function"
		},
		{
			"inputs": [
				{
					"internalType": "address",
					"name": "operator",
					"type": "address"
				},
				{
					"internalType": "bool",
					"name": "approved",
					"type": "bool"
				}
			],
			"name": "setApprovalForAll",
			"outputs": [],
			"stateMutability": "nonpayable",
			"type": "function"
		},
		{
			"inputs": [
				{
					"internalType": "bytes4",
					"name": "interfaceId",
					"type": "bytes4"
				}
			],
			"name": "supportsInterface",
			"outputs": [
				{
					"internalType": "bool",
					"name": "",
					"type": "bool"
				}
			],
			"stateMutability": "view",
			"type": "function"
		},
		{
			"inputs": [],
			"name": "symbol",
			"outputs": [
				{
					"internalType": "string",
					"name": "",
					"type": "string"
				}
			],
			"stateMutability": "view",
			"type": "function"
		},
		{
			"inputs": [
				{
					"internalType": "uint256",
					"name": "index",
					"type": "uint256"
				}
			],
			"name": "tokenByIndex",
			"outputs": [
				{
					"internalType": "uint256",
					"name": "",
					"type": "uint256"
				}
			],
			"stateMutability": "view",
			"type": "function"
		},
		{
			"inputs": [
				{
					"internalType": "address",
					"name": "owner",
					"type": "address"
				},
				{
					"internalType": "uint256",
					"name": "index",
					"type": "uint256"
				}
			],
			"name": "tokenOfOwnerByIndex",
			"outputs": [
				{
					"internalType": "uint256",
					"name": "",
					"type": "uint256"
				}
			],
			"stateMutability": "view",
			"type": "function"
		},
		{
			"inputs": [
				{
					"internalType": "uint256",
					"name": "tokenId",
					"type": "uint256"
				}
			],
			"name": "tokenURI",
			"outputs": [
				{
					"internalType": "string",
					"name": "",
					"type": "string"
				}
			],
			"stateMutability": "view",
			"type": "function"
		},
		{
			"inputs": [],
			"name": "totalSupply",
			"outputs": [
				{
					"internalType": "uint256",
					"name": "",
					"type": "uint256"
				}
			],
			"stateMutability": "view",
			"type": "function"
		},
		{
			"inputs": [
				{
					"internalType": "address",
					"name": "from",
					"type": "address"
				},
				{
					"internalType": "address",
					"name": "to",
					"type": "address"
				},
				{
					"internalType": "uint256",
					"name": "tokenId",
					"type": "uint256"
				}
			],
			"name": "transferFrom",
			"outputs": [],
			"stateMutability": "nonpayable",
			"type": "function"
		},
		{
			"inputs": [
				{
					"internalType": "address",
					"name": "newOwner",
					"type": "address"
				}
			],
			"name": "transferOwnership",
			"outputs": [],
			"stateMutability": "nonpayable",
			"type": "function"
		},
		{
			"inputs": [],
			"name": "unpause",
			"outputs": [],
			"stateMutability": "nonpayable",
			"type": "function"
		},
		{
			"inputs": [
				{
					"components": [
						{
							"internalType": "string",
							"name": "Uri",
							"type": "string"
						},
						{
							"internalType": "uint256",
							"name": "token_id",
							"type": "uint256"
						}
					],
					"internalType": "struct ROYALBWP.NFTMetadata[]",
					"name": "_array",
					"type": "tuple[]"
				}
			],
			"name": "updateBulkNfts",
			"outputs": [],
			"stateMutability": "nonpayable",
			"type": "function"
		},
		{
			"inputs": [
				{
					"internalType": "bytes32",
					"name": "_root",
					"type": "bytes32"
				}
			],
			"name": "updateRoot",
			"outputs": [],
			"stateMutability": "nonpayable",
			"type": "function"
		},
		{
			"inputs": [
				{
					"internalType": "address",
					"name": "_add",
					"type": "address"
				},
				{
					"internalType": "uint256",
					"name": "limit",
					"type": "uint256"
				}
			],
			"name": "updateUserGlobalLimit",
			"outputs": [],
			"stateMutability": "nonpayable",
			"type": "function"
		}
	]
}